:100000000C945E010C948F010C948F010C948F0161
:100010000C948F010C948F010C948F010C948F0120
:100020000C948F010C94D4030C94D4030C94D4033B
:100030000C948F010C948F010C948F010C948F0100
:100040000C948F010C948F010C948F010C948F01F0
:100050000C948F010C94D1060C948F010C941A0807
:100060000C948F010C94EA080C94C0080C948F0136
:100070000C948F010C948F010C948F010C948F01C0
:100080000C948F010C948F010C948F010C948F01B0
:100090000C948F010C948F010C948F010C948F01A0
:1000A0000C948F010C948F010C948F010C948F0190
:1000B0000C948F010C948F010C948F010C948F0180
:1000C0000C948F010C948F010C948F010C948F0170
:1000D0000C948F010C948F010C948F010C948F0160
:1000E0000C948F01090D0C0DFB0CFF0C030D430D3F
:1000F000100D140D1A0D1E0D220D280D2C0D300D96
:10010000430D360D3A0D3E0D0C941A0D0C947002F1
:100110000C94430D0C94140D0C94FE010C94BD072B
:100120000C949B020C94090D0C9495070C94280DCB
:100130000C94360D0C9491010C94AA010C943B0381
:100140000C94F4020C9416020C94BD020C94100D45
:100150000C9479080C94D5070C94FB0C0C941E0D90
:100160000C943F0F0C940C0D0C94030D0C942C0D5F
:100170000C9461070C94A9010C943A0D0C94300D69
:100180000C943E0D0C94490F0C94AF020C94220D6C
:100190000C94FF0C2C002C000000210024002700F0
:1001A0002A002D0030003300010100000401070186
:1001B0000A0100000A0B02090C0D0E0807030401D6
:1001C000000000000000000000000000000000002F
:1001D00000000000000000000000000000001211FC
:1001E00010000000000000000000000000000000FF
:1001F0000000000000000000000022002500280090
:100200002B002E003100340002010000050108011E
:100210000B01000020002300260029002C002F00E5
:100220003200000100000301060109010505050572
:10023000070508080808020202020A0A080804045E
:10024000040401010101010101010303030303038C
:100250000303040707070C0C0C0C0C0C0C0C02021B
:10026000020206060606060606060B0B0B0B0B0B18
:100270000B0B0102102020080810204010204080A5
:10028000020102010804020101020408102040805A
:1002900080402010080402018004020180402010E8
:1002A0000804020108040201010204081020408031
:1002B0000102040810204080490F3F0F11241FBE87
:1002C000CFEFD1E2DEBFCDBF00E00CBF12E0A0E077
:1002D000B2E0EAE6F8E200E00BBF02C007900D9240
:1002E000A037B107D9F724E0A0E7B2E001C01D9222
:1002F000A431B207E1F711E0CDE5D1E000E006C09E
:1003000021970109802FFE010E943010CC35D107C2
:1003100080E00807A9F70E94570D0C9423140C9451
:1003200000002091DD023091DE022817390771F4B8
:100330009091DC028091DB02981741F0E091DC02A1
:10034000F0E0E556FD4F808190E008958FEF9FEF3C
:10035000089508951F93CF93DF93DC015C962D9150
:100360003C915D972115310539F481E090E01396B9
:100370009C938E9312973DC05196ED91FC915297AC
:1003800050969C915097892F80951FB75E964C91FF
:100390005E9741FB772770F941FD6095F8944081A5
:1003A000772311F0492B01C048234083E9012197AD
:1003B000F1F748E0508160FF02C0592B01C058237B
:1003C0005083E9012197F1F76695415099F777231A
:1003D00021F090818923808303C08081982B9083B2
:1003E0001FBF5C968D919C915D970197F1F721E07D
:1003F00030E0C901DF91CF911F9108952091DD0276
:100400003091DE022817390771F48091DB022091C8
:10041000DC0290E0805C9F4F821B910960E470E0F9
:100420000E94FA0F089580E090E008952091DD0287
:100430003091DE0228173907B9F49091DC028091DF
:10044000DB02981789F0E091DC02F0E0E556FD4F01
:1004500080812091DC0230E02F5F3F4F2F733327E4
:100460002093DC0290E008958FEF9FEF0895E091D4
:10047000DD02F091DE02E817F90769F4A389B48977
:100480009C918589809589238C931092DE0210922D
:10049000DD0281E0089580E00895CF93DF93FC01B1
:1004A000A085B1858281938124813581EC013D83D2
:1004B0002C83C481D5819B838A8311968D919C91D5
:1004C00012978E179F0721F41296DC93CE93119703
:1004D000118610868C9181508C93DF91CF91089575
:1004E000CF92DF92EF92FF920F931F93CF93DF9300
:1004F0006C017A018B01C0E0D0E0CE15DF0589F0F8
:10050000D8016D918D01D601ED91FC910190F081A2
:10051000E02DC6011995892B11F47E0102C02196A8
:10052000ECCFC701DF91CF911F910F91FF90EF901A
:10053000DF90CF900895FC01918D828D981761F026
:10054000828DDF01A80FB11D5D968C91928D9F5F0A
:100550009F73928F90E008958FEF9FEF0895FC01B5
:10056000918D828D981731F0828DE80FF11D858D68
:1005700090E008958FEF9FEF0895FC01918D228DFB
:10058000892F90E0805C9F4F821B91098F73992780
:1005900008958EE193E00E94BD0221E0892B09F4C9
:1005A00020E0822F0895FC01848DDF01A80FB11D8A
:1005B000A35ABF4F2C91848D90E001968F73992799
:1005C000848FA689B7892C93A089B1898C91806486
:1005D0008C93938D848D981306C00288F389E02D47
:1005E00080818F7D80830895EF92FF920F931F93F8
:1005F000CF93DF93EC0181E0888F9B8D8C8D9813D6
:1006000005C0E889F989808185FD24C0F62E0B8D0F
:1006100010E00F5F1F4F0F731127E02E8C8DE81233
:100620000CC00FB607FCFACFE889F989808185FFF5
:10063000F5CFCE010E94D302F1CF8B8DFE01E80FE2
:10064000F11DE35AFF4FF0820B8FEA89FB8980810D
:10065000806207C0EE89FF896083E889F98980811B
:100660008064808381E090E0DF91CF911F910F91B2
:10067000FF90EF900895CF93DF93EC01888D88234E
:10068000C9F0EA89FB89808185FD05C0A889B989FF
:100690008C9186FD0FC00FB607FCF5CF808185FFDA
:1006A000F2CFA889B9898C9185FFEDCFCE010E9448
:1006B000D302E7CFDF91CF91089580E090E0892BBE
:1006C00021F00E94C902811125C080E090E0892BB1
:1006D00041F080E090E0892B21F00E940000811120
:1006E0001CC080E090E0892B41F080E090E0892BF5
:1006F00021F00E940000811113C080E090E0892B5E
:10070000A1F080E090E0892B81F00E94000081112F
:100710000AC008950E940000D8CF0E940000E1CFD7
:100720000E940000EACF0C94000008950E948812F5
:10073000CF93DF9390E0FC01EE58FD4F2491FC0134
:10074000E45DFD4F8491882361F190E0880F991F4B
:10075000FC01E856FE4FC591D491FC01E850FE4FD4
:10076000A591B491611109C09FB7F8948881209533
:1007700082238883EC912E230BC0623061F49FB7F3
:10078000F8943881822F809583238883EC912E2BD7
:100790002C939FBF06C08FB7F894E8812E2B288337
:1007A0008FBFDF91CF9108951F920F920FB60F92D6
:1007B00011240BB60F922F933F934F935F936F9338
:1007C0007F938F939F93AF93BF93EF93FF93E091AA
:1007D000DD02F091DE02309709F451C0968DA685B6
:1007E000B785858591FF04C09C91892329F447C072
:1007F0009C91892309F043C0A389B4899C91858980
:10080000809589238C93868997890197F1F7608D6C
:10081000718DA685B785558538E020E0CB0101971D
:10082000F1F7822F90E095958795282F4C914523DD
:1008300009F02068315091F7868D81FD20958091D7
:10084000DB0290E001968F7399273091DC02381714
:1008500049F0A091DB02B0E0A556BD4F2C938093E8
:10086000DB0203C0868D8160868F828D938D019718
:10087000F1F7A389B4899C918589892B8C93FF9189
:10088000EF91BF91AF919F918F917F916F915F9108
:100890004F913F912F910F900BBE0F900FBE0F9075
:1008A0001F901895CF93DF939C01FB01DC011196FB
:1008B000CD91DC911297D383C2838C819D819583E6
:1008C00084838C819D81DC0113967C936E931297B7
:1008D0007D836C8331872087F90180818F5F8083DE
:1008E000DF91CF9108958C01F89461E08DE00E9432
:1008F0009803C0E0D0E0C017D107E4F461E08DE0D8
:100900000E94DA0C80E899EAA3E0B0E000000197C9
:10091000A109B109D9F760E08DE00E94DA0C80E806
:1009200099EAA3E0B0E000000197A109B109D9F765
:100930002196E1CF40E05AE668E170E000004150C6
:10094000510961097109D1F7D4CF81E090E00E948B
:100950007304CF92DF92EF92FF920F931F93CF9386
:10096000DF9380919A028111B1C08091960290919B
:10097000970201969093970280939602E0909602D8
:10098000F0909702E114F104B9F5E091E102F091E1
:10099000E202808181110E94A5048091E102909180
:1009A000E2022091DF023091E0023093E2022093D4
:1009B000E1029093E0028093DF02809195028F5FC5
:1009C00080939502E091E102F091E2028081811131
:1009D00003C08FEF9FEF0CC0E091E102F091E202C3
:1009E0000580F681E02D0680F781E02D82819381DC
:1009F0009093940280939302809193029091940239
:100A0000C0E0E816F90608F44FC0D9E0E091E10231
:100A1000F091E2028081811103C08FEF9FEF11C03E
:100A2000E091E102F091E2020580F681E02D06817D
:100A30001781D80112968D919C911397E816F906AB
:100A400028F490939402809393022EC06801B2E040
:100A5000CB0ED11CC6010E944D02F80184899589F4
:100A6000892B21F0C8010C960E944D02D8015696A0
:100A70009C9180911903891710F490931903D99FC1
:100A8000C0011124B6018B509D4F0E945204E09189
:100A90001B03F0911C03D80156969C9186899817E8
:100AA00008F4B4CFC1E0B2CFE0911B03F0911C0376
:100AB000E689B9E0EB9FF0011124EB50FD4F8081F6
:100AC000823008F0C1E08091920206C080919202CB
:100AD0008F5F80939202C0E0809199028111C1E002
:100AE0008C2FDF91CF911F910F91FF90EF90DF90AE
:100AF000CF90089510929902E0911B03F0911C038E
:100B00000788F08DE02D80819181A281B381853AA3
:100B1000954AA54AB54AE9F484819581A681B781B1
:100B2000853A954AA54AB54AA1F480859185A28562
:100B3000B385853A954AA54AB54A59F48485958581
:100B4000A685B785853A954AA54AB54A11F499E034
:100B500011C080911B0390911C0380911B03909105
:100B60001C0383E090E00E9473048091190381507C
:100B700080931903E09119039E9FF0011124EB501B
:100B8000FD4F8081811106C0809119038111EDCF45
:100B90000E94A5048091190390E049E0489F9001CC
:100BA000499F300D1124F901EB50FD4FA181B28115
:100BB00012960D90BC91A02DB283A18328503D4F79
:100BC000A217B30731F412962D913C9113973283FB
:100BD000218329E0289FF001299FF00D1124EB507B
:100BE000FD4F0180F281E02D8681978190931C0357
:100BF00080931B0308950F920FB6F8940F920BB6D3
:100C00000F920CB60F921F9211242F923F924F9287
:100C10005F926F927F928F929F92AF92BF92CF928C
:100C2000DF92EF92FF920F931F932F933F934F9377
:100C30005F936F937F938F939F93AF93BF93CF9364
:100C4000DF93EF93FF93A0911B03B0911C030DB6AC
:100C50000D920EB60D9280919A02882321F081E0C8
:100C60008093990202C00E947A05A0911B03B09163
:100C70001C03CD91CDBFDD91DEBFFF91EF91DF91E0
:100C8000CF91BF91AF919F918F917F916F915F9124
:100C90004F913F912F911F910F91FF90EF90DF9017
:100CA000CF90BF90AF909F908F907F906F905F900C
:100CB0004F903F902F901F900F900CBE0F900BBE47
:100CC0000F900FBE0F9008950F920FB6F8940F92E9
:100CD0000BB60F920CB60F921F9211242F923F92D7
:100CE0004F925F926F927F928F929F92AF92BF923C
:100CF000CF92DF92EF92FF920F931F932F933F9328
:100D00004F935F936F937F938F939F93AF93BF9313
:100D1000CF93DF93EF93FF93A0911B03B0911C033C
:100D20000DB60D920EB60D920E94A904882351F0C3
:100D300080919A02882321F081E08093990202C079
:100D40000E947A05A0911B03B0911C03CD91CDBFE9
:100D5000DD91DEBFFF91EF91DF91CF91BF91AF9118
:100D60009F918F917F916F915F914F913F912F91C3
:100D70001F910F91FF90EF90DF90CF90BF90AF90B9
:100D80009F908F907F906F905F904F903F902F90AB
:100D90001F900F900CBE0F900BBE0F900FBE0F90C8
:100DA00008950E9464061895EF92FF920F931F9387
:100DB000CF93DF9380919A02811102C00E94A50413
:100DC0000FB6F8940F9280919A02815080939A0204
:100DD00080919A02882311F080E053C080911D0316
:100DE0008823D1F389E0F82EEE24E3948091EC027D
:100DF000882351F1E091F102F091F202C681D7818E
:100E0000CE010C960E944D028E010E5F1F4FC8014D
:100E10000E944D029E8980911903891710F49093C6
:100E20001903F99EC0011124B8018B509D4F0E94F7
:100E30005204E0911B03F0911C039E898689981748
:100E4000A8F2E0929902D2CF80919202811109C05A
:100E500080919902813009F0BFCF0E94FB0581E0AB
:100E600010C0C1E080919202882391F30E94A904EE
:100E70008111C093990280919202815080939202D5
:100E8000F1CF0F900FBEDF91CF911F910F91FF9087
:100E9000EF90089580919A028F5F80939A0208954F
:100EA000CF93DF93009751F0EC010E944A07CE01E7
:100EB0000E942913DF91CF910C94D406DF91CF913A
:100EC000089580919802882349F10E944A07C091B1
:100ED000E3020E94D406CC23A1F30FB6F8940F923C
:100EE000E091E802F091E902C681D781CE01029635
:100EF0000E944D0280911D03815080931D038091BB
:100F000098028150809398020F900FBE8F89988D20
:100F10000E945007CE010E945007D3CF8091F50266
:100F2000823078F20E94FB05CCCFC1E00E944A07D4
:100F30008091790281111EC086E292E00E94650ACA
:100F400080E090E00E945F1120E030E04AE754E446
:100F50000E944C102DEC3CEC4CEC5DE30E94161210
:100F60006093750270937602809377029093780273
:100F7000C09379020E94D406D9CFC1E00E944A07EB
:100F800080917E0281110EC088E292E00E94650A83
:100F900060937A0270937B0280937C0290937D022F
:100FA000C0937E020E94D406E9CFC1E00E944A07A6
:100FB00080917402811116C08AE292E00E94650A53
:100FC0000E945F112DEC3CEC4CEC5DE30E9416128C
:100FD0006093700270937102809372029093730217
:100FE000C09374020E94D406E1CF3FB7F894809179
:100FF0008E0290918F02A0919002B091910226B53D
:10100000A89B05C02F3F19F00196A11DB11D3FBF40
:10101000BA2FA92F982F8827820F911DA11DB11DCE
:10102000BC01CD0142E0660F771F881F991F4A95CA
:10103000D1F708951F920F920FB60F9211242F939C
:101040003F938F939F93AF93BF9380918A02909128
:101050008B02A0918C02B0918D023091890223E025
:10106000230F2D3720F40196A11DB11D05C026E8E0
:10107000230F0296A11DB11D2093890280938A023D
:1010800090938B02A0938C02B0938D0280918E027C
:1010900090918F02A0919002B09191020196A11DB2
:1010A000B11D80938E0290938F02A0939002B09313
:1010B0009102BF91AF919F918F913F912F910F908E
:1010C0000FBE0F901F9018956115710579F0FB0107
:1010D00001900020E9F73197AF01461B570BDC0167
:1010E000ED91FC910280F381E02D199480E090E075
:1010F00008950E944A0780917E02813041F48091D8
:101100007902813021F480917402813019F00E94BB
:10111000D406EFCF60917A0270917B0280917C02BD
:1011200090917D024AE00E94200986E991E00E94A8
:10113000440A6091750270917602809177029091D5
:10114000780242E00E94630984E991E00E94440A27
:10115000609170027091710280917202909173029D
:1011600042E00E9463096FE572E08EE193E00E9425
:1011700064081092790210927E0210927402C7CF16
:101180001F920F920FB60F9211240BB60F922F934E
:101190003F934F935F936F937F938F939F93AF93FF
:1011A000BF93EF93FF938EE193E00E94D302FF91F0
:1011B000EF91BF91AF919F918F917F916F915F91CF
:1011C0004F913F912F910F900BBE0F900FBE0F903C
:1011D0001F9018951F920F920FB60F9211240BB605
:1011E0000F922F938F939F93EF93FF93E0912E0392
:1011F000F0912F038081E0913403F091350382FD5B
:1012000012C09081809137038F5F8F7320913803D4
:10121000821751F0E0913703F0E0E25EFC4F958FCA
:101220008093370301C08081FF91EF919F918F914F
:101230002F910F900BBE0F900FBE0F901F9018951F
:101240008F929F92AF92BF920F931F93CF93DF9392
:10125000CDB7DEB7A1970FB6F894DEBF0FBECDBFF6
:1012600019A2423008F44AE08E010F5D1F4F842E10
:10127000912CA12CB12CA50194010E940E10E62FF7
:10128000B901CA0101501109EA3014F4E05D01C04E
:10129000E95CD801EC93232B242B252B61F7B801B3
:1012A0008EE193E00E946408A1960FB6F894DEBF29
:1012B0000FBECDBFDF91CF911F910F91BF90AF9027
:1012C0009F908F9008954F925F926F927F928F922E
:1012D0009F92AF92BF92CF92DF92EF92FF926B01FB
:1012E0007C01B42E9B01AC010E948312882319F06B
:1012F00062E672E027C026013701E89477F82FEF05
:101300003FEF4FE75FE7C301B2010E9483128111F3
:101310000DC02FEF3FEF4FE75FE7C301B2010E941F
:10132000B91018161CF466E672E00CC02FEF3FEF00
:101330004FE75FE4C701B6010E941112181694F43A
:101340006AE672E08EE193E0FF90EF90DF90CF903D
:10135000BF90AF909F908F907F906F905F904F90D5
:101360000C9464082FEF3FEF4FE75FECC701B60125
:101370000E94B91087FDE4CF20E030E0A901C70149
:10138000B6010E94B91087FF11C0E0911E03F091D1
:101390001F030190F081E02D6DE28EE193E019953D
:1013A0004C01F7FAF094F7F8F09402C0812C912CDC
:1013B000A12C60E070E080E09FE3AB1441F020E0FE
:1013C00030E040E251E40E94BE10A394F6CF9B01AE
:1013D000AC01C701B6010E944D102B013C010E94D7
:1013E00030116B017C010E945F119B01AC01C301B4
:1013F000B2010E944C102B013C014AE0C701B6012A
:101400000E9420097C01E80CF91CBB2041F06EE62B
:1014100072E08EE193E00E946408E80EF91EDB2C76
:10142000DD2021F120E030E040E251E4C301B201CF
:101430000E9416122B013C010E9430114B01A12C7D
:10144000B12C4AE0C501B4010E942009E80EF91E42
:10145000C501B4010E945F119B01AC01C301B2013F
:101460000E944C102B013C01DA94DACFC701FF90A7
:10147000EF90DF90CF90BF90AF909F908F907F9034
:101480006F905F904F9008950F931F93CF93DF93CA
:101490008C01C0E0D0E0F801EC0FFD1F64916623E1
:1014A00071F0E0911E03F0911F030190F081E02D97
:1014B0008EE193E01995892B11F02196ECCFCE01A6
:1014C000DF91CF911F910F9108958F929F92AF92CC
:1014D000BF92CF92DF92EF92FF92CF93DF93BC0146
:1014E0008091BF039091C0030E9464086FE572E091
:1014F0008091BF039091C0030E9464081092C103C1
:101500000E94F5074B015C0138EC20E090E080E0A0
:10151000C32ED22EE92EF82E0E94F507DC01CB0156
:1015200088199909AA09BB09883E9340A105B1050C
:1015300088F021E0C21AD108E108F10888EE880E8F
:1015400083E0981EA11CB11CC114D104E104F10474
:1015500019F708C03C2D2D2D9E2D8F2DCD28CE287E
:10156000CF28B1F6C0E0D0E08091BF039091C003D6
:10157000DC01ED91FC910480F581E02D1995892B1A
:1015800089F021968091BF039091C003DC01ED9119
:10159000FC910680F781E02D1995FE01E554FC4F82
:1015A0008583E2CFC554DC4F1E828091C103843510
:1015B00089F486EC93E00E94C113BC01990F880B5B
:1015C000990B2091C503213099F468517C4F8F4FBE
:1015D0009F4F0EC083EC93E0DF91CF91FF90EF908F
:1015E000DF90CF90BF90AF909F908F900C94DF13BF
:1015F000DF91CF91FF90EF90DF90CF90BF90AF90B1
:101600009F908F9008957F928F929F92AF92BF92FA
:10161000CF92DF92EF92FF920F931F93CF93DF93BE
:101620005C01762EC72EEA01D22E892B11F40E947E
:10163000A504822F90E00497D4F70E944A07CE01B8
:101640000E9494124C010E94D4068114910421F44A
:1016500082E090E00E9473040E944A0789E290E0D1
:101660000E9494127C010E94D406E114F10481F3DB
:10167000D70158969C928E925797AE0165EA70E01A
:10168000C4010E948D12FE013197E80DF91DB701CA
:10169000675E7F4FA72DBC2DCD0108969D014D9112
:1016A000EB014993BE01E9012881222319F0A81713
:1016B000B907A1F7D70190961C928D2DB3E0BD1507
:1016C00008F483E0E7018E8B89A31AA21B861A8691
:1016D0001D8A1C8AF986E88624E030E0A901481BAF
:1016E00051095D874C87FB8AEA8A1BA21CA21DA2B6
:1016F0001EA218A61FA291E19083DF01119782E23A
:101700008C93119723E32C931197AC921197BC9271
:1017100011971C9211971C92119720E82C93119706
:101720001C9211971C9211971C92119722E02C93F6
:10173000119723E02C93119724E02C93119725E027
:101740002C93119726E02C93119727E02C93119757
:1017500028E02C93119729E02C93119720E12C93EA
:1017600011979C93119792E19C93119793E19C930D
:10177000119794E19C93119795E19C93119796E1B1
:101780009C93119797E19C93119798E19C931197E3
:1017900099E19C93119790E29C93119791E29C930D
:1017A00011978C93119783E28C9311971C92119748
:1017B0001C92119786E28C93119787E28C93119774
:1017C00088E28C93119789E28C93119780E38C9334
:1017D000119781E38C93B997F983E883011511057B
:1017E00019F0F801F182E0820FB6F8940F9280911F
:1017F0001D038F5F80931D0380911B0390911C0339
:10180000892B09F091C0F0921C03E0921B03809198
:101810001D03813009F097C0E5EFF2E04FEF5FEF75
:101820009F012D5F3F4F328321838FEF9FEF5483C2
:10183000438336832583308727831082399623E0BC
:10184000E931F20769F729E034E030930804209386
:10185000070490930A048093090430930C042093A6
:101860000B0430930E0420930D041092060420E024
:1018700034E03093FF032093FE03909301048093A0
:101880000004309303042093020430930504209352
:1018900004041092FD032FEE32E03093EE02209309
:1018A000ED029093F0028093EF023093F2022093C6
:1018B000F1023093F4022093F3021092EC0226EE30
:1018C00032E03093E5022093E4029093E7028093A4
:1018D000E6023093E9022093E8023093EB02209372
:1018E000EA021092E30227EF33E03093F6032093ED
:1018F000F5039093F8038093F7033093FA03209352
:10190000F9033093FC032093FB031092F40386E069
:1019100094E09093E2028093E1028DEF93E0909344
:10192000E0028093DF020FC080911A0381110BC087
:10193000E0911B03F0911C038689D81620F0F092E9
:101940001C03E0921B0380910F048F5F80930F04B0
:10195000D70156968C9190911903981710F48093A3
:101960001903B7016E5F7F4FB9E08B9FC00111244F
:101970008B509D4F0E9452040F900FBE80911A030E
:10198000882349F0E0911B03F0911C0386898D1593
:1019900010F40E94FB0581E0DF91CF911F910F9120
:1019A000FF90EF90DF90CF90BF90AF909F908F907F
:1019B0007F900895362F90E0FC01EE54FE4F449145
:1019C000FC01EE58FD4F2491FC01E45DFD4F949124
:1019D000992309F46BC0442309F455C050E0FA017F
:1019E0003197E231F10508F04EC08827EE58FF4FDD
:1019F0008F4F0C943010809180008F7707C08091BA
:101A000080008F7D03C080918000877F809380005D
:101A10003AC084B58F7702C084B58F7D84BD33C052
:101A20008091B0008F7703C08091B0008F7D80934C
:101A3000B00029C0809190008F7707C080919000FE
:101A40008F7D03C080919000877F809390001BC0A2
:101A50008091A0008F7707C08091A0008F7D03C088
:101A60008091A000877F8093A0000DC0809120010D
:101A70008F7707C0809120018F7D03C08091200166
:101A8000877F80932001E92FF0E0EE0FFF1FE850E1
:101A9000FE4FA591B4918FB7F894EC91311103C02A
:101AA00020952E2301C02E2B2C938FBF0895789460
:101AB00084B5826084BD84B5816084BD85B5826053
:101AC00085BD85B5816085BD80916E008160809304
:101AD0006E0010928100809181008260809381006D
:101AE000809181008160809381008091800081607D
:101AF000809380008091B10084608093B1008091D8
:101B0000B00081608093B0008091910082608093EA
:101B1000910080919100816080939100809190006C
:101B20008160809390008091A10082608093A100E9
:101B30008091A10081608093A1008091A0008160CC
:101B40008093A00080912101826080932101809187
:101B50002101816080932101809120018160809327
:101B6000200180917A00846080937A0080917A00CD
:101B7000826080937A0080917A00816080937A00FD
:101B800080917A00806880937A001092C100109250
:101B9000F0031092EF031092EE031092ED031092F7
:101BA000EC031092EB038DE991E09093F2038093A4
:101BB000F1038091E10396EF980F943048F02EECFA
:101BC000280F243028F022EC280F283008F06EC0AF
:101BD0002DEB30E03093EC032093EB032BE931E065
:101BE0003093EE032093ED032CE231E03093F003C9
:101BF0002093EF03943060F02EEC280F243040F057
:101C000022EC280F283008F432C1A0E0B0E031C146
:101C1000A8E6B0E0E8E6F0E02081943018F08E53BA
:101C2000883010F081E001C084E0822B8C93809199
:101C3000E10396EF980F943058F02EEC280F2430E3
:101C400038F022EC280F283030F020E030E005C0DA
:101C50002BE630E002C02DE630E03093E90320931C
:101C6000E803943010F49AEF0BC0823381F0833391
:101C700081F0843381F092EC980F983070F492ECFC
:101C8000980F81E001C0880F9A95EAF707C088E0B5
:101C900005C084E003C082E001C081E08093EA03D4
:101CA0008091F1039091F2030197F1F78091EF0396
:101CB0009091F003892B21F18091DD029091DE0259
:101CC00023E0853D9207E1F0009711F00E94370272
:101CD0008091F3038E7F8093F3031092DB021092C6
:101CE000DC0285ED93E09093DE028093DD02E091CB
:101CF000E803F091E90390818091EA03892B8083C6
:101D0000E0912E03F0912F0382E08083E0912A037B
:101D1000F0912B031082E0912C03F0912D038FECB6
:101D2000808310923603E0913203F091330386E012
:101D30008083E0913003F091310380818061808362
:101D4000E0913003F0913103808188608083E091DD
:101D50003003F0913103808180688083E09130030B
:101D6000F091310380818F7D808307E812E021E0CC
:101D70004EE551E06CE272E085E997E00E94030BCA
:101D800005E812E021E044EF51E067E372E08DEBFB
:101D900097E00E94030B03E812E021E048EC50E0DA
:101DA00061E472E085ED97E00E94030B01E812E028
:101DB00021E040E951E060E572E089E798E00E94A7
:101DC000030B0FE712E020E044E650E06AE572E022
:101DD00081E697E00E94030B813009F043C0F8943C
:101DE0002FEF3FEF309394022093930280931A03D6
:101DF000109297021092960287BD80916E008260C9
:101E000080936E00A0911B03B0911C03CD91CDBFB8
:101E1000DD91DEBFFF91EF91DF91CF91BF91AF9147
:101E20009F918F917F916F915F914F913F912F91F2
:101E30001F910F91FF90EF90DF90CF90BF90AF90E8
:101E40009F908F907F906F905F904F903F902F90DA
:101E50001F900F900CBE0F900BBE0F900FBE0F90F7
:101E6000089504C0811102C00E94A504FFCFA8E616
:101E7000B0E0283008F4CECEE0E0F0E0CDCE8AE14C
:101E800092E09093D6038093D50385ED93E00C9474
:101E90003702109221031092200388EE93E0A0E015
:101EA000B0E08093220390932303A0932403B09384
:101EB00025032AE032E030931F0320931E0325EC14
:101EC00030E030932B0320932A0324EC30E030934E
:101ED0002D0320932C0320EC30E030932F0320932C
:101EE0002E0321EC30E0309331032093300322ECB9
:101EF00030E0309333032093320326EC30E030930C
:101F00003503209334031092370310923803109254
:101F1000390310923A031092D8031092D70380939A
:101F2000D9039093DA03A093DB03B093DC038AE137
:101F300092E09093D6038093D5031092EC03109215
:101F4000EB031092EE031092ED031092F003109247
:101F5000EF031092F2031092F1036091F3036E7F8E
:101F60006D7F6093F3036695617081E068278CE074
:101F70000E94DA0C61E08CE00E949803EEE7F2E048
:101F8000E491E093E503E8E3F2E0E491F0E0EE0FA2
:101F9000FF1FE850FE4F859194919093E703809343
:101FA000E60360E08DE00E9498038091F30381FDD9
:101FB00004C061E08DE00E94DA0C8DE08093E103C3
:101FC000EFE7F2E0E491E093E203E9E3F2E0E49189
:101FD000F0E0EE0FFF1FEE5EFD4F85919491909320
:101FE000E4038093E30385ED93E09093C003809333
:101FF000BF03089597FB072E16F4009407D077FDD2
:1020000009D00E94381007FC05D03EF490958195C8
:102010009F4F0895709561957F4F0895A1E21A2E04
:10202000AA1BBB1BFD010DC0AA1FBB1FEE1FFF1F7C
:10203000A217B307E407F50720F0A21BB30BE40BCC
:10204000F50B661F771F881F991F1A9469F7609513
:102050007095809590959B01AC01BD01CF010895CD
:10206000EE0FFF1F881F8BBF0790F691E02D19948C
:10207000AA1BBB1B51E107C0AA1FBB1FA617B707AE
:1020800010F0A61BB70B881F991F5A95A9F78095CA
:102090009095BC01CD0108955058BB27AA270E94F6
:1020A00064100C94D7110E94C91138F00E94D0110D
:1020B00020F039F49F3F19F426F40C94C6110EF465
:1020C000E095E7FB0C94C011E92F0E94E81158F34A
:1020D000BA17620773078407950720F079F4A6F50D
:1020E0000C940A120EF4E0950B2EBA2FA02D0B01C2
:1020F000B90190010C01CA01A0011124FF27591B4D
:1021000099F0593F50F4503E68F11A16F040A22F52
:10211000232F342F4427585FF3CF469537952795C3
:10212000A795F0405395C9F77EF41F16BA0B620BC2
:10213000730B840BBAF09150A1F0FF0FBB1F661F09
:10214000771F881FC2F70EC0BA0F621F731F841F4C
:1021500048F4879577956795B795F7959E3F08F072
:10216000B0CF9395880F08F09927EE0F9795879534
:1021700008950E949C1108F481E008950E94D210F5
:102180000C94D7110E94D01158F00E94C91140F050
:1021900029F45F3F29F00C94C01151110C940B12DB
:1021A0000C94C6110E94E81168F39923B1F35523EA
:1021B00091F3951B550BBB27AA276217730784075A
:1021C00038F09F5F5F4F220F331F441FAA1FA9F3F0
:1021D00035D00E2E3AF0E0E832D091505040E695DE
:1021E000001CCAF72BD0FE2F29D0660F771F881F3F
:1021F000BB1F261737074807AB07B0E809F0BB0B32
:10220000802DBF01FF2793585F4F3AF09E3F510545
:1022100078F00C94C0110C940B125F3FE4F3983EDD
:10222000D4F3869577956795B795F7959F5FC9F72E
:10223000880F911D9695879597F90895E1E0660FAF
:10224000771F881FBB1F621773078407BA0720F028
:10225000621B730B840BBA0BEE1F88F7E095089591
:102260000E94F01188F09F5798F0B92F9927B75125
:10227000B0F0E1F0660F771F881F991F1AF0BA952A
:10228000C9F714C0B13091F00E940A12B1E008956C
:102290000C940A12672F782F8827B85F39F0B93F5E
:1022A000CCF3869577956795B395D9F73EF49095DD
:1022B0008095709561957F4F8F4F9F4F0895E8945B
:1022C00009C097FB3EF490958095709561957F4F7E
:1022D0008F4F9F4F9923A9F0F92F96E9BB2793952C
:1022E000F695879577956795B795F111F8CFFAF43C
:1022F000BB0F11F460FF1BC06F5F7F4F8F4F9F4F6D
:1023000016C0882311F096E911C0772321F09EE8CA
:10231000872F762F05C0662371F096E8862F70E030
:1023200060E02AF09A95660F771F881FDAF7880F0A
:102330009695879597F90895990F0008550FAA0B60
:10234000E0E8FEEF16161706E807F907C0F01216C8
:102350001306E407F50798F0621B730B840B950BCB
:1023600039F40A2661F0232B242B252B21F4089520
:102370000A2609F4A140A6958FEF811D811D0895BD
:1023800097F99F6780E870E060E008959FEF80EC28
:10239000089500240A9416161706180609060895CB
:1023A00000240A9412161306140605060895092E31
:1023B0000394000C11F4882352F0BB0F40F4BF2BA0
:1023C00011F460FF04C06F5F7F4F8F4F9F4F0895E0
:1023D00057FD9058440F551F59F05F3F71F04795D6
:1023E000880F97FB991F61F09F3F79F087950895BB
:1023F000121613061406551FF2CF4695F1DF08C0DA
:10240000161617061806991FF1CF869571056105F6
:1024100008940895E894BB2766277727CB0197F99E
:1024200008950E949C1108F48FEF08950E942912CC
:102430000C94D7110E94C91138F00E94D01120F0DD
:10244000952311F00C94C0110C94C61111240C9416
:102450000B120E94E81170F3959FC1F3950F50E0A5
:10246000551F629FF001729FBB27F00DB11D639F46
:10247000AA27F00DB11DAA1F649F6627B00DA11DEC
:10248000661F829F2227B00DA11D621F739FB00D92
:10249000A11D621F839FA00D611D221F749F332702
:1024A000A00D611D231F849F600D211D822F762F9B
:1024B0006A2F11249F5750409AF0F1F088234AF078
:1024C000EE0FFF1FBB1F661F771F881F91505040E4
:1024D000A9F79E3F510580F00C94C0110C940B128B
:1024E0005F3FE4F3983ED4F3869577956795B7956B
:1024F000F795E7959F5FC1F7FE2B880F911D969585
:10250000879597F908950E949C11880B990B08955F
:1025100081E090E0F8940C942314DC0101C06D93E9
:1025200041505040E0F70895CF93DF9382309105FA
:1025300010F482E090E0E0911204F091130420E0A6
:1025400030E0C0E0D0E0309711F140815181481770
:102550005907C0F04817590761F482819381209789
:1025600019F09B838A832BC09093130480931204E9
:1025700026C02115310519F04217530718F49A01A6
:10258000BE01DF01EF010280F381E02DDCCF2115D8
:10259000310509F1281B390B2430310590F41296CE
:1025A0008D919C9113976115710521F0FB01938327
:1025B000828304C09093130480931204FD01329629
:1025C00044C0FD01E20FF31F819391932250310922
:1025D0002D933C933AC02091100430911104232B89
:1025E00041F42091020230910302309311042093B0
:1025F000100420910002309101022115310541F4AF
:102600002DB73EB74091040250910502241B350BB3
:10261000E0911004F0911104E217F307A0F42E1BCF
:102620003F0B2817390778F0AC014E5F5F4F241736
:10263000350748F04E0F5F1F50931104409310046C
:102640008193919302C0E0E0F0E0CF01DF91CF9160
:1026500008950F931F93CF93DF93009709F48CC0D5
:10266000FC0132971382128200911204109113041C
:102670000115110581F420813181820F931F209172
:102680001004309111042817390779F5F0931104DB
:10269000E093100471C0D80140E050E0AE17BF07CE
:1026A00050F412962D913C911397AD0121153105EF
:1026B00009F1D901F3CF9D01DA01338322836081CF
:1026C0007181860F971F8217930769F4EC012881A7
:1026D0003981260F371F2E5F3F4F318320838A8138
:1026E0009B8193838283452B29F4F0931304E09319
:1026F000120442C01396FC93EE931297ED01499198
:1027000059919E01240F351FE217F30771F4808160
:102710009181840F951F029611969C938E938281CE
:10272000938113969C938E931297E0E0F0E0D8018A
:1027300012968D919C911397009719F0F8018C01D6
:10274000F6CF8D919C9198012E5F3F4F820F931F82
:1027500020911004309111042817390769F430973B
:1027600029F4109213041092120402C013821282F0
:102770001093110400931004DF91CF911F910F91DA
:102780000895FC0188279927E89421912032E9F3E4
:10279000293010F02E30C8F32B3241F02D3239F4AD
:1027A000689404C00E941B14820F911D2191205334
:1027B0002A30C0F31EF4909581959F4F08951F9382
:1027C000FC0199278827BC01E89411911032E9F3A4
:1027D000193010F01E30C8F31B3251F01D3249F48D
:1027E000689406C00E940614610F711D811D911D21
:1027F000119110531A30B0F33EF490958095709576
:1028000061957F4F8F4F9F4F1F910895592F482FEC
:10281000372F262F660F771F881F991F660F771F88
:10282000881F991F620F731F841F951F660F771FE4
:10283000881F991F08957AE0979F902D879F802D7C
:10284000910D1124089511E0CDE5D1E000E006C01E
:10285000802FFE010E9430102196011DCE35D10738
:0A28600080E00807A9F7F894FFCF05
:10286A0000001404800000000000F4027002BD029F
:10287A009B02AF023B0300000000AA017002FE01A6
:10288A0016029101A90154005A00480054656D705E
:10289A0052656164657200434F32526561646572C4
:1028AA000048756D6964697479526561646572007E
:1028BA005072696E745461736B0049444C45000D43
:1028CA000A006E616E00696E66006F7666002E0001
:00000001FF
