:100000001FC100004DC100004BC1000049C10000EC
:1000100047C1000045C1000043C1000041C10000CC
:100020003FC100000C94A7100C94A7100C94A710CB
:1000300037C1000035C1000033C1000031C10000EC
:100040002FC100002DC100002BC1000029C10000FC
:1000500027C100000C94B50F23C100005DC600004D
:100060001FC1000095C30000C9C3000019C10000F2
:1000700017C1000015C1000013C1000011C100002C
:100080000FC100000DC100000BC1000009C100003C
:1000900007C1000005C1000003C1000001C100004C
:1000A000FFC00000FDC00000FBC00000F9C0000060
:1000B000F7C00000F5C00000F3C00000F1C0000070
:1000C000EFC00000EDC00000EBC00000E9C0000080
:1000D000E7C00000E5C00000E3C00000E1C0000090
:1000E000DFC00000F312F612E512E912EF122D1331
:1000F000FA12FE12041308130C13121316131A1318
:100100002D132013241328132000434F323A2000CC
:10011000200054656D703A200000000A0B02090CA3
:100120000D0E08070304010000000000000000009D
:1001300000000000000000000000000000000000BF
:10014000000000000012111000000000000000007C
:10015000000000000000000000000000000000019E
:1001600002102020080810204010204080020102C8
:100170000108040201010204081020408080402090
:1001800010080402018004020180402010080402CB
:100190000108040201010204081020408001020449
:1001A0000810204080050505050705080808080215
:1001B0000202020A0A080804040404010101010100
:1001C0000101010303030303030303040707070CEF
:1001D0000C0C0C0C0C0C0C020202020606060606A5
:1001E0000606060B0B0B0B0B0B0B0B000020002362
:1001F00000260029002C002F00320000010000031F
:10020000010601090100002200250028002B002E14
:10021000003100340002010000050108010B01005B
:10022000002100240027002A002D003000330001A7
:10023000010000040107010A0100460230045302D4
:1002400011241FBECFEFD1E2DEBFCDBF00E00CBF57
:1002500012E0A0E0B2E0E4EAFFE200E00BBF02C07F
:1002600007900D92A03BB107D9F724E0A0EBB2E0D4
:1002700001C01D92AD34B207E1F712E0CEE3D2E047
:1002800000E006C022970109FE010BBF0E94F31394
:10029000CA33D10780E00807A9F734D50C94C117F9
:1002A000AFCE0E946E0A8091C302813041F48091EA
:1002B000C802813021F48091BE02813019F00E9481
:1002C0002D0BEFCF62E171E082E093E04AD34091E1
:1002D000C4025091C5026091C6027091C70222E02B
:1002E00030E082E093E0FCD460E171E082E093E0F2
:1002F00038D36AE071E082E093E033D34091BF02EB
:100300005091C0026091C1027091C2022AE030E0B7
:1003100082E093E0F3D368E071E082E093E021D3E0
:1003200066E072E082E093E03FD34091BA025091E0
:10033000BB026091BC027091BD0222E030E082E01D
:1003400093E0CFD41092C8021092C3021092BE0262
:10035000B6CFC1E00E946E0A8091BE0281110EC02C
:1003600089EC92E00E94CF126093BA027093BB02B4
:100370008093BC029093BD02C093BE020E942D0BDD
:10038000E9CFC1E00E946E0A8091C30281110EC0C4
:1003900089EC92E00E94D8126093BF027093C00271
:1003A0008093C1029093C202C093C3020E942D0B9E
:1003B000E9CFC1E00E946E0A8091C80281110EC08F
:1003C00089EC92E00E94BE126093C4027093C50251
:1003D0008093C6029093C702C093C8020E942D0B5F
:1003E000E9CF40E855E260E070E083EE92E00E94E1
:1003F000A71126E040E855E260E070E082E093E07B
:1004000065D181E0B1D69093B1028093B002892B7F
:1004100009F4FFCFA12CB12CC12CD12C88EBE82EF4
:1004200082E0F82E01E020E030E04EE551E06CE0A3
:1004300072E089ED91E00DD796EBE92E92E0F92E6E
:1004400020E030E044EF51E067E172E081EC91E0C0
:1004500000D724EBE22E22E0F22E20E030E048EC40
:1004600050E061E272E089EA91E0F3D632EBE32EEC
:1004700032E0F32E20E030E040E951E060E372E04A
:1004800081E591E0E6D6E7D7C4CF089520E04AE0C1
:100490006BE083EE92E00E94791163EE72E089ECEA
:1004A00092E00C945E1283EE92E00C942511FC0114
:1004B000818D228D90E0805C9F4F821B91098F730C
:1004C00099270895FC01918D828D981731F0828DC6
:1004D000E80FF11D858D90E008958FEF9FEF08954F
:1004E000FC01918D828D981761F0828DDF01A80F3C
:1004F000B11D5D968C91928D9F5F9F73928F90E05E
:1005000008958FEF9FEF089587E294E0892B39F0EB
:1005100080E090E0892B19F09AD1811125C080E00C
:1005200090E0892B41F080E090E0892B21F00E943F
:10053000000081111CC080E090E0892B41F080E038
:1005400090E0892B21F00E940000811113C080E00F
:1005500090E0892BA1F080E090E0892B81F00E944F
:10056000000081110AC008950E940000D8CF0E94A7
:100570000000E1CF0E940000EACF0C940000089533
:10058000FC01848DDF01A80FB11DA35ABF4F2C9130
:10059000848D90E001968F739927848FA689B789FF
:1005A0002C93A089B1898C9180648C93938D848DD8
:1005B000981306C00288F389E02D80818F7D8083A7
:1005C0000895CF93DF93EC01888D8823C1F0EA89E9
:1005D000FB89808185FD05C0A889B9898C9186FD3C
:1005E0000EC00FB607FCF5CF808185FFF2CFA8893A
:1005F000B9898C9185FFEDCFCE01C2DFE8CFDF91C5
:10060000CF910895CF92DF92FF920F931F93CF93D4
:10061000DF931F92CDB7DEB76C0181E0D60158960B
:100620008C9358975B969C915B975C968C915C97AA
:10063000981307C05096ED91FC915197808185FDEC
:100640002DC0F601038D10E00F5F1F4F0F731127B0
:10065000F02EF601848DF81210C00FB607FCF9CF0A
:10066000D6015096ED91FC915197808185FFF1CF95
:10067000C601698385DF6981ECCF838DE80FF11DA9
:10068000E35AFF4F6083D6015B960C935B975296BB
:10069000ED91FC915397808180620CC0D6015696F3
:1006A000ED91FC91579760835096ED91FC91519795
:1006B00080818064808381E090E00F90DF91CF9112
:1006C0001F910F91FF90DF90CF900895BF92CF922E
:1006D000DF92EF92FF92CF93DF93EC016A017B01EF
:1006E000B22EE889F98982E08083411581EE5807AE
:1006F00061057105A1F060E079E08DE390E0A7016C
:1007000096010E94AF1321503109410951095695B4
:10071000479537952795211580E1380798F0E889A6
:10072000F989108260E874E88EE190E0A7019601F3
:100730000E94AF132150310941095109569547953F
:1007400037952795EC85FD853083EE85FF852083E1
:10075000188EEC89FD89B082EA89FB8980818061ED
:100760008083EA89FB89808188608083EA89FB89AC
:10077000808180688083EA89FB8980818F7D808386
:10078000DF91CF91FF90EF90DF90CF90BF900895D1
:100790001F920F920FB60F9211240BB60F922F9348
:1007A0008F939F93EF93FF93E0911203F0911303C4
:1007B0008081E0911803F091190382FD12C09081AD
:1007C00080911B038F5F8F7320911C03821751F060
:1007D000E0911B03F0E0EE5FFC4F958F80931B03CD
:1007E00001C08081FF91EF919F918F912F910F9088
:1007F0000BBE0F900FBE0F901F9018951F920F9277
:100800000FB60F9211240BB60F922F933F934F9375
:100810005F936F937F938F939F93AF93BF93EF9368
:10082000FF9382E093E0ACDEFF91EF91BF91AF9137
:100830009F918F917F916F915F914F913F912F91F8
:100840000F900BBE0F900FBE0F901F90189582E077
:1008500093E02DDE21E0892B09F420E0822F08951A
:10086000109205031092040388EE93E0A0E0B0E03C
:100870008093060390930703A0930803B0930903A2
:100880008EE392E0909303038093020385EC90E063
:1008900090930F0380930E0384EC90E090931103E8
:1008A0008093100380EC90E09093130380931203E5
:1008B00081EC90E0909315038093140382EC90E018
:1008C000909317038093160386EC90E0909319039E
:1008D0008093180310921B0310921C0310921D03A7
:1008E00010921E030895CF92DF92EF92FF920F9322
:1008F0001F93CF93DF937C016A01EB0100E010E0CE
:100900000C151D0571F06991D701ED91FC910190D5
:10091000F081E02DC7011995892B19F00F5F1F4F4A
:10092000EFCFC801DF91CF911F910F91FF90EF9012
:10093000DF90CF9008956115710581F0DB010D9076
:100940000020E9F7AD0141505109461B570BDC016E
:10095000ED91FC910280F381E02D199480E090E00C
:100960000895EF92FF920F931F93CF93DF938C0123
:100970007B01C0E0D0E0F701EC0FFD1F649166231E
:1009800059F0F801A081B181ED91FC91C801199550
:10099000892B11F02196EFCFCE01DF91CF911F91DE
:1009A0000F91FF90EF900895C6CFDC01ED91FC917F
:1009B0000190F081E02D19946AE472E0BCCF8F922F
:1009C0009F92AF92BF92CF92DF92EF92FF920F93DE
:1009D0001F93CF93DF93CDB7DEB7A1970FB6F894EF
:1009E000DEBF0FBECDBF7C01C42EE52FCB01D22EC2
:1009F00019A221E02D1510F02AE0D22E8E010F5DF4
:100A00001F4F8D2C912CA12CB12C6C2D7E2FA5016C
:100A100094010E94AF138C2DD29E80191124015095
:100A200011098A3014F4805D01C0895CF80180836B
:100A3000211531054105510521F0C22EE32FCA01D0
:100A4000E4CFB801C70177DFA1960FB6F894DEBFF7
:100A50000FBECDBFDF91CF911F910F91FF90EF900F
:100A6000DF90CF90BF90AF909F908F900895CF92DE
:100A7000DF92EF92FF920F931F93CF93DF93EC01DE
:100A80006A017B012115310579F4E881F981019032
:100A9000F081E02D642FDF91CF911F910F91FF9096
:100AA000EF90DF90CF9019942A303105D9F477FF79
:100AB00018C06DE27ADF8C0144275527BA014C1922
:100AC0005D096E097F092AE0CE0179DF800F911F51
:100AD000DF91CF911F910F91FF90EF90DF90CF901A
:100AE00008952AE0B701A601CE01DF91CF911F91B1
:100AF0000F91FF90EF90DF90CF9061CF21153105DE
:100B000041F4DC01ED91FC910190F081E02D642F26
:100B1000199455CF4F925F926F927F928F929F92CE
:100B2000AF92BF92CF92DF92EF92FF920F931F93FB
:100B3000CF93DF93EC016A017B01B22E9A01AB01E6
:100B4000C701B6010E942616882319F06DE472E0F1
:100B500027C026013701E89477F82FEF3FEF4FE7E2
:100B60005FE7C301B2010E94261681110DC02FEF6D
:100B70003FEF4FE75FE7C301B2010E947014181600
:100B80001CF461E572E00CC02FEF3FEF4FE75FE42C
:100B9000C701B6010E94BF151816A4F465E572E0FE
:100BA000CE01DF91CF911F910F91FF90EF90DF90D9
:100BB000CF90BF90AF909F908F907F906F905F90FD
:100BC0004F90B9CE2FEF3FEF4FE75FECC701B60173
:100BD0000E94701487FDE2CF20E030E0A901C70138
:100BE000B6010E94701487FF09C06DE2CE01DDDE00
:100BF0008C01F7FAF094F7F8F09402C000E010E0EE
:100C0000A12C60E070E080E09FE3AB1441F020E0B5
:100C100030E040E251E40E947414A394F6CF9B01AB
:100C2000AC01C701B6010E940C146B017C010E944B
:100C3000E1142B013C010E940D159B01AC01C70181
:100C4000B6010E940B146B017C012AE0B301A201E2
:100C5000CE01B5DE080F191FBB2031F069E572E047
:100C6000CE0169DE080F191F7B2C772039F120E0B7
:100C700030E040E251E4C701B6010E94C3156B01A8
:100C80007C010E94DC144B01AA2497FCA094BA2C8E
:100C90002AE030E0B501A401CE01E9DE080F191FFA
:100CA000C501B4010E940F159B01AC01C701B6013B
:100CB0000E940B146B017C017A94D7CFC801DF919D
:100CC000CF911F910F91FF90EF90DF90CF90BF9049
:100CD000AF909F908F907F906F905F904F9008950E
:100CE00019CF0F931F93CF93DF93EC0113DF8C0188
:100CF000CE0162DE800F911FDF91CF911F910F9186
:100D0000089508959BD0FDDF6CDBC4E8D2E0BDDB25
:100D10002097E9F3F9DBFBCF1F920F920FB60F92EA
:100D200011242F933F938F939F93AF93BF93809101
:100D3000A0039091A103A091A203B091A3033091CD
:100D40009F0323E0230F2D3720F40196A11DB11D31
:100D500005C026E8230F0296A11DB11D20939F0315
:100D60008093A0039093A103A093A203B093A30345
:100D70008091A4039091A503A091A603B091A7032D
:100D80000196A11DB11D8093A4039093A503A09388
:100D9000A603B093A703BF91AF919F918F913F910D
:100DA0002F910F900FBE0F901F9018953FB7F8949A
:100DB0008091A4039091A503A091A603B091A703ED
:100DC00026B5A89B05C02F3F19F00196A11DB11DA6
:100DD0003FBF6627782F892F9A2F620F711D811DC3
:100DE000911D42E0660F771F881F991F4A95D1F722
:100DF0000895CF92DF92EF92FF92CF93DF936B0132
:100E00007C01D4DFEB01C114D104E104F10479F0D9
:100E100077D0CCDF6C1B7D0B683E7340A0F381E084
:100E2000C81AD108E108F108C851DC4FECCFDF91B6
:100E3000CF91FF90EF90DF90CF900895789484B594
:100E4000826084BD84B5816084BD85B5826085BDC6
:100E500085B5816085BDEEE6F0E0808181608083AC
:100E6000E1E8F0E01082808182608083808181608F
:100E70008083E0E8F0E0808181608083E1EBF0E056
:100E8000808184608083E0EBF0E0808181608083FA
:100E9000E1E9F0E0808182608083808181608083ED
:100EA000E0E9F0E0808181608083E1EAF0E0808128
:100EB00082608083808181608083E0EAF0E08081CD
:100EC00081608083E1E2F1E08081826080838081C3
:100ED00081608083E0E2F1E0808181608083EAE7E5
:100EE000F0E0808184608083808182608083808163
:100EF000816080838081806880831092C100089522
:100F000008951F93CF93DF93EC01142F4C8D411163
:100F10000BC088819981892B09F040C08A819B810F
:100F200069D51B821A823BC050E0111115C08C811B
:100F30009D810E9494172C8D8C819D81820F911D23
:100F40009D838C832A813B818217930738F18881A6
:100F500099819D838C8322C08E819F810E949417EA
:100F60002C8D30E03195219531098E819F81820F42
:100F7000931F9F838E83688179818617970730F44A
:100F80008A819B81820F931F9F838E83123031F45D
:100F90008A8D882319F08A8D81508A8F80E09A8DFE
:100FA0009F5F9A8FDF91CF911F9108950F931F93A9
:100FB000CF93DF93EC010FB6F8940F928C010F5E84
:100FC0001F4F8E8D18165CF48989882341F0C80163
:100FD00082D481110BD58E8D81508E8FF2CF8FEF01
:100FE0008E8F0F900FBE0FB6F8940F928E01085F90
:100FF0001F4F8D8D18165CF48885882341F0C80139
:101000006AD48111F3D48D8D81508D8FF2CF8FEF03
:101010008D8F0F900FBEDF91CF911F910F9108958B
:10102000BF92CF92DF92EF92FF920F931F93CF93D5
:10103000DF9300D01F921F92CDB7DEB78C017B01EA
:101040005D834C83B22E009709F453D5E114F1046B
:1010500021F4F801848D811174C0F2E0BF1205C043
:10106000F801838D813009F06EC020E06801F8E05E
:10107000CF0ED11C0FB6F8940F92F801928D838D8C
:10108000981718F0F2E0BF1215C04B2DB701C80138
:1010900038DFF8019189992339F0C80141961BD4B2
:1010A000813021F4A0D602C08111FCCF0F900FBE79
:1010B00081E04BC08C819D81892B19F40F900FBE6C
:1010C0003EC0211103C0CE01019645D40F900FBE42
:1010D00005D20FB6F8940F92F801858D8F3F09F471
:1010E000158EF801868D8F3F09F4168E0F900FBE76
:1010F000BE016C5F7F4FCE0101963FD481111CC0B1
:101100000FB6F8940F92F801928D0F900FBEF80170
:10111000838D98130DC06C817D81C601BAD3C8013F
:1011200045DF9BD2882311F021E0A4CF5CD6FCCF11
:10113000C8013CDF92D2F8CFC80138DF8ED280E000
:1011400004C0D7D48ACFD5D490CF0F900F900F90F2
:101150000F900F90DF91CF911F910F91FF90EF9023
:10116000DF90CF90BF900895CF93DF938FE190E011
:10117000CCD4EC010097E1F01B821A82198218820C
:101180001D821C821F821E821A8E81E08B8F1C8E14
:101190008FEF8D8F8E8FCE010896EDD4CE014196C4
:1011A000EAD420E040E050E060E070E0CE0138DFBB
:1011B000CE01DF91CF910895E091CB03F091CC0364
:1011C0008081811103C08FEF9FEF0CC0E091CB03B2
:1011D000F091CC030580F681E02D0680F781E02DAB
:1011E000828193819093AA038093A9030895CF935A
:1011F000DF93EC01E0910304F09104049383828374
:101200008091B1039091B203609103047091040442
:10121000C817D90748F48091C9039091CA036E5F3B
:101220007F4FDF91CF91DAC48091CB039091CC03B3
:101230006E5F7F4FD3D48091A9039091AA03C81702
:10124000D90720F4D093AA03C093A903DF91CF91CB
:1012500008953F924F925F926F927F928F929F92EA
:10126000AF92BF92CF92DF92EF92FF920F931F93B4
:10127000CF93DF934C01162F372E5A013901009777
:1012800009F437D4802F90E004970CF032D4C114C5
:10129000D10431F4C50139D46C01009709F4C8C0F8
:1012A00089E290E032D4EC010097A1F0D88ECF8A89
:1012B000A50165EA70E0C6010E949D1721E0A21A0F
:1012C000B1084F88588C4A0C5B1CE12FF32D80E04D
:1012D00090E007C0C60136D4ABC0019688309105B6
:1012E00061F0BF0141919E01280F391FD901599624
:1012F0004C93DB012C912111F0CF18A2102F043058
:1013000008F013E01E8B19A31AA26E01B2E0CB0EF7
:10131000D11CC6013ED4CE010C963BD4D987C887D8
:1013200084E090E0811B91099D878C87DB8BCA8BC1
:101330001BA21CA21DA21EA218A61FA2A301B401DB
:10134000C201A7D499838883E114F10419F0F7014D
:10135000D183C0830FB6F8940F928091B3038F5F4F
:101360008093B3038091030490910404892B69F561
:10137000D0930404C09303048091B3038130A1F59A
:101380008FED93E0F8D388EE93E0F5D381EF93E00F
:10139000F2D38AEF93E0EFD386ED93E0ECD38DECBC
:1013A00093E0E9D380EC93E0E6D387EB93E0E3D3DB
:1013B00086ED93E09093CC038093CB038DEC93E088
:1013C0009093CA038093C9030FC08091AF0381112A
:1013D0000BC0E0910304F09104048689081720F003
:1013E000D0930404C09303048091AB038F5F809378
:1013F000AB038E899091B003981710F48093B003DB
:10140000F9E08F9FC0011124B60181529C4FC5D3D2
:101410000F900FBE8091AF03882341F0E091030449
:10142000F09104048689801708F4DDD481E001C0BE
:101430008FEFDF91CF911F910F91FF90EF90DF9091
:10144000CF90BF90AF909F908F907F906F905F9064
:101450004F903F900895AF92BF92CF92DF92EF925C
:10146000FF920F93A12CB12CC12CD12C84EBE82E30
:1014700083E0F82E00E020E030E044E650E06BE549
:1014800072E08DE99BE0E5DE8130B1F4F8948FEFF6
:101490009FEF9093AA038093A90381E08093AF0309
:1014A0001092B2031092B1030F91FF90EF90DF9072
:1014B000CF90BF90AF905FC4811108C00F91FF9093
:1014C000EF90DF90CF90BF90AF9013C30F91FF903C
:1014D000EF90DF90CF90BF90AF9008958091A803D8
:1014E0008F5F8093A8030895CF92DF92EF92FF92CF
:1014F0000F931F93CF93DF938091A803811196C020
:101500008091B1039091B20301969093B2038093BE
:10151000B1030091B1031091B20301151105E9F473
:10152000E091CB03F091CC0380818111E2D28091D4
:10153000CB039091CC032091C9033091CA0330931F
:10154000CC032093CB039093CA038093C90380916B
:10155000AC038F5F8093AC032FDE8091A903909141
:10156000AA03D12C0817190708F44AC099E0C92E1C
:10157000E091CB03F091CC038081811107C08FEF04
:101580009FEF9093AA038093A9033AC0E091CB0305
:10159000F091CC030580F681E02DC681D7812A81A8
:1015A0003B810217130728F43093AA032093A90361
:1015B00027C07E0182E0E80EF11CC70147D38C8969
:1015C0009D89892B19F0CE010C9640D32E898091EC
:1015D000B003821710F42093B003C29EC0011124FF
:1015E000B70181529C4FD9D2E0910304F0910404D9
:1015F0009E898689981708F4BBCFDD24D394B8CF91
:10160000E0910304F0910404E68989E0E89FF00189
:101610001124E152FC4F8081823010F0DD24D394FC
:101620008091AE03811109C06FD207C08091AE03D3
:101630008F5F8093AE0368D2D12C8091AD03882355
:1016400011F0DD24D3948D2DDF91CF911F910F9157
:10165000FF90EF90DF90CF900895EF92FF920F935D
:101660001F93CF93DF938091A803811101C041D2D2
:101670000FB6F8940F928091A80381508093A8032D
:101680008091A803882311F080E04EC08091B303BD
:101690008823D1F329E0F22EEE24E3948091C00355
:1016A000882339F1E091C503F091C603C681D78143
:1016B000CE010C96CBD28E010E5F1F4FC801C6D251
:1016C0008E899091B003981710F48093B003F89E20
:1016D000C0011124B80181529C4F5FD2E0910304F4
:1016E000F09104049E8986899817C0F2E092AD03B8
:1016F000D5CF8091AE03811108C08091AD038130B8
:1017000009F0C2CF70D381E00FC0C1E08091AE0379
:10171000882399F3E9DE8111C093AD038091AE0374
:1017200081508093AE03F2CF0F900FBEDF91CF9127
:101730001F910F91FF90EF9008958091B603882339
:1017400021F1CCDEC091B70388DFCC23B1F30FB613
:10175000F8940F92E091BC03F091BD03C681D7814C
:10176000CE01029673D28091B30381508093B3036C
:101770008091B60381508093B6030F900FBE8F897E
:10178000988DE0D1CE01DED1D8CF8091DF038230B9
:1017900008F029D3B7D1D1CFCF938091A803882364
:1017A00021F081E08093AD0372C01092AD03E0910F
:1017B0000304F09104040788F08DE02D808191816D
:1017C000A281B381853A954AA54AB54AD9F4848164
:1017D0009581A681B781853A954AA54AB54A91F483
:1017E00080859185A285B385853A954AA54AB54AF3
:1017F00049F484859585A685B785853A954AA54A95
:10180000B54A59F060910304709104048091030477
:1018100090910404675E7F4F72D1C9E0E091B003FC
:10182000CE9FF0011124E152FC4F808181110BC049
:101830008091B003811101C05CD18091B0038150CF
:101840008093B003EBCFE091B00389E0E89FF00113
:101850001124E152FC4FA181B28112960D90BC91EE
:10186000A02DB283A183CF010396A817B90731F445
:1018700012968D919C911397928381830180F281BE
:10188000E02D868197819093040480930304CF9187
:1018900008950F931F93CF93DF93EC018B01009773
:1018A00009F427D16091030470910404645F7F4FB1
:1018B000CE0194D180910304909104040296C6D184
:1018C0008091B1039091B203800F911FDF91CF916E
:1018D0001F910F918CCC0F931F93CF93DF93DC015B
:1018E0001596ED91FC911697C681D781209709F442
:1018F00000D18E01045F1F4FC801A8D18091A803B9
:10190000811113C00A501109C801A0D18E8990918C
:10191000B003981710F48093B003B9E08B9FC00117
:101920001124B80181529C4F03C0B80180EC93E0B0
:1019300034D1E0910304F09104049E8986898917CB
:1019400020F481E08093AD0301C080E0DF91CF916E
:101950001F910F910895CF93DF93EC01009709F445
:10196000C8D08091AC0388838091B1039091B20379
:101970009A838983DF91CF9108950F931F93CF931B
:10198000DF93EC018B01009709F4B3D00115110529
:1019900009F4AFD00FB6F8940F922091B1033091B3
:1019A000B2035091AC03488189819A81541719F090
:1019B0002817390798F4F80140815181B901681B53
:1019C000790B6417750750F4821B930B840F951FD6
:1019D00091838083CE01BFDF80E001C081E00F9062
:1019E0000FBEDF91CF911F910F91089581E08093F9
:1019F000AD0308950F931F93CF93DF93EC010097EE
:101A000011F480E035C08091030490910404C8175C
:101A1000D90709F06ED08AA1811101C06AD08AA1CC
:101A200081508AA32E8999A1291759F38111E9CFF1
:101A30008E010E5F1F4FC80109D189A18E8B482FDF
:101A400050E024E030E0241B350B3D872C8790913B
:101A5000B003981710F48093B00329E0249FC001CD
:101A6000259F900D1124B80181529C4F96D081E0A2
:101A7000DF91CF911F910F910895EC01F89461E0EF
:101A80008DE0ECD500E010E00C171D071CF561E0BF
:101A90008DE01DD680E899EAA3E0B0E00000019750
:101AA000A109B1090097A105B105C1F760E08DE07A
:101AB0000ED640E859EA63E070E000004150510959
:101AC000610971094115510561057105B1F70F5F94
:101AD0001F4FDACF40E05AE668E170E00000415065
:101AE0005109610971094115510561057105B1F788
:101AF000C9CF81E090E0C1DF82E090E0BEDF83E00B
:101B000090E0BBDF0C94450208950F931F93CF9391
:101B1000DF931F921F92CDB7DEB789839A83DEDCF5
:101B200089819A810E942A168C0197DD0115110581
:101B300009F4E2DFC8010F900F90DF91CF911F9160
:101B40000F910895CF93DF931F921F92CDB7DEB709
:101B5000009761F089839A83C1DC89819A810E9410
:101B6000C2160F900F90DF91CF9177CD0F900F900D
:101B7000DF91CF910895FC010396928381832FEF2B
:101B80003FEF3483238396838583908787831082F6
:101B90000895FC01118610860895CF93DF939C0170
:101BA000FB01DC011196CD91DC911297D383C283A6
:101BB0008C819D81958384838C819D81DC0113962A
:101BC0007C936E9312977D836C8331872087F90114
:101BD00080818F5F8083DF91CF9108950F931F9352
:101BE000CF93DF938C01FB01208131812F3F8FEF59
:101BF000380721F4E801AF81B8850EC0D8011396EB
:101C000012968D919C911397EC014881598124176C
:101C1000350710F0DC01F4CF12968D919C9113974B
:101C200093838283EC01FD83EC83B583A4831396B5
:101C3000FC93EE93129711870087F80180818F5FE4
:101C40008083DF91CF911F910F910895CF93DF9300
:101C5000FC01A085B1858281938124813581EC01CD
:101C60003D832C83C481D5819B838A8311968D917A
:101C70009C9112978E179F0721F41296DC93CE93B6
:101C80001197118610868C9181508C93DF91CF91A2
:101C9000089531E1FC013083319722E220833197AE
:101CA000A3E3A083319760833197708331971082CB
:101CB00031971082319760E86083319710823197B5
:101CC000108231971082319762E06083319763E030
:101CD0006083319764E06083319765E0608331977A
:101CE00066E06083319767E06083319768E06083E6
:101CF000319769E06083319760E160833197308389
:101D0000319732E13083319733E13083319734E1D9
:101D10003083319735E13083319736E13083319725
:101D200037E13083319738E13083319739E13083BF
:101D3000319730E23083319731E23083319720831D
:101D4000319723E220833197408331975083319735
:101D500026E22083319727E22083319728E22083EF
:101D6000319729E22083319720E32083319721E3C3
:101D700020838997089581E087BDEEE6F0E08081B9
:101D800082608083A0910304B0910404CD91CDBF03
:101D9000DD91DEBFFF91EF91DF91CF91BF91AF91C8
:101DA0009F918F917F916F915F914F913F912F9173
:101DB0001F910F91FF90EF90DF90CF90BF90AF9069
:101DC0009F908F907F906F905F904F903F902F905B
:101DD0001F900F900CBE0F900BBE0F900FBE0F9078
:101DE000089581E008950F920FB6F8940F920BB604
:101DF0000F920CB60F921F9211242F923F924F9286
:101E00005F926F927F928F929F92AF92BF92CF928A
:101E1000DF92EF92FF920F931F932F933F934F9375
:101E20005F936F937F938F939F93AF93BF93CF9362
:101E3000DF93EF93FF93A0910304B09104040DB6D8
:101E40000D920EB60D92A8DCA0910304B09104048B
:101E5000CD91CDBFDD91DEBFFF91EF91DF91CF91AD
:101E6000BF91AF919F918F917F916F915F914F91B2
:101E70003F912F911F910F91FF90EF90DF90CF90A6
:101E8000BF90AF909F908F907F906F905F904F909A
:101E90003F902F901F900F900CBE0F900BBE0F9095
:101EA0000FBE0F9008950F920FB6F8940F920BB6D5
:101EB0000F920CB60F921F9211242F923F924F92C5
:101EC0005F926F927F928F929F92AF92BF92CF92CA
:101ED000DF92EF92FF920F931F932F933F934F93B5
:101EE0005F936F937F938F939F93AF93BF93CF93A2
:101EF000DF93EF93FF93A0910304B09104040DB618
:101F00000D920EB60D92F0DA811146DCA091030419
:101F1000B0910404CD91CDBFDD91DEBFFF91EF9173
:101F2000DF91CF91BF91AF919F918F917F916F91F1
:101F30005F914F913F912F911F910F91FF90EF90E3
:101F4000DF90CF90BF90AF909F908F907F906F90D9
:101F50005F904F903F902F901F900F900CBE0F906E
:101F60000BBE0F900FBE0F9008959DDF1895209126
:101F700047043091480428173907B9F490910504B3
:101F800080910604981789F0E0910504F0E0E95F7C
:101F9000FB4F80812091050430E02F5F3F4F2F736E
:101FA00033272093050490E008958FEF9FEF089565
:101FB0001F93CF93DF93DC015C968D919C915D978D
:101FC000009749F481E090E013969C938E931297CA
:101FD00080E090E03BC05196ED91FC915297509675
:101FE0002C915097322F30951FB75E964C915E978B
:101FF00041FB772770F941FD6095F8944081772384
:1020000011F0422B01C043234083EC012197F1F7EB
:1020100048E0508160FF02C0522B01C0532350831F
:10202000EC012197F1F76695415099F7808177236C
:1020300011F0832301C0822B80831FBF5C968D919A
:102040009C915D970197F1F781E090E0DF91CF914E
:102050001F910895209147043091480428173907AB
:1020600081F49091050480910604981751F0E09155
:102070000504F0E0E95FFB4F8081992787FD90958B
:1020800008958FEF9FEF0895209147043091480401
:102090002817390761F4809106042091050490E027
:1020A000805C9F4F821B910960E470E045C380E033
:1020B00090E008952091470430914804281739078B
:1020C00039F48FB7F89410920604109205048FBF6C
:1020D0000895E0914704F0914804E817F90769F47E
:1020E000A389B4899C918589809589238C931092CA
:1020F00048041092470481E0089580E00895CF934A
:10210000DF93EC018A8D9B8D892BE9F08091470448
:10211000909148048C179D07B1F0009709F0D9DF22
:102120008E8D8E7F8E8F1092060410920504D093B0
:102130004804C0934704EB89FC8980819D89892BE1
:10214000808381E001C080E0DF91CF9108951F92EC
:102150000F920FB60F9211240BB60F922F933F934D
:102160004F935F936F937F938F939F93AF93BF939F
:10217000EF93FF93E0914704F0914804309709F4FE
:1021800051C0868DA685B785958581FF04C08C9149
:10219000892329F447C08C91892309F043C0A3897E
:1021A000B4899C918589809589238C9386899789A8
:1021B0000197F1F7208D318DA685B785758558E09B
:1021C00040E0C9010197F1F7842F90E0959587953C
:1021D000482F6C91672309F04068515091F7868D24
:1021E00081FD40958091060490E001968F739927B8
:1021F00020910504281749F0A0910604B0E0A95FDA
:10220000BB4F4C938093060403C0868D8160868FFC
:10221000828D938D0197F1F7A389B4898C9195896B
:10222000892B8C93FF91EF91BF91AF919F918F91EB
:102230007F916F915F914F913F912F910F900BBEC6
:102240000F900FBE0F901F90189524E632E0FC010E
:10225000318320833ECF1F93CF93DF93EC01162F62
:102260006E8D6695617081E06827812F30D261E0C4
:10227000812FF4D1812F90E0FC01E15AFE4FE491CF
:10228000E88BFC01EB55FE4FE491F0E0EE0FFF1FF1
:10229000EB5FFD4F859194919A8B898BDF91CF9164
:1022A0001F9108951F93CF93DF93EC01162F60E0E9
:1022B000812FD4D18E8D81FD03C061E0812F07D2A3
:1022C0001C87812F90E0FC01E15AFE4FE491ED87DD
:1022D000FC01EB55FE4FE491F0E0EE0FFF1FE551DE
:1022E000FE4F859194919F878E87DF91CF911F91AB
:1022F0000895FF920F931F93CF93DF93EC01F62E77
:10230000522F1B821A8208EE13E020E030E00C838B
:102310001D832E833F8384E692E0998388831F8AFE
:102320001E8A198E188E1B8E1A8E1D8E1C8E8E8DF7
:102330008E7F50FB81F98E8F642FCE018CDF6F2D45
:10234000CE01DF91CF911F910F91FF90ABCF0F93F3
:102350001F93CF93DF93EC019A01AB011B8E1A8E72
:10236000198E188E1F8A1E8A60E079E08DE390E056
:1023700018D2C9012430310520F0B9016350710928
:1023800002C061E070E07D8F6C8F1C8506EF010F4D
:10239000043048F06EEC610F643028F062EC610F9D
:1023A000683008F07DC0B901769567956431710594
:1023B00018F06351710902C061E070E07F8B6E8B91
:1023C000069718F0C901059702C081E090E0998F47
:1023D000888FC901880F991F820F931F9695879543
:1023E000969587958D30910510F00C9702C081E08D
:1023F00090E09B8F8A8F043060F08EEC810F8430E8
:1024000040F082EC810F883008F050C0A8E6B0E0C0
:102410004FC0A8E6B0E0E8E6F0E09081043028F094
:102420001E53183010F484E001C081E0892B8C9396
:102430002C8536EF320F343058F08EEC820F84301A
:1024400038F082EC820F883030F48DE690E005C0E1
:102450008BE690E002C080E090E09C8B8B8B343068
:1024600010F426500BC0223379F0233379F0243353
:1024700079F082EC820F883068F4282F81E001C067
:10248000880F2A95EAF707C088E005C084E003C0FA
:1024900082E001C081E08D8B8C8D9D8D0197F1F7DD
:1024A000CE01DF91CF911F910F9129CEA0E0B0E036
:1024B000883008F4B0CFE0E0F0E0AFCFFC017583E6
:1024C00064830895CF93DF93EC018C819D810E94FA
:1024D000D4046AE472E08C819D81DF91CF910C94E9
:1024E000D4040F931F93CF93DF93EC01EBDF1E8295
:1024F00068EC70E080E090E00E94F90600E010E0F7
:102500008C819D81DC01ED91FC910480F581E02DB1
:102510001995892B81F00F5F1F4F8C819D81DC0104
:10252000ED91FC910680F781E02D1995FE01E00FF9
:10253000F11F8583E5CFFE01E00FF11F16828E812A
:10254000843581F4CE010B96ACD4BC01882777FD8D
:102550008095982F2A85213061F468517C4F8F4FE8
:102560009F4F07C0CE010896DF91CF911F910F9129
:10257000B5C4DF91CF911F910F9108956DE872E07E
:10258000B0DF80E090E049D220E030E04AE754E458
:1025900042D12DEC3CEC4CEC5DE3F5C208956FE8C4
:1025A00072E09FDF3AD22DEC3CEC4CEC5DE3EBC2E9
:1025B00063E972E096CF90E0FC013197E231F105DA
:1025C00008F04BC0EE58FF4F08C1809180008F7714
:1025D00003C0809180008F7D80938000089580915A
:1025E0008000877FF9CF84B58F7702C084B58F7D57
:1025F00084BD08958091B0008F7703C08091B000B2
:102600008F7D8093B0000895809190008F7707C0F0
:10261000809190008F7D03C080919000877F809390
:10262000900008958091A0008F7707C08091A0004E
:102630008F7D03C08091A000877F8093A0000895C4
:10264000809120018F7707C0809120018F7D03C08A
:1026500080912001877F809320010895CF93DF939D
:1026600090E0FC01E15AFE4F2491FC01EB55FE4F36
:102670008491882349F190E0880F991FFC01E15E65
:10268000FD4FA591B4918B5F9D4FFC01C591D491F5
:102690009FB7611108C0F8948C91209582238C9388
:1026A000888182230AC0623051F4F8948C91322FD1
:1026B000309583238C938881822B888304C0F8947F
:1026C0008C91822B8C939FBFDF91CF9108950F93B4
:1026D0001F93CF93DF931F92CDB7DEB7282F30E043
:1026E000F901E75EFE4F8491F901E15AFE4F149122
:1026F000F901EB55FE4F04910023C1F0882319F036
:10270000698359DF6981E02FF0E0EE0FFF1FEB5F77
:10271000FD4FA591B4919FB7F8948C91611103C0BE
:102720001095812301C0812B8C939FBF0F90DF9167
:10273000CF911F910F91089597FB072E16F40094E7
:1027400006D077FD08D053D007FC05D03EF4909515
:1027500081959F4F0895709561957F4F0895A1E2EF
:102760001A2EAA1BBB1BFD010DC0AA1FBB1FEE1F0B
:10277000FF1FA217B307E407F50720F0A21BB30B56
:10278000E40BF50B661F771F881F991F1A9469F7D2
:1027900060957095809590959B01AC01BD01CF012E
:1027A0000895052E97FB16F400940FD057FD05D021
:1027B000D6DF07FC02D046F408C05095409530950E
:1027C00021953F4F4F4F5F4F08959095809570959D
:1027D00061957F4F8F4F9F4F0895EE0FFF1F05901C
:1027E000F491E02D19940790F691E02D1994AA1B0D
:1027F000BB1B51E107C0AA1FBB1FA617B70710F0EC
:10280000A61BB70B881F991F5A95A9F7809590951D
:10281000BC01CD0108955058BB27AA270ED075C121
:1028200066D130F06BD120F031F49F3F11F41EF4EB
:102830005BC10EF4E095E7FB51C1E92F77D180F33E
:10284000BA17620773078407950718F071F49EF5AD
:102850008FC10EF4E0950B2EBA2FA02D0B01B901FC
:1028600090010C01CA01A0011124FF27591B99F006
:10287000593F50F4503E68F11A16F040A22F232F12
:10288000342F4427585FF3CF469537952795A79562
:10289000F0405395C9F77EF41F16BA0B620B730B09
:1028A000840BBAF09150A1F0FF0FBB1F661F771F7A
:1028B000881FC2F70EC0BA0F621F731F841F48F42F
:1028C000879577956795B795F7959E3F08F0B3CFB5
:1028D0009395880F08F09927EE0F9795879508959F
:1028E000D9D008F481E008950CD00FC107D140F091
:1028F000FED030F021F45F3F19F0F0C0511139C122
:10290000F3C014D198F39923C9F35523B1F3951B60
:10291000550BBB27AA2762177307840738F09F5F00
:102920005F4F220F331F441FAA1FA9F333D00E2E6F
:102930003AF0E0E830D091505040E695001CCAF7DC
:1029400029D0FE2F27D0660F771F881FBB1F2617A1
:1029500037074807AB07B0E809F0BB0B802DBF0174
:10296000FF2793585F4F2AF09E3F510568F0B6C08D
:1029700000C15F3FECF3983EDCF386957795679551
:10298000B795F7959F5FC9F7880F911D9695879525
:1029900097F90895E1E0660F771F881FBB1F621744
:1029A00073078407BA0720F0621B730B840BBA0B02
:1029B000EE1F88F7E095089504D06894B111D9C04E
:1029C0000895BCD088F09F5790F0B92F9927B75140
:1029D000A0F0D1F0660F771F881F991F1AF0BA95E3
:1029E000C9F712C0B13081F0C3D0B1E00895C0C0C2
:1029F000672F782F8827B85F39F0B93FCCF38695D9
:102A000077956795B395D9F73EF490958095709535
:102A100061957F4F8F4F9F4F0895E89409C097FBB2
:102A20003EF490958095709561957F4F8F4F9F4FA5
:102A30009923A9F0F92F96E9BB279395F6958795E9
:102A400077956795B795F111F8CFFAF4BB0F11F4AC
:102A500060FF1BC06F5F7F4F8F4F9F4F16C0882353
:102A600011F096E911C0772321F09EE8872F762F89
:102A700005C0662371F096E8862F70E060E02AF0CA
:102A80009A95660F771F881FDAF7880F96958795B6
:102A900097F90895990F0008550FAA0BE0E8FEEF8B
:102AA00016161706E807F907C0F012161306E40712
:102AB000F50798F0621B730B840B950B39F40A260B
:102AC00061F0232B242B252B21F408950A2609F4E9
:102AD000A140A6958FEF811D811D089597F99F67ED
:102AE00080E870E060E008959FEF80EC0895002496
:102AF0000A941616170618060906089500240A9463
:102B000012161306140605060895092E0394000CE8
:102B100011F4882352F0BB0F40F4BF2B11F460FF77
:102B200004C06F5F7F4F8F4F9F4F089557FD9058A0
:102B3000440F551F59F05F3F71F04795880F97FB81
:102B4000991F61F09F3F79F087950895121613063B
:102B50001406551FF2CF4695F1DF08C0161617066A
:102B60001806991FF1CF869571056105089408959F
:102B7000E894BB2766277727CB0197F908958ADF6A
:102B800008F48FEF08950BD0C0CFB1DF28F0B6DF87
:102B900018F0952309F0A2CFA7CF1124EACFC6DF02
:102BA000A0F3959FD1F3950F50E0551F629FF00160
:102BB000729FBB27F00DB11D639FAA27F00DB11DB9
:102BC000AA1F649F6627B00DA11D661F829F222742
:102BD000B00DA11D621F739FB00DA11D621F839FC9
:102BE000A00D611D221F749F3327A00D611D231F9F
:102BF000849F600D211D822F762F6A2F11249F57ED
:102C000050408AF0E1F088234AF0EE0FFF1FBB1F0F
:102C1000661F771F881F91505040A9F79E3F5105AE
:102C200070F05CCFA6CF5F3FECF3983EDCF3869567
:102C300077956795B795F795E7959F5FC1F7FE2B59
:102C4000880F911D9695879597F9089523DF880B36
:102C5000990B0895CF93DF938230910510F482E0B1
:102C600090E0E0914B04F0914C0420E030E0A0E0D3
:102C7000B0E0309739F14081518148175907B8F0D9
:102C80004817590771F482819381109729F01396A0
:102C90009C938E9312972CC090934C0480934B047A
:102CA00027C02115310531F04217530718F0A9014B
:102CB000DB0101C0EF019A01BD01DF010280F38158
:102CC000E02DD7CF21153105F9F0281B390B243021
:102CD000310580F48A819B816115710521F0FB012A
:102CE0009383828304C090934C0480934B04FE0131
:102CF000329644C0FE01E20FF31F8193919322505C
:102D00003109398328833AC02091490430914A041B
:102D1000232B41F4209102023091030230934A04A4
:102D200020934904209100023091010221153105C0
:102D300041F42DB73EB74091040250910502241B87
:102D4000350BE0914904F0914A04E217F307A0F42F
:102D50002E1B3F0B2817390778F0AC014E5F5F4FF1
:102D60002417350748F04E0F5F1F50934A044093D5
:102D700049048193919302C0E0E0F0E0CF01DF913C
:102D8000CF910895CF93DF93009709F487C0FC019A
:102D9000329713821282C0914B04D0914C04209739
:102DA00081F420813181280F391F8091490490914D
:102DB0004A048217930779F5F0934A04E093490493
:102DC0006DC0DE0120E030E0AE17BF0750F4129670
:102DD0004D915C9113979D014115510509F1DA015F
:102DE000F3CFB383A28340815181840F951F8A174B
:102DF0009B0771F48D919C911197840F951F0296FA
:102E00009183808312968D919C91139793838283F3
:102E10002115310529F4F0934C04E0934B043EC096
:102E2000D9011396FC93EE9312974D915D91A40FE7
:102E3000B51FEA17FB0779F480819181840F951FF4
:102E40000296D90111969C938E9382819381139659
:102E50009C938E931297E0E0F0E08A819B8100972B
:102E600019F0FE01EC01F9CFCE01029628813981DB
:102E7000820F931F2091490430914A042817390783
:102E800069F4309729F410924C0410924B0402C05C
:102E900013821282D0934A04C0934904DF91CF91E8
:102EA0000895FC0188279927E89421912032E9F3BD
:102EB000293010F02E30C8F32B3239F02D3231F496
:102EC000689403C056D0820F911D219120532A305F
:102ED000C8F31EF4909581959F4F08951F93FC01B0
:102EE00099278827BC01E89411911032E9F3193031
:102EF00010F01E30C8F31B3249F01D3241F46894C3
:102F000005C022D0610F711D811D911D11911053BB
:102F10001A30B8F33EF490958095709561957F4F87
:102F20008F4F9F4F1F910895FB01DC0102C001905C
:102F30000D9241505040D8F70895DC0101C06D93C7
:102F400041505040E0F70895592F482F372F262F32
:102F5000660F771F881F991F660F771F881F991F9D
:102F6000620F731F841F951F660F771F881F991F9D
:102F700008957AE0979F902D879F802D910D1124C1
:102F8000089512E0CEE3D2E000E005C022970109E7
:102F9000FE010BBF28DCC034D10780E00807B1F781
:042FA000F894FFCFD3
:102FA40000004D04200048756D3A200054656D7092
:102FB40052656164657200434F32526561646572A3
:102FC4000048756D6964697479526561646572005D
:102FD4005072696E745461736B0000000000020348
:102FE4007304570270026202E1020D0A006E616E00
:102FF40000696E66006F7666002E0049444C4500F9
:1030040000000000D80F73044410B70F2A105A10A0
:103014004B2025750041202575004D202575005154
:1030240000502025752025750059002A00540048B9
:10303400004C005A00462025752025750047005590
:10304400005820257500730061007020257500006C
:00000001FF
