:1000000018C1000046C1000044C1000042C1000008
:1000100040C100003EC100003CC100003AC10000E8
:1000200038C100000C94CC0D0C94CC0D0C94CC0D6C
:1000300030C100002EC100002CC100002AC1000008
:1000400028C1000026C1000024C1000022C1000018
:1000500020C100000C94DA0C1CC1000037C600005F
:1000600018C100006FC30000A3C3000012C100004C
:1000700010C100000EC100000CC100000AC1000048
:1000800008C1000006C1000004C1000002C1000058
:1000900000C10000FEC00000FCC00000FAC000006B
:1000A000F8C00000F6C00000F4C00000F2C000007C
:1000B000F0C00000EEC00000ECC00000EAC000008C
:1000C000E8C00000E6C00000E4C00000E2C000009C
:1000D000E0C00000DEC00000DCC00000DAC00000AC
:1000E000D8C0000018101B100A100E101410521067
:1000F0001F10231029102D10311037103B103F1006
:100100005210451049104D102C002C0000000A0B15
:1001100002090C0D0E080703040100000000000096
:1001200000000000000000000000000000000000CF
:10013000000000000000000012111000000000008C
:1001400000000000000000000000000000000000AF
:1001500000000102102020080810204010204080DC
:10016000020102010804020101020408102040807B
:100170008040201008040201800402018040201009
:100180000804020108040201010204081020408052
:100190000102040810204080050505050705080830
:1001A0000808020202020A0A080804040404010101
:1001B0000101010101010303030303030303040716
:1001C00007070C0C0C0C0C0C0C0C020202020606AD
:1001D0000606060606060B0B0B0B0B0B0B0B0000A3
:1001E00020002300260029002C002F0032000001EF
:1001F000000003010601090100002200250028007B
:100200002B002E003100340002010000050108011E
:100210000B0100002100240027002A002D003000DF
:10022000330001010000040107010A0120020A0451
:100230002D0211241FBECFEFD1E2DEBFCDBF00E003
:100240000CBF12E0A0E0B2E0ECEDF9E200E00BBF81
:1002500002C007900D92AC3AB107D9F724E0ACEA9E
:10026000B2E001C01D92A035B207E1F712E0C0E391
:10027000D2E000E006C022970109FE010BBF0E94F8
:100280001811CC32D10780E00807A9F715D50C94D6
:10029000DD14B6CE74D78091BD02813041F48091D7
:1002A000C202813021F48091B802813019F00E949D
:1002B0007E09F0CF4091B9025091BA026091BB0221
:1002C0007091BC022AE030E08CEF92E0F1D36AE05A
:1002D00071E08CEF92E01FD34091BE025091BF02BB
:1002E0006091C0027091C10222E030E08CEF92E098
:1002F000D1D468E071E08CEF92E00DD34091B4026C
:100300005091B5026091B6027091B70222E030E0E0
:100310008CEF92E0C0D41092C2021092BD021092F3
:10032000B802C5CFC1E02BD78091B80281110EC0B1
:1003300083EC92E00E94F40F6093B4027093B502D4
:100340008093B6029093B702C093B802D7D7EBCF91
:10035000C1E015D78091BD0281110EC083EC92E0FF
:100360000E94FD0F6093B9027093BA028093BB02A2
:100370009093BC02C093BD02C1D7EBCFC1E0FFD6C2
:100380008091C20281110EC083EC92E00E94E30FC3
:100390006093BE027093BF028093C0029093C1022B
:1003A000C093C202ABD7EBCF40E855E260E070E00B
:1003B0008DED92E00E94CC0E26E040E855E260E030
:1003C00070E08CEF92E05CD1A12CB12CC12CD12C2F
:1003D00082EBE82E82E0F82E01E020E030E04EE5EE
:1003E00051E066E072E08EEB91E080D590EBE92E73
:1003F00092E0F92E20E030E044EF51E061E172E05C
:1004000088EA91E073D52EEAE22E22E0F22E20E077
:1004100030E048EC50E06BE172E082E991E066D5B3
:100420003CEAE32E32E0F32E20E030E040E951E0F8
:100430006AE272E08AE491E059D55ED6FFCF089572
:1004400020E04CE06DE08DED92E00E949E0E6DED9F
:1004500072E083EC92E00C94830F8DED92E00C94AB
:100460004A0EFC01818D228D90E0805C9F4F821BA3
:1004700091098F7399270895FC01918D828D9817AA
:1004800031F0828DE80FF11D858D90E008958FEF9A
:100490009FEF0895FC01918D828D981761F0828DF8
:1004A000DF01A80FB11D5D968C91928D9F5F9F73A8
:1004B000928F90E008958FEF9FEF089581E094E090
:1004C000892B39F080E090E0892B19F09AD18111C5
:1004D00025C080E090E0892B41F080E090E0892BFE
:1004E00021F00E94000081111CC080E090E0892B67
:1004F00041F080E090E0892B21F00E940000811102
:1005000013C080E090E0892BA1F080E090E0892B7F
:1005100081F00E94000081110AC008950E9400002D
:10052000D8CF0E940000E1CF0E940000EACF0C94D7
:1005300000000895FC01848DDF01A80FB11DA35AAE
:10054000BF4F2C91848D90E001968F739927848FF3
:10055000A689B7892C93A089B1898C9180648C93EA
:10056000938D848D981306C00288F389E02D8081D5
:100570008F7D80830895CF93DF93EC01888D88234E
:10058000C1F0EA89FB89808185FD05C0A889B98908
:100590008C9186FD0EC00FB607FCF5CF808185FFDC
:1005A000F2CFA889B9898C9185FFEDCFCE01C2DF4A
:1005B000E8CFDF91CF910895CF92DF92FF920F9312
:1005C0001F93CF93DF931F92CDB7DEB76C0181E00D
:1005D000D60158968C9358975B969C915B975C9646
:1005E0008C915C97981307C05096ED91FC915197B0
:1005F000808185FD2DC0F601038D10E00F5F1F4F38
:100600000F731127F02EF601848DF81210C00FB66B
:1006100007FCF9CFD6015096ED91FC91519780815E
:1006200085FFF1CFC601698385DF6981ECCF838DBA
:10063000E80FF11DE35AFF4F6083D6015B960C93E0
:100640005B975296ED91FC915397808180620CC02C
:10065000D6015696ED91FC91579760835096ED9197
:10066000FC91519780818064808381E090E00F90BD
:10067000DF91CF911F910F91FF90DF90CF90089560
:10068000BF92CF92DF92EF92FF92CF93DF93EC0174
:100690006A017B01B22EE889F98982E080834115E5
:1006A00081EE580761057105A1F060E079E08DE306
:1006B00090E0A70196010E94D41021503109410910
:1006C00051095695479537952795211580E13807AB
:1006D00098F0E889F989108260E874E88EE190E08A
:1006E000A70196010E94D4102150310941095109F6
:1006F0005695479537952795EC85FD853083EE8592
:10070000FF852083188EEC89FD89B082EA89FB89F8
:10071000808180618083EA89FB8980818860808311
:10072000EA89FB89808180688083EA89FB898081EE
:100730008F7D8083DF91CF91FF90EF90DF90CF90FE
:10074000BF9008951F920F920FB60F9211240BB60F
:100750000F922F938F939F93EF93FF93E0910C034E
:10076000F0910D038081E0911203F091130382FD5B
:1007700012C09081809115038F5F8F7320911603B3
:10078000821751F0E0911503F0E0E450FD4F958F92
:100790008093150301C08081FF91EF919F918F910C
:1007A0002F910F900BBE0F900FBE0F901F901895BA
:1007B0001F920F920FB60F9211240BB60F922F9328
:1007C0003F934F935F936F937F938F939F93AF93D9
:1007D000BF93EF93FF938CEF92E0ACDEFF91EF912C
:1007E000BF91AF919F918F917F916F915F914F9149
:1007F0003F912F910F900BBE0F900FBE0F901F9047
:1008000018958CEF92E02DDE21E0892B09F420E091
:10081000822F08951092FF021092FE0288EE93E05C
:10082000A0E0B0E08093000390930103A093020343
:10083000B093030388E392E09093FD028093FC025F
:1008400085EC90E0909309038093080384EC90E09A
:1008500090930B0380930A0380EC90E090930D0338
:1008600080930C0381EC90E090930F0380930E0330
:1008700082EC90E0909311038093100386EC90E05B
:100880009093130380931203109215031092160392
:1008900010921703109218030895CF92DF92EF92EF
:1008A000FF920F931F93CF93DF937C016A01EB01BB
:1008B00000E010E00C151D0571F06991D701ED9174
:1008C000FC910190F081E02DC7011995892B19F059
:1008D0000F5F1F4FEFCFC801DF91CF911F910F9195
:1008E000FF90EF90DF90CF9008956115710581F032
:1008F000DB010D900020E9F7AD0141505109461B85
:10090000570BDC01ED91FC910280F381E02D1994ED
:1009100080E090E00895EF92FF920F931F93CF93A2
:10092000DF938C017B01C0E0D0E0F701EC0FFD1FED
:100930006491662359F0F801A081B181ED91FC9199
:10094000C8011995892B11F02196EFCFCE01DF91C7
:10095000CF911F910F91FF90EF900895C6CFDC01CA
:10096000ED91FC910190F081E02D199464E472E026
:10097000BCCF8F929F92AF92BF92CF92DF92EF92B5
:10098000FF920F931F93CF93DF93CDB7DEB7A1975D
:100990000FB6F894DEBF0FBECDBF7C01C42EE52F8D
:1009A000CB01D22E19A221E02D1510F02AE0D22E73
:1009B0008E010F5D1F4F8D2C912CA12CB12C6C2D15
:1009C0007E2FA50194010E94D4108C2DD29E8019F7
:1009D0001124015011098A3014F4805D01C0895C32
:1009E000F8018083211531054105510521F0C22E02
:1009F000E32FCA01E4CFB801C70177DFA1960FB694
:100A0000F894DEBF0FBECDBFDF91CF911F910F9144
:100A1000FF90EF90DF90CF90BF90AF909F908F901E
:100A20000895CF92DF92EF92FF920F931F93CF938F
:100A3000DF93EC016A017B012115310579F4E8812E
:100A4000F9810190F081E02D642FDF91CF911F910A
:100A50000F91FF90EF90DF90CF9019942A303105DD
:100A6000D9F477FF18C06DE27ADF8C01442755274F
:100A7000BA014C195D096E097F092AE0CE0179DFC0
:100A8000800F911FDF91CF911F910F91FF90EF90F9
:100A9000DF90CF9008952AE0B701A601CE01DF9143
:100AA000CF911F910F91FF90EF90DF90CF9061CF8A
:100AB0002115310541F4DC01ED91FC910190F081AB
:100AC000E02D642F199455CF4F925F926F927F92D1
:100AD0008F929F92AF92BF92CF92DF92EF92FF924E
:100AE0000F931F93CF93DF93EC016A017B01B22E2A
:100AF0009A01AB01C701B6010E944B13882319F07C
:100B000067E472E027C026013701E89477F82FEFF9
:100B10003FEF4FE75FE7C301B2010E944B13811122
:100B20000DC02FEF3FEF4FE75FE7C301B2010E9417
:100B3000951118161CF46BE472E00CC02FEF3FEF18
:100B40004FE75FE4C701B6010E94E4121816A4F44F
:100B50006FE472E0CE01DF91CF911F910F91FF9072
:100B6000EF90DF90CF90BF90AF909F908F907F904D
:100B70006F905F904F90B9CE2FEF3FEF4FE75FEC54
:100B8000C701B6010E94951187FDE2CF20E030E059
:100B9000A901C701B6010E94951187FF09C06DE246
:100BA000CE01DDDE8C01F7FAF094F7F8F09402C084
:100BB00000E010E0A12C60E070E080E09FE3AB1467
:100BC00041F020E030E040E251E40E949911A3940A
:100BD000F6CF9B01AC01C701B6010E9431116B0138
:100BE0007C010E9406122B013C010E9432129B01E3
:100BF000AC01C701B6010E9430116B017C012AE0F3
:100C0000B301A201CE01B5DE080F191FBB2031F0E0
:100C100063E572E0CE0169DE080F191F7B2C772097
:100C200039F120E030E040E251E4C701B6010E9412
:100C3000E8126B017C010E9401124B01AA2497FC6F
:100C4000A094BA2C2AE030E0B501A401CE01E9DE7F
:100C5000080F191FC501B4010E9434129B01AC0199
:100C6000C701B6010E9430116B017C017A94D7CF85
:100C7000C801DF91CF911F910F91FF90EF90DF900E
:100C8000CF90BF90AF909F908F907F906F905F902C
:100C90004F90089519CF0F931F93CF93DF93EC01DB
:100CA00013DF8C01CE0162DE800F911FDF91CF91A7
:100CB0001F910F91089508959BD0FDDF75DBCEE560
:100CC000D2E0BDDB2097E9F3F9DBFBCF1F920F9257
:100CD0000FB60F9211242F933F938F939F93AF934F
:100CE000BF9380919A0390919B03A0919C03B09134
:100CF0009D033091990323E0230F2D3720F40196B3
:100D0000A11DB11D05C026E8230F0296A11DB11D2E
:100D10002093990380939A0390939B03A0939C0341
:100D2000B0939D0380919E0390919F03A091A00397
:100D3000B091A1030196A11DB11D80939E039093D4
:100D40009F03A093A003B093A103BF91AF919F9184
:100D50008F913F912F910F900FBE0F901F9018957C
:100D60003FB7F89480919E0390919F03A091A003B8
:100D7000B091A10326B5A89B05C02F3F19F001969D
:100D8000A11DB11D3FBF6627782F892F9A2F620FB3
:100D9000711D811D911D42E0660F771F881F991FED
:100DA0004A95D1F70895CF92DF92EF92FF92CF93B9
:100DB000DF936B017C01D4DFEB01C114D104E104AA
:100DC000F10479F077D0CCDF6C1B7D0B683E73406B
:100DD000A0F381E0C81AD108E108F108C851DC4F3E
:100DE000ECCFDF91CF91FF90EF90DF90CF900895FF
:100DF000789484B5826084BD84B5816084BD85B5F6
:100E0000826085BD85B5816085BDEEE6F0E08081BC
:100E100081608083E1E8F0E01082808182608083DD
:100E2000808181608083E0E8F0E080818160808360
:100E3000E1EBF0E0808184608083E0EBF0E0808192
:100E400081608083E1E9F0E080818260808380813D
:100E500081608083E0E9F0E0808181608083E1EA65
:100E6000F0E0808182608083808181608083E0EA1D
:100E7000F0E0808181608083E1E2F1E08081826046
:100E80008083808181608083E0E2F1E08081816005
:100E90008083EAE7F0E080818460808380818260E3
:100EA00080838081816080838081806880831092CC
:100EB000C10008950895E091CE03F091CF038081A1
:100EC000811103C08FEF9FEF0CC0E091CE03F09132
:100ED000CF030580F681E02D0680F781E02D828129
:100EE00093819093A4038093A30308953F924F921C
:100EF0005F926F927F928F929F92AF92BF92CF92AA
:100F0000DF92EF92FF920F931F93CF93DF934C01E9
:100F1000162F372E5A013901009709F447D3802F35
:100F200090E004970CF042D3C114D10431F4C50110
:100F300049D36C01009709F4CCC089E290E042D318
:100F4000EC010097A1F0D88ECF8AA50165EA70E088
:100F5000C6010E94B91421E0A21AB1084F88588C2A
:100F60004A0C5B1CE12FF32D80E090E007C0C60126
:100F700046D3AFC001968830910561F0BF01419121
:100F80009E01280F391FD90159964C93DB012C91F2
:100F90002111F0CF18A2102F043008F013E01E8B9F
:100FA00019A31AA26E01B2E0CB0ED11CC6014ED31A
:100FB000CE010C964BD3D987C88784E090E0811B83
:100FC00091099D878C87DB8BCA8B1BA21CA21DA25B
:100FD0001EA218A61FA2A301B401C2017FD3998348
:100FE0008883E114F10419F0F701D183C0830FB6AF
:100FF000F8940F928091AD038F5F8093AD03809141
:10100000060490910704892B89F5D0930704C093B7
:1010100006048091AD03813009F037C082EE93E081
:1010200007D38BEE93E004D384EF93E001D38DEFED
:1010300093E0FED289ED93E0FBD280ED93E0F8D20D
:1010400083EC93E0F5D28AEB93E0F2D280EB93E06D
:10105000EFD289ED93E09093CF038093CE0380EDA0
:1010600093E09093CD038093CC030FC08091A903AC
:1010700081110BC0E0910604F091070486890817DE
:1010800020F0D0930704C09306048091A5038F5FDE
:101090008093A5038E899091AA03981710F48093EA
:1010A000AA03F9E08F9FC0011124B6018E519C4F15
:1010B000D1D20F900FBE8091A903882341F0E09117
:1010C0000604F09107048689801708F4B1D381E003
:1010D00001C08FEFDF91CF911F910F91FF90EF90A3
:1010E000DF90CF90BF90AF909F908F907F906F9048
:1010F0005F904F903F900895AF92BF92CF92DF9252
:10110000EF92FF920F93A12CB12CC12CD12C8EEA1F
:10111000E82E83E0F82E00E020E030E044E650E0E6
:1011200065E572E08EEE99E0E1DE8130B1F4F8948D
:101130008FEF9FEF9093A4038093A30381E08093AC
:10114000A9031092AC031092AB030F91FF90EF90A4
:10115000DF90CF90BF90AF9033C3811108C00F9143
:10116000FF90EF90DF90CF90BF90AF901FC20F9194
:10117000FF90EF90DF90CF90BF90AF900895809157
:10118000A2038F5F8093A2030895CF92DF92EF9224
:10119000FF920F931F93CF93DF938091A20381114E
:1011A00096C08091AB039091AC0301969093AC03F1
:1011B0008093AB030091AB031091AC0301151105B3
:1011C000E9F4E091CE03F091CF0380818111EED15B
:1011D0008091CE039091CF032091CC033091CD0329
:1011E0003093CF032093CE039093CD038093CC0311
:1011F0008091A6038F5F8093A6035DDE8091A30399
:101200009091A403D12C0817190708F44AC099E05B
:10121000C92EE091CE03F091CF038081811107C0E8
:101220008FEF9FEF9093A4038093A3033AC0E091C4
:10123000CE03F091CF030580F681E02DC681D781E2
:101240002A813B810217130728F43093A4032093CB
:10125000A30327C07E0182E0E80EF11CC7011BD268
:101260008C899D89892B19F0CE010C9614D22E8978
:101270008091AA03821710F42093AA03C29EC00192
:101280001124B7018E519C4FE5D1E0910604F091F5
:1012900007049E898689981708F4BBCFDD24D39470
:1012A000B8CFE0910604F0910704E68989E0E89F51
:1012B000F0011124EE51FC4F8081823010F0DD24CA
:1012C000D3948091A803811109C07BD107C080917C
:1012D000A8038F5F8093A80374D1D12C8091A703BA
:1012E000882311F0DD24D3948D2DDF91CF911F91B0
:1012F0000F91FF90EF90DF90CF900895EF92FF92C3
:101300000F931F93CF93DF938091A203811101C0AC
:101310004DD10FB6F8940F928091A2038150809323
:10132000A2038091A203882311F080E04EC0809137
:10133000AD038823D1F329E0F22EEE24E3948091CB
:10134000C303882339F1E091C803F091C903C68132
:10135000D781CE010C969FD18E010E5F1F4FC80121
:101360009AD18E899091AA03981710F48093AA03BA
:10137000F89EC0011124B8018E519C4F6BD1E091B1
:101380000604F09107049E8986899817C0F2E092BE
:10139000A703D5CF8091A803811108C08091A7032E
:1013A000813009F0C2CF44D281E00FC0C1E080910A
:1013B000A803882399F3E9DE8111C093A7038091E4
:1013C000A80381508093A803F2CF0F900FBEDF9146
:1013D000CF911F910F91FF90EF9008958091B903E5
:1013E000882321F1CCDEC091BA0388DFCC23B1F38E
:1013F0000FB6F8940F92E091BF03F091C003C6813D
:10140000D781CE01029647D18091AD038150809360
:10141000AD038091B90381508093B9030F900FBE43
:101420008F89988DECD0CE01EAD0D8CF8091E2039D
:10143000823008F0FDD1C3D0D1CFCF938091A203E9
:10144000882321F081E08093A70372C01092A70344
:10145000E0910604F09107040788F08DE02D80816B
:101460009181A281B381853A954AA54AB54AD9F4BA
:1014700084819581A681B781853A954AA54AB54A66
:1014800091F480859185A285B385853A954AA54AD0
:10149000B54A49F484859585A685B785853A954AE8
:1014A000A54AB54A59F060910604709107048091ED
:1014B000060490910704675E7F4F7ED0C9E0E091FB
:1014C000AA03CE9FF0011124EE51FC4F80818111BF
:1014D0000BC08091AA03811101C068D08091AA033A
:1014E00081508093AA03EBCFE091AA0389E0E89FA3
:1014F000F0011124EE51FC4FA181B28112960D90A2
:10150000BC91A02DB283A183CF010396A817B90780
:1015100031F412968D919C9113979283818301806F
:10152000F281E02D868197819093070480930604D1
:10153000CF910895EC01F89461E08DE0B4D500E01E
:1015400010E00C171D071CF561E08DE0E5D580E883
:1015500099EAA3E0B0E000000197A109B109009762
:10156000A105B105C1F760E08DE0D6D540E859EAA4
:1015700063E070E0000041505109610971094115B3
:10158000510561057105B1F70F5F1F4FDACF40E0DC
:101590005AE668E170E000004150510961097109A3
:1015A0004115510561057105B1F7C9CF81E090E0A2
:1015B000C1DF82E090E0BEDF83E090E0BBDF0C940F
:1015C0001F0208950F931F93CF93DF931F921F92D3
:1015D000CDB7DEB789839A83D2DD89819A810E9453
:1015E0004F138C018BDE0115110509F4E2DFC801F0
:1015F0000F900F90DF91CF911F910F910895CF938E
:10160000DF931F921F92CDB7DEB7009761F08983F9
:101610009A83B5DD89819A810E94E7130F900F901C
:10162000DF91CF916BCE0F900F90DF91CF91089506
:10163000FC010396928381832FEF3FEF3483238352
:10164000968385839087878310820895FC01118695
:1016500010860895CF93DF939C01FB01DC01119666
:10166000CD91DC911297D383C2838C819D81958328
:1016700084838C819D81DC0113967C936E931297F9
:101680007D836C8331872087F90180818F5F808320
:10169000DF91CF910895CF93DF93FC01A085B185B1
:1016A0008281938124813581EC013D832C83C48127
:1016B000D5819B838A8311968D919C9112978E1769
:1016C0009F0721F41296DC93CE9311971186108612
:1016D0008C9181508C93DF91CF91089531E1FC0181
:1016E0003083319722E220833197A3E3A08331979F
:1016F00060833197708331971082319710823197D0
:1017000060E86083319710823197108231971082A0
:10171000319762E06083319763E06083319764E0E2
:101720006083319765E06083319766E0608331972D
:1017300067E06083319768E06083319769E0608398
:10174000319760E1608331973083319732E13083A4
:10175000319733E13083319734E13083319735E18C
:101760003083319736E13083319737E130833197D9
:1017700038E13083319739E13083319730E230837B
:10178000319731E2308331972083319723E22083F0
:101790003197408331975083319726E220833197E8
:1017A00027E22083319728E22083319729E22083A2
:1017B000319720E32083319721E32083899708958F
:1017C00081E087BDEEE6F0E0808182608083A091B9
:1017D0000604B0910704CD91CDBFDD91DEBFFF912E
:1017E000EF91DF91CF91BF91AF919F918F917F91B9
:1017F0006F915F914F913F912F911F910F91FF90AA
:10180000EF90DF90CF90BF90AF909F908F907F90A0
:101810006F905F904F903F902F901F900F900CBE55
:101820000F900BBE0F900FBE0F90089581E00895AA
:101830000F920FB6F8940F920BB60F920CB60F9250
:101840001F9211242F923F924F925F926F927F923C
:101850008F929F92AF92BF92CF92DF92EF92FF92C0
:101860000F931F932F933F934F935F936F937F93A8
:101870008F939F93AF93BF93CF93DF93EF93FF9398
:10188000A0910604B09107040DB60D920EB60D920C
:10189000D4DDA0910604B0910704CD91CDBFDD91B8
:1018A000DEBFFF91EF91DF91CF91BF91AF919F91FB
:1018B0008F917F916F915F914F913F912F911F91E8
:1018C0000F91FF90EF90DF90CF90BF90AF909F90DF
:1018D0008F907F906F905F904F903F902F901F90D0
:1018E0000F900CBE0F900BBE0F900FBE0F9008957F
:1018F0000F920FB6F8940F920BB60F920CB60F9290
:101900001F9211242F923F924F925F926F927F927B
:101910008F929F92AF92BF92CF92DF92EF92FF92FF
:101920000F931F932F933F934F935F936F937F93E7
:101930008F939F93AF93BF93CF93DF93EF93FF93D7
:10194000A0910604B09107040DB60D920EB60D924B
:101950001CDC811172DDA0910604B0910704CD91C9
:10196000CDBFDD91DEBFFF91EF91DF91CF91BF91B0
:10197000AF919F918F917F916F915F914F913F9127
:101980002F911F910F91FF90EF90DF90CF90BF901C
:10199000AF909F908F907F906F905F904F903F900F
:1019A0002F901F900F900CBE0F900BBE0F900FBE8C
:1019B0000F9008959DDF189520914A0430914B04B3
:1019C00028173907B9F490910804809109049817F1
:1019D00089F0E0910804F0E0E65FFB4F8081209100
:1019E000080430E02F5F3F4F2F7333272093080404
:1019F00090E008958FEF9FEF08951F93CF93DF93AB
:101A0000DC015C968D919C915D97009749F481E093
:101A100090E013969C938E93129780E090E03BC0E9
:101A20005196ED91FC91529750962C915097322FF0
:101A300030951FB75E964C915E9741FB772770F902
:101A400041FD6095F8944081772311F0422B01C04D
:101A500043234083EC012197F1F748E0508160FF78
:101A600002C0522B01C053235083EC012197F1F7A0
:101A70006695415099F78081772311F0832301C047
:101A8000822B80831FBF5C968D919C915D970197FF
:101A9000F1F781E090E0DF91CF911F9108952091BF
:101AA0004A0430914B042817390781F490910804B7
:101AB00080910904981751F0E0910804F0E0E65F86
:101AC000FB4F8081992787FD909508958FEF9FEFB9
:101AD000089520914A0430914B042817390761F486
:101AE000809109042091080490E0805C9F4F821B44
:101AF000910960E470E045C380E090E00895209192
:101B00004A0430914B042817390739F48FB7F894F9
:101B100010920904109208048FBF0895E0914A04BE
:101B2000F0914B04E817F90769F4A389B4899C91F3
:101B30008589809589238C9310924B0410924A04D6
:101B400081E0089580E00895CF93DF93EC018A8DC2
:101B50009B8D892BE9F080914A0490914B048C175E
:101B60009D07B1F0009709F0D9DF8E8D8E7F8E8FA3
:101B70001092090410920804D0934B04C0934A04B5
:101B8000EB89FC8980819D89892B808381E001C05C
:101B900080E0DF91CF9108951F920F920FB60F92C0
:101BA00011240BB60F922F933F934F935F936F9334
:101BB0007F938F939F93AF93BF93EF93FF93E091A6
:101BC0004A04F0914B04309709F451C0868DA685E4
:101BD000B785958581FF04C08C91892329F447C07E
:101BE0008C91892309F043C0A389B4899C9185898C
:101BF000809589238C93868997890197F1F7208DA9
:101C0000318DA685B785758558E040E0C9010197FB
:101C1000F1F7842F90E095958795482F6C91672375
:101C200009F04068515091F7868D81FD4095809173
:101C3000090490E001968F739927209108042817D2
:101C400049F0A0910904B0E0A65FBB4F4C9380938C
:101C5000090403C0868D8160868F828D938D0197E4
:101C6000F1F7A389B4898C919589892B8C93FF9185
:101C7000EF91BF91AF919F918F917F916F915F9104
:101C80004F913F912F910F900BBE0F900FBE0F9071
:101C90001F9018952EE532E0FC01318320833ECF62
:101CA0001F93CF93DF93EC01162F6E8D66956170B5
:101CB00081E06827812F30D261E0812FF4D1812F1C
:101CC00090E0FC01EE5AFE4FE491E88BFC01E856EF
:101CD000FE4FE491F0E0EE0FFF1FE850FE4F8591BC
:101CE00094919A8B898BDF91CF911F9108951F93C7
:101CF000CF93DF93EC01162F60E0812FD4D18E8D2E
:101D000081FD03C061E0812F07D21C87812F90E005
:101D1000FC01EE5AFE4FE491ED87FC01E856FE4FC0
:101D2000E491F0E0EE0FFF1FE252FE4F8591949197
:101D30009F878E87DF91CF911F910895FF920F9318
:101D40001F93CF93DF93EC01F62E522F1B821A8242
:101D500008EE13E020E030E00C831D832E833F83E8
:101D60008EE592E0998388831F8A1E8A198E188EC9
:101D70001B8E1A8E1D8E1C8E8E8D8E7F50FB81F9D0
:101D80008E8F642FCE018CDF6F2DCE01DF91CF912E
:101D90001F910F91FF90ABCF0F931F93CF93DF93C2
:101DA000EC019A01AB011B8E1A8E198E188E1F8AB8
:101DB0001E8A60E079E08DE390E018D2C9012430FA
:101DC000310520F0B9016350710902C061E070E093
:101DD0007D8F6C8F1C8506EF010F043048F06EEC90
:101DE000610F643028F062EC610F683008F07DC04C
:101DF000B901769567956431710518F063517109E1
:101E000002C061E070E07F8B6E8B069718F0C9010D
:101E1000059702C081E090E0998F888FC901880FF3
:101E2000991F820F931F96958795969587958D306C
:101E3000910510F00C9702C081E090E09B8F8A8F93
:101E4000043060F08EEC810F843040F082EC810F22
:101E5000883008F050C0A8E6B0E04FC0A8E6B0E077
:101E6000E8E6F0E09081043028F01E53183010F4BA
:101E700084E001C081E0892B8C932C8536EF320FF2
:101E8000343058F08EEC820F843038F082EC820FC0
:101E9000883030F48DE690E005C08BE690E002C01B
:101EA00080E090E09C8B8B8B343010F426500BC07C
:101EB000223379F0233379F0243379F082EC820FE6
:101EC000883068F4282F81E001C0880F2A95EAF74E
:101ED00007C088E005C084E003C082E001C081E063
:101EE0008D8B8C8D9D8D0197F1F7CE01DF91CF9178
:101EF0001F910F9129CEA0E0B0E0883008F4B0CF58
:101F0000E0E0F0E0AFCFFC01758364830895CF93E8
:101F1000DF93EC018C819D810E94AE0464E472E049
:101F20008C819D81DF91CF910C94AE040F931F9310
:101F3000CF93DF93EC01EBDF1E8268EC70E080E072
:101F400090E00E94D30600E010E08C819D81DC01CE
:101F5000ED91FC910480F581E02D1995892B81F09C
:101F60000F5F1F4F8C819D81DC01ED91FC910680FC
:101F7000F781E02D1995FE01E00FF11F8583E5CF74
:101F8000FE01E00FF11F16828E81843581F4CE01AF
:101F90000B96ACD4BC01882777FD8095982F2A85B5
:101FA000213061F468517C4F8F4F9F4F07C0CE01A5
:101FB0000896DF91CF911F910F91B5C4DF91CF911A
:101FC0001F910F91089567E872E0B0DF80E090E024
:101FD00049D220E030E04AE754E442D12DEC3CEC19
:101FE0004CEC5DE3F5C2089569E872E09FDF3AD2F8
:101FF0002DEC3CEC4CEC5DE3EBC26DE872E096CF6F
:1020000090E0FC013197E231F10508F04BC0EE5849
:10201000FF4F08C1809180008F7703C080918000BE
:102020008F7D80938000089580918000877FF9CF15
:1020300084B58F7702C084B58F7D84BD089580916B
:10204000B0008F7703C08091B0008F7D8093B00087
:102050000895809190008F7707C0809190008F7DC8
:1020600003C080919000877F8093900008958091B5
:10207000A0008F7707C08091A0008F7D03C0809162
:10208000A000877F8093A0000895809120018F7722
:1020900007C0809120018F7D03C080912001877F40
:1020A000809320010895CF93DF9390E0FC01EE5AD6
:1020B000FE4F2491FC01E856FE4F8491882349F19C
:1020C00090E0880F991FFC01EE5EFD4FA591B49141
:1020D00088509E4FFC01C591D4919FB7611108C0F3
:1020E000F8948C91209582238C93888182230AC056
:1020F000623051F4F8948C91322F309583238C9375
:102100008881822B888304C0F8948C91822B8C93D5
:102110009FBFDF91CF9108950F931F93CF93DF93CC
:102120001F92CDB7DEB7282F30E0F901E45FFE4FF4
:102130008491F901EE5AFE4F1491F901E856FE4FD1
:1021400004910023C1F0882319F0698359DF698164
:10215000E02FF0E0EE0FFF1FE850FE4FA591B49185
:102160009FB7F8948C91611103C01095812301C031
:10217000812B8C939FBF0F90DF91CF911F910F9177
:10218000089597FB072E16F4009406D077FD08D02B
:1021900053D007FC05D03EF4909581959F4F08954C
:1021A000709561957F4F0895A1E21A2EAA1BBB1B63
:1021B000FD010DC0AA1FBB1FEE1FFF1FA217B30713
:1021C000E407F50720F0A21BB30BE40BF50B661F29
:1021D000771F881F991F1A9469F7609570958095ED
:1021E00090959B01AC01BD01CF010895052E97FB91
:1021F00016F400940FD057FD05D0D6DF07FC02D0AF
:1022000046F408C050954095309521953F4F4F4F6B
:102210005F4F089590958095709561957F4F8F4F92
:102220009F4F0895EE0FFF1F0590F491E02D199434
:102230000790F691E02D1994AA1BBB1B51E107C032
:10224000AA1FBB1FA617B70710F0A61BB70B881F46
:10225000991F5A95A9F780959095BC01CD010895D5
:102260005058BB27AA270ED075C166D130F06BD16C
:1022700020F031F49F3F11F41EF45BC10EF4E095A1
:10228000E7FB51C1E92F77D180F3BA1762077307D3
:102290008407950718F071F49EF58FC10EF4E09550
:1022A0000B2EBA2FA02D0B01B90190010C01CA0110
:1022B000A0011124FF27591B99F0593F50F4503EBB
:1022C00068F11A16F040A22F232F342F4427585FAD
:1022D000F3CF469537952795A795F0405395C9F7C5
:1022E0007EF41F16BA0B620B730B840BBAF091507D
:1022F000A1F0FF0FBB1F661F771F881FC2F70EC01C
:10230000BA0F621F731F841F48F4879577956795EE
:10231000B795F7959E3F08F0B3CF9395880F08F0D7
:102320009927EE0F979587950895D9D008F481E005
:1023300008950CD00FC107D140F0FED030F021F449
:102340005F3F19F0F0C0511139C1F3C014D198F3B7
:102350009923C9F35523B1F3951B550BBB27AA2726
:1023600062177307840738F09F5F5F4F220F331F98
:10237000441FAA1FA9F333D00E2E3AF0E0E830D064
:1023800091505040E695001CCAF729D0FE2F27D067
:10239000660F771F881FBB1F261737074807AB0735
:1023A000B0E809F0BB0B802DBF01FF2793585F4FAA
:1023B0002AF09E3F510568F0B6C000C15F3FECF3C4
:1023C000983EDCF3869577956795B795F7959F5F6F
:1023D000C9F7880F911D9695879597F90895E1E0C3
:1023E000660F771F881FBB1F621773078407BA0722
:1023F00020F0621B730B840BBA0BEE1F88F7E0957D
:10240000089504D06894B111D9C00895BCD088F063
:102410009F5790F0B92F9927B751A0F0D1F0660FD0
:10242000771F881F991F1AF0BA95C9F712C0B130EB
:1024300081F0C3D0B1E00895C0C0672F782F8827FE
:10244000B85F39F0B93FCCF3869577956795B3952A
:10245000D9F73EF490958095709561957F4F8F4F99
:102460009F4F0895E89409C097FB3EF4909580959E
:10247000709561957F4F8F4F9F4F9923A9F0F92F4A
:1024800096E9BB279395F695879577956795B795C8
:10249000F111F8CFFAF4BB0F11F460FF1BC06F5FAE
:1024A0007F4F8F4F9F4F16C0882311F096E911C0C0
:1024B000772321F09EE8872F762F05C0662371F0E1
:1024C00096E8862F70E060E02AF09A95660F771FF5
:1024D000881FDAF7880F9695879597F90895990FD1
:1024E0000008550FAA0BE0E8FEEF16161706E807DE
:1024F000F907C0F012161306E407F50798F0621BFF
:10250000730B840B950B39F40A2661F0232B242BD3
:10251000252B21F408950A2609F4A140A6958FEFF2
:10252000811D811D089597F99F6780E870E060E044
:1025300008959FEF80EC089500240A94161617065C
:1025400018060906089500240A94121613061406A4
:1025500005060895092E0394000C11F4882352F007
:10256000BB0F40F4BF2B11F460FF04C06F5F7F4FBF
:102570008F4F9F4F089557FD9058440F551F59F0A6
:102580005F3F71F04795880F97FB991F61F09F3F60
:1025900079F087950895121613061406551FF2CF89
:1025A0004695F1DF08C0161617061806991FF1CFD9
:1025B00086957105610508940895E894BB27662700
:1025C0007727CB0197F908958ADF08F48FEF0895F4
:1025D0000BD0C0CFB1DF28F0B6DF18F0952309F09B
:1025E000A2CFA7CF1124EACFC6DFA0F3959FD1F3E6
:1025F000950F50E0551F629FF001729FBB27F00DB1
:10260000B11D639FAA27F00DB11DAA1F649F662705
:10261000B00DA11D661F829F2227B00DA11D621F54
:10262000739FB00DA11D621F839FA00D611D221F0E
:10263000749F3327A00D611D231F849F600D211DF2
:10264000822F762F6A2F11249F5750408AF0E1F095
:1026500088234AF0EE0FFF1FBB1F661F771F881FDE
:1026600091505040A9F79E3F510570F05CCFA6CF26
:102670005F3FECF3983EDCF3869577956795B795C9
:10268000F795E7959F5FC1F7FE2B880F911D9695F3
:10269000879597F9089523DF880B990B0895CF93B9
:1026A000DF938230910510F482E090E0E0914E04D7
:1026B000F0914F0420E030E0A0E0B0E0309739F135
:1026C0004081518148175907B8F04817590771F4EC
:1026D00082819381109729F013969C938E93129781
:1026E0002CC090934F0480934E0427C021153105D0
:1026F00031F04217530718F0A901DB0101C0EF01C7
:102700009A01BD01DF010280F381E02DD7CF2115B1
:102710003105F9F0281B390B2430310580F48A810A
:102720009B816115710521F0FB019383828304C0B5
:1027300090934F0480934E04FE01329644C0FE01F4
:10274000E20FF31F8193919322503109398328833B
:102750003AC020914C0430914D04232B41F4209138
:1027600002023091030230934D0420934C042091D7
:102770000002309101022115310541F42DB73EB719
:102780004091040250910502241B350BE0914C044A
:10279000F0914D04E217F307A0F42E1B3F0B28170E
:1027A000390778F0AC014E5F5F4F2417350748F0CA
:1027B0004E0F5F1F50934D0440934C0481939193AF
:1027C00002C0E0E0F0E0CF01DF91CF910895CF9318
:1027D000DF93009709F487C0FC01329713821282BD
:1027E000C0914E04D0914F04209781F42081318113
:1027F000280F391F80914C0490914D048217930744
:1028000079F5F0934D04E0934C046DC0DE0120E0B7
:1028100030E0AE17BF0750F412964D915C911397BC
:102820009D014115510509F1DA01F3CFB383A2836C
:1028300040815181840F951F8A179B0771F48D91F8
:102840009C911197840F951F029691838083129615
:102850008D919C911397938382832115310529F4DF
:10286000F0934F04E0934E043EC0D9011396FC93BD
:10287000EE9312974D915D91A40FB51FEA17FB07D8
:1028800079F480819181840F951F0296D901119668
:102890009C938E938281938113969C938E9312972F
:1028A000E0E0F0E08A819B81009719F0FE01EC01E5
:1028B000F9CFCE01029628813981820F931F209192
:1028C0004C0430914D042817390769F4309729F4E6
:1028D00010924F0410924E0402C013821282D093C1
:1028E0004D04C0934C04DF91CF910895FC018827DB
:1028F0009927E89421912032E9F3293010F02E3005
:10290000C8F32B3239F02D3231F4689403C04DD026
:10291000820F911D219120532A30C8F31EF4909507
:1029200081959F4F08951F93FC0199278827BC012B
:10293000E89411911032E9F3193010F01E30C8F309
:102940001B3249F01D3241F4689405C019D0610F63
:10295000711D811D911D119110531A30B8F33EF471
:1029600090958095709561957F4F8F4F9F4F1F91E8
:102970000895DC0101C06D9341505040E0F7089587
:10298000592F482F372F262F660F771F881F991F23
:10299000660F771F881F991F620F731F841F951F73
:1029A000660F771F881F991F08957AE0979F902DD3
:1029B000879F802D910D1124089512E0C0E3D2E08D
:1029C00000E005C022970109FE010BBF31DCC233D4
:0C29D000D10780E00807B1F7F894FFCFB2
:1029DC0000005004200054656D705265616465728E
:1029EC0000434F325265616465720048756D6964CD
:1029FC00697479526561646572005072696E7454C1
:102A0C0061736B0000000000DC024D0431024A02CD
:102A1C003C02BB020D0A006E616E00696E66006FAF
:102A2C007666002E0049444C450000000000FD0C69
:102A3C004D04690DDC0C4F0D7F0D4B2025750041AD
:102A4C00202575004D20257500510050202575203E
:102A5C0025750059002A00540048004C005A0046C5
:102A6C00202575202575004700550040005820256D
:0C2A7C00750073006100702025750000DB
:00000001FF
