:10000000FAC1000028C2000026C2000024C200007D
:1000100022C2000020C200001EC200001CC200005C
:100020001AC200000C94AB130C94AB130C94AB13DA
:1000300012C2000010C200000EC200000CC200007C
:100040000AC2000008C2000006C2000004C200008C
:1000500002C200000C94C612FEC100000C940D0AEE
:10006000FAC10000E4C6000018C70000F4C1000097
:10007000F2C10000F0C10000EEC10000ECC10000C0
:10008000EAC10000E8C10000E6C10000E4C10000D0
:10009000E2C10000E0C10000DEC10000DCC10000E0
:1000A000DAC10000D8C10000D6C10000D4C10000F0
:1000B000D2C10000D0C10000CEC10000CCC1000000
:1000C000CAC10000C8C10000C6C10000C4C1000010
:1000D000C2C10000C0C10000BEC10000BCC1000020
:1000E000BAC10000680B6B0B5A0B5E0B640BA20BC2
:1000F0006F0B730B790B7D0B810B870B8B0B8F0BAE
:10010000A20B950B990B9D0B2C002C0000000A0BE9
:1001100002090C0D0E080703040100000000000096
:1001200000000000000000000000000000000000CF
:10013000000000000000000012111000000000008C
:1001400000000000000000000000000000000000AF
:1001500000000102102020080810204010204080DC
:10016000020102010804020101020408102040807B
:100170008040201008040201800402018040201009
:100180000804020108040201010204081020408052
:100190000102040810204080050505050705080830
:1001A0000808020202020A0A080804040404010101
:1001B0000101010101010303030303030303040716
:1001C00007070C0C0C0C0C0C0C0C020202020606AD
:1001D0000606060606060B0B0B0B0B0B0B0B0000A3
:1001E00020002300260029002C002F0032000001EF
:1001F000000003010601090100002200250028007B
:100200002B002E003100340002010000050108011E
:100210000B0100002100240027002A002D003000DF
:10022000330001010000040107010A015041205080
:100230006F77657209203D2025530D0A0043524314
:10024000204C656E67746809203D2025530D0A0017
:100250004D6F64656C0909203D2025530D0A00444B
:10026000617461205261746509203D2025530D0A97
:100270000044594E50442F46454154555245004381
:100280004F4E4649470052465F5345545550005221
:10029000465F434800454E5F525841444452004532
:1002A0004E5F41410052585F50575F50302D36002D
:1002B00054585F414444520052585F414444525F95
:1002C00050322D350052585F414444525F50302D1A
:1002D00031000D0A00253032780020307800255397
:1002E000092563203D000D0A002030782530327842
:1002F000002553092563203D004F42534552564582
:100300005F54583D253032783A20504F4C535F436C
:100310004E543D2578204152435F434E543D25784D
:100320000D0A005354415455530909203D2030789B
:10033000253032782052585F44523D257820545859
:100340005F44533D2578204D41585F52543D2578F8
:100350002052585F505F4E4F3D25782054585F46DD
:10036000554C4C3D25780D0A00000102030405118F
:1003700012131415160A0B0C0D0E0F990392038B12
:1003800003830350415F48494748004C415F4D4556
:10039000440050415F4C4F570050415F4D494E0063
:1003A000B503AE03A60331362062697473003820AA
:1003B000626974730044697361626C656400CC03A4
:1003C000C2036E524632344C30312B006E524632EC
:1003D000344C303100E903E303DB033235304B4268
:1003E000505300324D42505300314D4250530000A3
:1003F0002D047F07400411241FBECFEFD1E2DEBFE2
:10040000CDBF00E00CBF14E0A0E0B2E0E4E0F8E40F
:1004100000E00BBF02C007900D92A030B107D9F7E2
:1004200025E0A0E0B4E001C01D92A93FB207E1F7CA
:1004300013E0C4EFD3E000E006C022970109FE01FB
:100440000BBF0E94731CC03FD10780E00807A9F7CB
:10045000DAD70C94F123D4CDCF93C82FE0919E042A
:10046000F0919F040190F081E02D682F8EE994E0D7
:1004700019958C2F992787FD9095CF9108950E940B
:100480001A0E80914F04813041F4809154048130E0
:1004900021F480914A04813019F00E94D90EEFCFE7
:1004A00040914B0450914C0460914D0470914E0466
:1004B0002AE030E08EE994E076D66AE071E08EE9D9
:1004C00094E09ED5409150045091510460915204A3
:1004D0007091530422E030E08EE994E056D768E052
:1004E00071E08EE994E08CD5409146045091470428
:1004F000609148047091490422E030E08EE994E074
:1005000045D71092540410924F0410924A04C5CF5C
:10051000C1E00E941A0E80914A0481110EC085E646
:1005200094E00E94DA156093460470934704809328
:10053000480490934904C0934A040E94D90EE9CF1D
:10054000C1E00E941A0E80914F0481110EC085E611
:1005500094E00E94E41560934B0470934C048093E4
:100560004D0490934E04C0934F040E94D90EE9CFDE
:10057000C1E00E941A0E8091540481110EC085E6DC
:1005800094E00E94C81560935004709351048093C6
:10059000520490935304C09354040E94D90EE9CF9F
:1005A00084E690E00E94490FFBCF60E070E08CE2AF
:1005B00092E00C94BA2047E14150242F30E0FC0136
:1005C000E20FF31F5081FB01E20FF31F5083411133
:1005D000F3CF0895EF92FF920F931F93CF93DF9382
:1005E000CDB7DEB767970FB6F894DEBF0FBECDBFAD
:1005F0007C01BE016F5F7F4FDEDF2BE032E03F9377
:100600002F930E940421870187E1E80EF11C0F90CF
:100610000F900E151F0549F0F80181918F01992760
:1006200087FD90950E943821F4CF86EE92E09F934B
:100630008F930E94042185E594E00E94AD1847E164
:10064000BE016F5F7F4F85E594E00E945D19182F12
:1006500085E594E00E947F180F900F90812F679698
:100660000FB6F894DEBF0FBECDBFDF91CF911F91C3
:100670000F91FF90EF90089564E670E080E090E0C5
:100680009DD6772767FD7095872F972F3FC7CF930C
:10069000DF93CDB7DEB767970FB6F894DEBF0FBE16
:1006A000CDBF78E6E72E72E0F72E4E0188E1880E86
:1006B000911C06EE12E0EEE4CE2EE2E0DE2EF4E334
:1006C000AF2EF2E0BF2E66246A94AFE77A2E8091B7
:1006D000080490910904892B09F092C085E594E003
:1006E0000E942E19811110C0809106049091070478
:1006F00090932B0480932A0470922F0460922E040E
:1007000081E294E067DF7AC047E16AE074E085E562
:1007100094E00E9431198823B9F380910D0490E090
:10072000982F882720910C04822B40910604509129
:10073000070420910F0430E0322F222760910E042D
:10074000262B24173507D9F46DE172E08EE994E089
:1007500085D42AE0422E24E0522EF20181912F010D
:10076000992787FD90950E943821F1E24F16F4E019
:100770005F0698F31F930F930E9404213DC08417D6
:100780009507C1F4BF92AF920E9404219AE0492ECE
:1007900094E0592E0F900F90F20181912F0199272B
:1007A00087FD90950E943821F1E24F16F4E05F0634
:1007B00098F34BC0DF92CF920E9404218AE0482E2A
:1007C00084E0582E0F900F90F20181912F0199270C
:1007D00087FD90950E943821F1E24F16F4E05F0604
:1007E00098F31F930F930E94042147E16AE074E09D
:1007F00085E594E00E945D190F900F903DDF67CF73
:1008000085E594E00E942E19882309F460CF47E122
:10081000BE016F5F7F4F85E594E00E943119882308
:10082000B1F3FF92EF920E940421CE0101962C01B8
:100830000F900F90F20181912F01992787FD9095DC
:100840000E94382148145904A8F31F930F930E9463
:1008500004210F900F903BCF089520E04CE06DE015
:100860008FE794E00E9481146FE774E085E694E0DE
:100870000E9466154AE069E085E594E00C946618EC
:100880008FE794E00C942914CF93DF931F92CDB798
:10089000DEB740E855E260E070E08FE794E00E9448
:1008A000AF1426E040E855E260E070E08EE994E0A5
:1008B0005CD226E040E855E260E070E08EE994E02A
:1008C00054D273DE85E594E00E94ED1A60E070E09A
:1008D00085E594E00E948F1A4FE06FE085E594E093
:1008E0000E94D41B01EE1AEA2AEA3AEA4AEA50E0E8
:1008F00060E070E085E594E00E94B61950E6C52EF0
:1009000053E0D52E71E0F601E080F1800281138181
:100910002481358146815781F8E0CF0ED11C672FA5
:1009200085E594E079830E94EF1979817F5F7730C4
:1009300051F785E594E00E947F1885E594E00E94D8
:10094000471B89E792E09F938F930E9404210F90A9
:100950000F9010E08DEA810F823060F08EE994E014
:10096000F5D0892BD9F38EE994E009D10E94852036
:10097000182FF0CF1F9281E08F932CEB32E03F9342
:100980002F930E9404210F900F900F900F90143519
:10099000A9F481EC92E09F938F930E94042181E05F
:1009A00090E090930904809308048FEF9FE7909361
:1009B0000704809306040F900F904AC084ED92E0E4
:1009C0009F938F930E9404211092090410920804AF
:1009D00089EE92E09F938F930E9404210F900F90D5
:1009E0000F900F9011E08EE994E0B0D0892BD9F3ED
:1009F0008EE994E0C4D0082FE82EFF24E7FCF094A1
:100A0000C7010E94382120910604309107040B335E
:100A100024F480E3E81AF10803C0E7E5EE1AF108D0
:100A2000E22AF32AF0920704E0920604143069F0F7
:100A3000809106049091070444E0880F991F4A951D
:100A4000E1F790930704809306041F5F153059F671
:100A500080E000D6BC01882777FD8095982FA6D42A
:100A6000809107048F93809106048F9382E093E036
:100A70009F938F930E94042143E060E081E016D7AA
:100A800090930104809300040F900F900F900F90AB
:100A9000892B31F460E173E08EE994E0DFD2FFCF7F
:100AA000A12CB12CC12CD12CB4E0EB2EB4E0FB2E48
:100AB00001E020E030E04EE551E061E273E087E4E0
:100AC00093E06FD712E0E12E14E0F12E20E030E049
:100AD00044E650E069E273E080ED92E062D784E49E
:100AE000E82E84E0F82E20E030E04EE551E062E3AD
:100AF00073E088EB92E055D792E4E92E94E0F92E6A
:100B000020E030E044EF51E06DE373E080EA92E0F2
:100B100048D720E4E22E24E0F22E20E030E048EC3A
:100B200050E067E473E088E892E03BD73EE3E32ED1
:100B300034E0F32E20E030E040E951E066E573E078
:100B40008FE392E02ED70E94D70DFFCFFC01818D5D
:100B5000228D90E0805C9F4F821B91098F739927B3
:100B60000895FC01918D828D981731F0828DE80FE8
:100B7000F11D858D90E008958FEF9FEF0895FC01A2
:100B8000918D828D981761F0828DDF01A80FB11DC4
:100B90005D968C91928D9F5F9F73928F90E00895E8
:100BA0008FEF9FEF089586E797E0892B39F080E07B
:100BB00090E0892B19F09AD1811125C080E090E056
:100BC000892B41F080E090E0892B21F00E94000009
:100BD00081111CC080E090E0892B41F080E090E022
:100BE000892B21F00E940000811113C080E090E069
:100BF000892BA1F080E090E0892B81F00E94000019
:100C000081110AC008950E940000D8CF0E94000000
:100C1000E1CF0E940000EACF0C9400000895FC018F
:100C2000848DDF01A80FB11DA35ABF4F2C91848D75
:100C300090E001968F739927848FA689B7892C93AA
:100C4000A089B1898C9180648C93938D848D981345
:100C500006C00288F389E02D80818F7D808308950E
:100C6000CF93DF93EC01888D8823C1F0EA89FB895B
:100C7000808185FD05C0A889B9898C9186FD0EC04B
:100C80000FB607FCF5CF808185FFF2CFA889B9891F
:100C90008C9185FFEDCFCE01C2DFE8CFDF91CF9100
:100CA0000895CF92DF92FF920F931F93CF93DF931C
:100CB0001F92CDB7DEB76C0181E0D60158968C93B8
:100CC00058975B969C915B975C968C915C97981378
:100CD00007C05096ED91FC915197808185FD2DC004
:100CE000F601038D10E00F5F1F4F0F731127F02ED9
:100CF000F601848DF81210C00FB607FCF9CFD601AB
:100D00005096ED91FC915197808185FFF1CFC601FE
:100D1000698385DF6981ECCF838DE80FF11DE35A8C
:100D2000FF4F6083D6015B960C935B975296ED91D3
:100D3000FC915397808180620CC0D6015696ED914C
:100D4000FC91579760835096ED91FC91519780816B
:100D50008064808381E090E00F90DF91CF911F91BC
:100D60000F91FF90DF90CF900895BF92CF92DF92C6
:100D7000EF92FF92CF93DF93EC016A017B01B22ED9
:100D8000E889F98982E08083411581EE5807610581
:100D90007105A1F060E079E08DE390E0A701960194
:100DA0000E94251C2150310941095109569547954A
:100DB00037952795211580E1380798F0E889F9895A
:100DC000108260E874E88EE190E0A70196010E942D
:100DD000251C2150310941095109569547953795F0
:100DE0002795EC85FD853083EE85FF852083188E61
:100DF000EC89FD89B082EA89FB89808180618083EA
:100E0000EA89FB89808188608083EA89FB89808107
:100E100080688083EA89FB8980818F7D8083DF9170
:100E2000CF91FF90EF90DF90CF90BF9008951F92E9
:100E30000F920FB60F9211240BB60F922F938F9330
:100E40009F93EF93FF93E091AE04F091AF04808104
:100E5000E091B404F091B50482FD12C090818091BC
:100E6000B7048F5F8F732091B804821751F0E0911F
:100E7000B704F0E0E256FB4F958F8093B70401C0B2
:100E80008081FF91EF919F918F912F910F900BBED9
:100E90000F900FBE0F901F9018951F920F920FB6D4
:100EA0000F9211240BB60F922F933F934F935F93A2
:100EB0006F937F938F939F93AF93BF93EF93FF9322
:100EC0008EE994E0ACDEFF91EF91BF91AF919F91DD
:100ED0008F917F916F915F914F913F912F910F90E3
:100EE0000BBE0F900FBE0F901F9018958EE994E0E7
:100EF0002DDE21E0892B09F420E0822F0895109245
:100F0000A1041092A00488EE93E0A0E0B0E08093EA
:100F1000A2049093A304A093A404B093A5048CE826
:100F200093E090939F0480939E0485EC90E09093CF
:100F3000AB048093AA0484EC90E09093AD0480937A
:100F4000AC0480EC90E09093AF048093AE0481EC0D
:100F500090E09093B1048093B00482EC90E0909381
:100F6000B3048093B20486EC90E09093B504809330
:100F7000B4041092B7041092B8041092B9041092FD
:100F8000BA040895CF92DF92EF92FF920F931F93CE
:100F9000CF93DF937C016A01EB0100E010E00C15B8
:100FA0001D0571F06991D701ED91FC910190F081DF
:100FB000E02DC7011995892B19F00F5F1F4FEFCF57
:100FC000C801DF91CF911F910F91FF90EF90DF90BB
:100FD000CF9008956115710581F0DB010D9000201F
:100FE000E9F7AD0141505109461B570BDC01ED916A
:100FF000FC910280F381E02D199480E090E0089547
:10100000EF92FF920F931F93CF93DF938C017B019D
:10101000C0E0D0E0F701EC0FFD1F6491662359F0AA
:10102000F801A081B181ED91FC91C8011995892B3E
:1010300011F02196EFCFCE01DF91CF911F910F914B
:10104000FF90EF900895C6CFDC01ED91FC910190E7
:10105000F081E02D199468E973E0BCCF0F931F93E2
:10106000CF93DF93EC01B6DF8C01CE01F4DF800F6C
:10107000911FDF91CF911F910F9108958F929F92B1
:10108000AF92BF92DF92EF92FF920F931F93CF9395
:10109000DF93CDB7DEB7A1970FB6F894DEBF0FBED2
:1010A000CDBF7C01F42FD52ECB0119A2223008F43C
:1010B0002AE08E010F5D1F4F822E912CA12CB12CA6
:1010C0006F2F7D2DA50194010E94251CF22FD32E98
:1010D000CA01015011096A3014F4E0E301C0E7E3EA
:1010E000E60FD801EC93232B242B252B49F7B801CD
:1010F000C70170DFA1960FB6F894DEBF0FBECDBF5B
:10110000DF91CF911F910F91FF90EF90DF90BF90F3
:10111000AF909F908F900895CF92DF92EF92FF92C1
:101120000F931F93CF93DF93EC016A017B0121158D
:10113000310579F4E881F9810190F081E02D642F87
:10114000DF91CF911F910F91FF90EF90DF90CF90A3
:1011500019942A303105D9F477FF18C06DE274DF95
:101160008C0144275527BA014C195D096E097F0986
:101170002AE0CE0183DF800F911FDF91CF911F9175
:101180000F91FF90EF90DF90CF9008952AE0B70184
:10119000A601CE01DF91CF911F910F91FF90EF90AB
:1011A000DF90CF906BCF2115310541F4DC01ED913B
:1011B000FC910190F081E02D642F19945FCF4F9244
:1011C0005F926F927F928F929F92AF92BF92CF92D7
:1011D000DF92EF92FF920F931F93CF93DF93EC0177
:1011E0006A017B01B22E9A01AB01C701B6010E94D0
:1011F000C11E882319F06BE973E027C0260137016F
:10120000E89477F82FEF3FEF4FE75FE7C301B201B4
:101210000E94C11E81110DC02FEF3FEF4FE75FE726
:10122000C301B2010E940B1D18161CF46FE973E094
:101230000CC02FEF3FEF4FE75FE4C701B6010E94FC
:101240005A1E1816A4F463EA73E0CE01DF91CF9121
:101250001F910F91FF90EF90DF90CF90BF90AF90D4
:101260009F908F907F906F905F904F90B3CE2FEFB5
:101270003FEF4FE75FECC701B6010E940B1D87FDF2
:10128000E2CF20E030E0A901C701B6010E940B1DAA
:1012900087FF09C06DE2CE01D7DE8C01F7FAF0942A
:1012A000F7F8F09402C000E010E0A12C60E070E0DC
:1012B00080E09FE3AB1441F020E030E040E251E4F5
:1012C0000E940F1DA394F6CF9B01AC01C701B6018C
:1012D0000E94A71C6B017C010E947C1D2B013C011C
:1012E0000E94A81D9B01AC01C701B6010E94A61C6B
:1012F0006B017C012AE0B301A201CE01BFDE080F21
:10130000191FBB2031F067EA73E0CE0163DE080FDE
:10131000191F7B2C772039F120E030E040E251E4C6
:10132000C701B6010E945E1E6B017C010E94771D01
:101330004B01AA2497FCA094BA2C2AE030E0B50116
:10134000A401CE01E9DE080F191FC501B4010E94F6
:10135000AA1D9B01AC01C701B6010E94A61C6B012E
:101360007C017A94D7CFC801DF91CF911F910F9163
:10137000FF90EF90DF90CF90BF90AF909F908F90B5
:101380007F906F905F904F90089519CF0F931F93A8
:10139000CF93DF93EC0113DF8C01CE015CDE800F75
:1013A000911FDF91CF911F910F91089561157105E4
:1013B0008105910511F00C9439200895CF93DF93A6
:1013C00000D01F92CDB7DEB79B01AC01611571054E
:1013D0008105910569F069833A834B835C830E94A0
:1013E000362029813A814B815C810E94471C03C0D1
:1013F00060E070E0CB010F900F900F900F90DF91A5
:10140000CF9108950895C4D0FDDF3EDAC3EDD5E055
:1014100023DA2097E9F3C7DBFBCF1F920F920FB6B9
:101420000F9211242F933F938F939F93AF93BF936A
:1014300080913C0590913D05A0913E05B0913F05FE
:1014400030913B0523E0230F2D3720F40196A11D99
:10145000B11D05C026E8230F0296A11DB11D2093E2
:101460003B0580933C0590933D05A0933E05B093CA
:101470003F058091400590914105A0914205B091B2
:1014800043050196A11DB11D809340059093410530
:10149000A0934205B0934305BF91AF919F918F9167
:1014A0003F912F910F900FBE0F901F9018952FB75F
:1014B000F89460913C0570913D0580913E059091B6
:1014C0003F052FBF08953FB7F89480914005909154
:1014D0004105A0914205B091430526B5A89B05C0E2
:1014E0002F3F19F00196A11DB11D3FBF6627782F30
:1014F000892F9A2F620F711D811D911D42E0660F89
:10150000771F881F991F4A95D1F708958F929F9250
:10151000AF92BF92CF92DF92EF92FF926B017C016C
:10152000D2DF4B015C01C114D104E104F104E1F00C
:1015300078D1C9DF681979098A099B09683E734027
:101540008105910580F321E0C21AD108E108F10874
:1015500088EE880E83E0981EA11CB11CC114D10432
:10156000E104F10431F7DFCFFF90EF90DF90CF90EF
:10157000BF90AF909F908F9008958230910538F082
:10158000880F991F880F991F05970197F1F7089504
:10159000789484B5826084BD84B5816084BD85B54E
:1015A000826085BD85B5816085BDEEE6F0E0808115
:1015B00081608083E1E8F0E0108280818260808336
:1015C000808181608083E0E8F0E0808181608083B9
:1015D000E1EBF0E0808184608083E0EBF0E08081EB
:1015E00081608083E1E9F0E0808182608083808196
:1015F00081608083E0E9F0E0808181608083E1EABE
:10160000F0E0808182608083808181608083E0EA75
:10161000F0E0808181608083E1E2F1E0808182609E
:101620008083808181608083E0E2F1E0808181605D
:101630008083EAE7F0E0808184608083808182603B
:101640008083808181608083808180688083109224
:10165000C1000895863308F0865320917B00982FAF
:101660009870277F922B90937B00877020910A02BD
:1016700090E4299F90011124822B80937C0080911B
:101680007A00806480937A0080917A0086FDFCCF96
:10169000809178002091790090E0922B089590E05D
:1016A000FC013197E231F10508F04CC0EE58FF4FD4
:1016B0000C94631C809180008F7703C08091800020
:1016C0008F7D80938000089580918000877FF9CF7F
:1016D00084B58F7702C084B58F7D84BD08958091D5
:1016E000B0008F7703C08091B0008F7D8093B000F1
:1016F0000895809190008F7707C0809190008F7D32
:1017000003C080919000877F80939000089580911E
:10171000A0008F7707C08091A0008F7D03C08091CB
:10172000A000877F8093A0000895809120018F778B
:1017300007C0809120018F7D03C080912001877FA9
:10174000809320010895CF93DF9390E0FC01EE5A3F
:10175000FE4F2491FC01E856FE4F8491882349F105
:1017600090E0880F991FFC01EE5EFD4FA591B491AA
:1017700088509E4FFC01C591D4919FB7611108C05C
:10178000F8948C91209582238C93888182230AC0BF
:10179000623051F4F8948C91322F309583238C93DE
:1017A0008881822B888304C0F8948C91822B8C933F
:1017B0009FBFDF91CF9108950F931F93CF93DF9336
:1017C0001F92CDB7DEB7282F30E0F901E45FFE4F5E
:1017D0008491F901EE5AFE4F1491F901E856FE4F3B
:1017E00004910023C1F0882319F0698358DF6981CF
:1017F000E02FF0E0EE0FFF1FE850FE4FA591B491EF
:101800009FB7F8948C91611103C01095812301C09A
:10181000812B8C939FBF0F90DF91CF911F910F91E0
:10182000089508950F931F93CF93DF931F92CDB721
:10183000DEB78C01009719F469836CD469810FB607
:10184000F8940F92F80120813181838D748D879FE8
:10185000C0011124A901480F591F53834283128EDE
:1018600035832483871B9109820F931F9783868377
:101870008FEF858F868F61110AC08085882369F07C
:10188000C8010896D6D3813041F4BED506C0C80140
:10189000089682D4C80141967FD40F900FBE81E094
:1018A0000F90DF91CF911F910F9108950F931F9388
:1018B000CF93DF93082F162F811101C02BD4112352
:1018C00029F0019FC0011124019602C080E090E040
:1018D0004F962CD4EC01009781F0111103C099832D
:1018E000888305C09C01215E3F4F398328830B8F7D
:1018F0001C8F61E0CE0196DF01C00CD4CE01DF91D8
:10190000CF911F910F910895E0917005F0917105AD
:101910008081811103C08FEF9FEF0CC0E0917005B3
:10192000F09171050580F681E02D0680F781E02DAC
:101930008281938190934605809345050895CF93C6
:10194000DF93EC01E091A805F091A90593838283D0
:1019500080914D0590914E056091A8057091A90563
:10196000C817D90748F480916E0590916F056E5F96
:101970007F4FDF91CF9143C48091700590917105A5
:101980006E5F7F4F3CD48091450590914605C81706
:10199000D90720F4D0934605C0934505DF91CF9138
:1019A00008953F924F925F926F927F928F929F9293
:1019B000AF92BF92CF92DF92EF92FF920F931F935D
:1019C000CF93DF934C01162F372E5A013901009720
:1019D00009F4A0D3802F90E004970CF09BD3C1149E
:1019E000D10431F4C501A2D36C01009709F4CCC035
:1019F00089E290E09BD3EC010097A1F0D88ECF8ACA
:101A0000A50165EA70E0C6010E94962021E0A21AB5
:101A1000B1084F88588C4A0C5B1CE12FF32D80E0F5
:101A200090E007C0C6019FD3AFC0019688309105F2
:101A300061F0BF0141919E01280F391FD9015996CC
:101A40004C93DB012C912111F0CF18A2102F043000
:101A500008F013E01E8B19A31AA26E01B2E0CB0EA0
:101A6000D11CC601A7D3CE010C96A4D3D987C887B1
:101A700084E090E0811B91099D878C87DB8BCA8B6A
:101A80001BA21CA21DA21EA218A61FA2A301B40184
:101A9000C20110D499838883E114F10419F0F7018D
:101AA000D183C0830FB6F8940F9280914F058F5F5A
:101AB00080934F058091A8059091A905892B89F500
:101AC000D093A905C093A80580914F05813009F0F6
:101AD00037C084E895E060D38DE895E05DD386E972
:101AE00095E05AD38FE995E057D38BE795E054D32F
:101AF00082E795E051D385E695E04ED38CE595E0FD
:101B00004BD382E595E048D38BE795E09093710540
:101B10008093700582E795E090936F0580936E0542
:101B20000FC080914B0581110BC0E091A805F09189
:101B3000A9058689081720F0D093A905C093A805A8
:101B4000809147058F5F809347058E8990914C0562
:101B5000981710F480934C05F9E08F9FC001112471
:101B6000B6018C579A4F2AD30F900FBE80914B0528
:101B7000882341F0E091A805F091A9058689801796
:101B800008F442D481E001C08FEFDF91CF911F9123
:101B90000F91FF90EF90DF90CF90BF90AF909F900C
:101BA0008F907F906F905F904F903F900895AF928D
:101BB000BF92CF92DF92EF92FF920F93A12CB12CA4
:101BC000C12CD12C80E5E82E85E0F82E00E020E045
:101BD00030E044E650E069EA73E08DE69FE0E1DE44
:101BE0008130B1F4F8948FEF9FEF90934605809386
:101BF000450581E080934B0510924E0510924D05EE
:101C00000F91FF90EF90DF90CF90BF90AF90C4C343
:101C1000811108C00F91FF90EF90DF90CF90BF909F
:101C2000AF9078C20F91FF90EF90DF90CF90BF9070
:101C3000AF900895809144058F5F80934405089587
:101C4000CF92DF92EF92FF920F931F93CF93DF9388
:101C500080914405811196C080914D0590914E056B
:101C6000019690934E0580934D0500914D0510917E
:101C70004E0501151105E9F4E0917005F09171052B
:101C80008081811147D280917005909171052091DA
:101C90006E0530916F053093710520937005909318
:101CA0006F0580936E05809148058F5F809348058E
:101CB0002BDE8091450590914605D12C0817190718
:101CC00008F44AC099E0C92EE0917005F0917105C1
:101CD0008081811107C08FEF9FEF9093460580931D
:101CE00045053AC0E0917005F09171050580F681D7
:101CF000E02DC681D7812A813B810217130728F482
:101D0000309346052093450527C07E0182E0E80E0A
:101D1000F11CC701ACD28C899D89892B19F0CE01A9
:101D20000C96A5D22E8980914C05821710F4209331
:101D30004C05C29EC0011124B7018C579A4F3ED268
:101D4000E091A805F091A9059E898689981708F465
:101D5000BBCFDD24D394B8CFE091A805F091A905BD
:101D6000E68989E0E89FF0011124EC57FA4F808161
:101D7000823010F0DD24D39480914A05811109C08E
:101D8000D4D107C080914A058F5F80934A05CDD199
:101D9000D12C80914905882311F0DD24D3948D2D19
:101DA000DF91CF911F910F91FF90EF90DF90CF9037
:101DB0000895EF92FF920F931F93CF93DF9380913B
:101DC0004405811101C0A6D10FB6F8940F928091FD
:101DD000440581508093440580914405882311F087
:101DE00080E04EC080914F058823D1F329E0F22E88
:101DF000EE24E39480916505882339F1E0916A052A
:101E0000F0916B05C681D781CE010C9630D28E0140
:101E10000E5F1F4FC8012BD28E8990914C059817E9
:101E200010F480934C05F89EC0011124B8018C5722
:101E30009A4FC4D1E091A805F091A9059E898689A1
:101E40009817C0F2E0924905D5CF80914A058111DB
:101E500008C080914905813009F0C2CFD5D281E018
:101E60000FC0C1E080914A05882399F3E9DE811112
:101E7000C093490580914A05815080934A05F2CF6D
:101E80000F900FBEDF91CF911F910F91FF90EF90B8
:101E900008950F931F93CF93DF938C01009711F454
:101EA000B3D216C080914405811134D1C3DEC091F4
:101EB0004D05D0914E05C00FD11F8091A80590917E
:101EC000A9050296D4D1CE013ADD73DF882341F310
:101ED000DF91CF911F910F91089580915B05882329
:101EE00021F1A8DEC0915C0564DFCC23B1F30FB60D
:101EF000F8940F92E0916105F0916205C681D78157
:101F0000CE010296B4D180914F05815080934F0548
:101F100080915B05815080935B050F900FBE8F8988
:101F2000988D21D1CE011FD1D8CF809184058230E8
:101F300008F06AD2F8D0D1CFCF938091440588239E
:101F400021F081E08093490572C010924905E0912B
:101F5000A805F091A9050788F08DE02D8081918179
:101F6000A281B381853A954AA54AB54AD9F48481BC
:101F70009581A681B781853A954AA54AB54A91F4DB
:101F800080859185A285B385853A954AA54AB54A4B
:101F900049F484859585A685B785853A954AA54AED
:101FA000B54A59F06091A8057091A9058091A805DE
:101FB0009091A905675E7F4FB3D0C9E0E0914C05D1
:101FC000CE9FF0011124EC57FA4F808181110BC094
:101FD00080914C05811101C09DD080914C058150AC
:101FE00080934C05EBCFE0914C0589E0E89FF00130
:101FF0001124EC57FA4FA181B28112960D90BC9139
:10200000A02DB283A183CF010396A817B90731F49D
:1020100012968D919C911397928381830180F28116
:10202000E02D868197819093A9058093A805CF9193
:1020300008950F931F93CF93DF93DC011596ED91D5
:10204000FC911697C681D781209709F463D08E0141
:10205000045F1F4FC8010BD180914405811113C04B
:102060000A501109C80103D18E8990914C05981727
:1020700010F480934C05B9E08B9FC0011124B80186
:102080008C579A4F03C0B80185E695E097D0E09150
:10209000A805F091A9059E898689891720F481E019
:1020A0008093490501C080E0DF91CF911F910F918E
:1020B0000895EC01F89461E08DE045DB00E010E06C
:1020C0000C171D07E4F461E08DE076DB80E899EA07
:1020D000A3E0B0E000000197A109B109D9F760E0E1
:1020E0008DE06ADB40E859EA63E070E000004150AF
:1020F000510961097109D1F70F5F1F4FE1CF40E02E
:102100005AE668E170E00000415051096109710927
:10211000D1F7D4CF81E090E0CCDF82E090E0C9DF5E
:1021200083E090E0C6DF0C942C0408950F931F9376
:10213000CF93DF931F921F92CDB7DEB789839A8327
:1021400079DD89819A810E94C51E8C0132DE0115DC
:10215000110509F4E2DFC8010F900F90DF91CF91D4
:102160001F910F910895CF93DF931F921F92CDB7C8
:10217000DEB7009761F089839A835CDD89819A815B
:102180000E945D1F0F900F90DF91CF9112CE0F90A4
:102190000F90DF91CF910895FC0103969283818384
:1021A0002FEF3FEF34832383968385839087878344
:1021B00010820895FC01118610860895CF93DF9355
:1021C0009C01FB01DC011196CD91DC911297D38328
:1021D000C2838C819D81958384838C819D81DC0168
:1021E00013967C936E9312977D836C83318720873F
:1021F000F90180818F5F8083DF91CF9108950F93E4
:102200001F93CF93DF938C01FB01208131812F3FFE
:102210008FEF380721F4E801AF81B8850EC0D801EF
:10222000139612968D919C911397EC0148815981D8
:102230002417350710F0DC01F4CF12968D919C9194
:10224000139793838283EC01FD83EC83B583A4838E
:102250001396FC93EE93129711870087F801808103
:102260008F5F8083DF91CF911F910F910895CF935E
:10227000DF93FC01A085B185828193812481358122
:10228000EC013D832C83C481D5819B838A83119685
:102290008D919C9112978E179F0721F41296DC93D3
:1022A000CE931197118610868C9181508C93DF917B
:1022B000CF91089531E1FC013083319722E22083F0
:1022C0003197A3E3A083319760833197708331976F
:1022D000108231971082319760E8608331971082C5
:1022E0003197108231971082319762E06083319785
:1022F00063E06083319764E06083319765E06083D9
:10230000319766E06083319767E06083319768E0DA
:102310006083319769E06083319760E16083319732
:102320003083319732E13083319733E13083319715
:1023300034E13083319735E13083319736E13083B2
:10234000319737E13083319738E13083319739E184
:102350003083319730E23083319731E230833197E7
:102360002083319723E22083319740833197508334
:10237000319726E22083319727E22083319728E2A4
:102380002083319729E22083319720E320833197FE
:1023900021E320838997089581E087BDEEE6F0E090
:1023A000808182608083A091A805B091A905CD911C
:1023B000CDBFDD91DEBFFF91EF91DF91CF91BF9156
:1023C000AF919F918F917F916F915F914F913F91CD
:1023D0002F911F910F91FF90EF90DF90CF90BF90C2
:1023E000AF909F908F907F906F905F904F903F90B5
:1023F0002F901F900F900CBE0F900BBE0F900FBE32
:102400000F90089581E008950F920FB6F8940F92FF
:102410000BB60F920CB60F921F9211242F923F927F
:102420004F925F926F927F928F929F92AF92BF92E4
:10243000CF92DF92EF92FF920F931F932F933F93D0
:102440004F935F936F937F938F939F93AF93BF93BC
:10245000CF93DF93EF93FF93A091A805B091A905C7
:102460000DB60D920EB60D9267DDA091A805B09144
:10247000A905CD91CDBFDD91DEBFFF91EF91DF9139
:10248000CF91BF91AF919F918F917F916F915F910C
:102490004F913F912F911F910F91FF90EF90DF90FF
:1024A000CF90BF90AF909F908F907F906F905F90F4
:1024B0004F903F902F901F900F900CBE0F900BBE2F
:1024C0000F900FBE0F9008950F920FB6F8940F92D1
:1024D0000BB60F920CB60F921F9211242F923F92BF
:1024E0004F925F926F927F928F929F92AF92BF9224
:1024F000CF92DF92EF92FF920F931F932F933F9310
:102500004F935F936F937F938F939F93AF93BF93FB
:10251000CF93DF93EF93FF93A091A805B091A90506
:102520000DB60D920EB60D928BDB811105DDA091DB
:10253000A805B091A905CD91CDBFDD91DEBFFF917A
:10254000EF91DF91CF91BF91AF919F918F917F914B
:102550006F915F914F913F912F911F910F91FF903C
:10256000EF90DF90CF90BF90AF909F908F907F9033
:102570006F905F904F903F902F901F900F900CBEE8
:102580000F900BBE0F900FBE0F9008959DDF189512
:102590002091EC053091ED0528173907B9F4909199
:1025A000AA058091AB05981789F0E091AA05F0E0A3
:1025B000E455FA4F80812091AA0530E02F5F3F4F0C
:1025C0002F7333272093AA0590E008958FEF9FEF94
:1025D00008951F93CF93DF93DC015C968D919C91BE
:1025E0005D97009749F481E090E013969C938E9359
:1025F000129780E090E03BC05196ED91FC9152978C
:1026000050962C915097322F30951FB75E964C9173
:102610005E9741FB772770F941FD6095F894408102
:10262000772311F0422B01C043234083EC01219713
:10263000F1F748E0508160FF02C0522B01C05323E4
:102640005083EC012197F1F76695415099F780810D
:10265000772311F0832301C0822B80831FBF5C96F8
:102660008D919C915D970197F1F781E090E0DF916A
:10267000CF911F91089508952091EC053091ED05BB
:102680002817390781F49091AA058091AB05981716
:1026900051F0E091AA05F0E0E455FA4F80819927C6
:1026A00087FD909508958FEF9FEF08952091EC0599
:1026B0003091ED052817390769F48091AB05209119
:1026C000AA0590E0805C9F4F821B910960E470E056
:1026D0000C94121C80E090E00895E091EC05F091DC
:1026E000ED05E817F90769F4A389B4899C918589F8
:1026F000809589238C931092ED051092EC0581E072
:10270000089580E00895CF93DF93EC018A8D9B8D2F
:10271000892BE9F08091EC059091ED058C179D07D0
:10272000B1F0009709F0D9DF8E8D8E7F8E8F1092D9
:10273000AB051092AA05D093ED05C093EC05EB898B
:10274000FC8980819D89892B808381E001C080E0A4
:10275000DF91CF9108951F920F920FB60F9211241F
:102760000BB60F922F933F934F935F936F937F938B
:102770008F939F93AF93BF93EF93FF93E091EC05FB
:10278000F091ED05309709F451C0868DA685B78587
:10279000958581FF04C08C91892329F447C08C91D1
:1027A000892309F043C0A389B4899C9185898095C8
:1027B00089238C93868997890197F1F7208D318D34
:1027C000A685B785758558E040E0C9010197F1F706
:1027D000842F90E095958795482F6C91672309F099
:1027E0004068515091F7868D81FD40958091AB05F1
:1027F00090E001968F7399272091AA05281749F038
:10280000A091AB05B0E0A455BA4F4C938093AB05B3
:1028100003C0868D8160868F828D938D0197F1F73D
:10282000A389B4898C919589892B8C93FF91EF9121
:10283000BF91AF919F918F917F916F915F914F91D8
:102840003F912F910F900BBE0F900FBE0F901F90D6
:10285000189522EB33E0FC01318320833ECF1F9398
:10286000CF93DF93EC01162F6E8D6695617081E03A
:102870006827812F0E94DC0B61E0812F0E94A30B4F
:10288000812F90E0FC01EE5AFE4FE491E88BFC01B1
:10289000E856FE4FE491F0E0EE0FFF1FE850FE4FC8
:1028A000859194919A8B898BDF91CF911F91089597
:1028B0001F93CF93DF93EC01162F60E0812F0E94CE
:1028C000A30B8E8D81FD04C061E0812F0E94DC0B83
:1028D0001C87812F90E0FC01EE5AFE4FE491ED87BA
:1028E000FC01E856FE4FE491F0E0EE0FFF1FE252CC
:1028F000FE4F859194919F878E87DF91CF911F9195
:102900000895FF920F931F93CF93DF93EC01F62E60
:10291000522F1B821A8208EE13E020E030E00C8375
:102920001D832E833F8382EB93E0998388831F8AE4
:102930001E8A198E188E1B8E1A8E1D8E1C8E8E8DE1
:102940008E7F50FB81F98E8F642FCE0188DF6F2D33
:10295000CE01DF91CF911F910F91FF90A9CF0F93DF
:102960001F93CF93DF93EC019A01AB011B8E1A8E5C
:10297000198E188E1F8A1E8A60E079E08DE390E040
:1029800086D7C9012430310520F0B901635071099F
:1029900002C061E070E07D8F6C8F1C8506EF010F37
:1029A000043048F06EEC610F643028F062EC610F87
:1029B000683008F07DC0B90176956795643171057E
:1029C00018F06351710902C061E070E07F8B6E8B7B
:1029D000069718F0C901059702C081E090E0998F31
:1029E000888FC901880F991F820F931F969587952D
:1029F000969587958D30910510F00C9702C081E077
:102A000090E09B8F8A8F043060F08EEC810F8430D1
:102A100040F082EC810F883008F050C0A8E6B0E0AA
:102A20004FC0A8E6B0E0E8E6F0E09081043028F07E
:102A30001E53183010F484E001C081E0892B8C9380
:102A40002C8536EF320F343058F08EEC820F843004
:102A500038F082EC820F883030F48DE690E005C0CB
:102A60008BE690E002C080E090E09C8B8B8B343052
:102A700010F426500BC0223379F0233379F024333D
:102A800079F082EC820F883068F4282F81E001C051
:102A9000880F2A95EAF707C088E005C084E003C0E4
:102AA00082E001C081E08D8B8C8D9D8D0197F1F7C7
:102AB000CE01DF91CF911F910F9125CEA0E0B0E024
:102AC000883008F4B0CFE0E0F0E0AFCFFC017583D0
:102AD00064830895CF93DF93EC018C819D810E94E4
:102AE000230868E973E08C819D81DF91CF910C947C
:102AF00023080F931F93CF93DF93EC01EBDF1E822C
:102B000068EC70E080E090E00E94860A00E010E04F
:102B10008C819D81DC01ED91FC910480F581E02D9B
:102B20001995892B81F00F5F1F4F8C819D81DC01EE
:102B3000ED91FC910680F781E02D1995FE01E00FE3
:102B4000F11F8583E5CFFE01E00FF11F16828E8114
:102B5000843589F4CE010B960E944220BC0188275F
:102B600077FD8095982F2A85213069F468517C4F34
:102B70008F4F9F4F08C0CE010896DF91CF911F91D4
:102B80000F910C945F20DF91CF911F910F910895C9
:102B90006BED73E0AEDF80E090E0DAD720E030E06C
:102BA0004AE754E4D3D62DEC3CEC4CEC5DE30C94BA
:102BB0005E1E08956DED73E09CDFCAD72DEC3CECF2
:102BC0004CEC5DE30C945E1E61EE73E092CF8EBD23
:102BD00000000DB407FEFDCF8EB508952CB52F7DF6
:102BE0002CBD2CB5237F2CBD2CB52C7F2CBD2DB539
:102BF0002E7F2DBDFC0181810C94DC0BFC018081BA
:102C00000C94DC0BCF92DF92EF92FF920F931F9305
:102C1000CF93DF931F921F92CDB7DEB78C01E62EC4
:102C2000F22E60E070E049835A83D8DF8E2D8F71D9
:102C3000CEDFE82E4981C42E5A81D52EF40EFC1425
:102C400031F08FEFC4DFF60181936F01F8CF61E0BF
:102C500070E0C801C3DF8E2D0F900F90DF91CF91F0
:102C60001F910F91FF90EF90DF90CF9008951F93E9
:102C7000CF93DF93EC01162F60E070E0AFDF812F80
:102C80008F71A5DF8FEFA3DF182F61E070E0CE0119
:102C9000A5DF812FDF91CF911F910895CF92DF9211
:102CA000EF92FF920F931F93CF93DF931F921F9288
:102CB000CDB7DEB78C01E62EF22E60E070E04983DE
:102CC0005A838CDF8E2D8F71806281DFE82E4981DF
:102CD000C42E5A81D52EF40EFC1429F0F6018191F0
:102CE0006F0175DFF9CF61E070E0C80177DF8E2DED
:102CF0000F900F90DF91CF911F910F91FF90EF9068
:102D0000DF90CF900895EF92FF921F93CF93DF93C0
:102D10001F92CDB7DEB77C01162F60E070E04983CB
:102D20005DDF812F8F71806252DF182F4981842FE0
:102D30004EDF61E070E0C70151DF812F0F90DF911E
:102D4000CF911F91FF90EF900895BF92CF92DF92A5
:102D5000EF92FF920F931F93CF93DF938C01D62EA8
:102D6000B72EFC01C481F42EC41708F4FC2EF80120
:102D70008681811103C0EC2EEF1801C0E12C60E0C8
:102D800070E0C8012BDF80EA22DFC82ECD2DDB2DBD
:102D9000FD0CFC1619F089911ADFFBCFCE2DCC2348
:102DA00021F080E014DFC150FACF61E070E0C8018B
:102DB00015DF8C2DDF91CF911F910F91FF90EF9038
:102DC000DF90CF90BF900895BF92CF92DF92EF92A5
:102DD000FF920F931F93CF93DF938C01D62EB72EC4
:102DE000FC01C481F42EC41708F4FC2EF80186817E
:102DF000811103C0EC2EEF1801C0E12C60E070E0FF
:102E0000C801ECDE81E6E3DEC82ECD2DDB2DFD0C06
:102E1000FC1621F08FEFDBDE8993FACFCE2DCC2389
:102E200021F08FEFD4DEC150FACF61E070E0C8012D
:102E3000D5DE8C2DDF91CF911F910F91FF90EF90F8
:102E4000DF90CF90BF9008951F93CF93DF93EC0155
:102E500060E070E0C3DE82EEBADE182F61E070E061
:102E6000CE01BCDE812FDF91CF911F9108951F937A
:102E7000CF93DF93EC0160E070E0B0DE81EEA7DE7F
:102E8000182F61E070E0CE01A9DE812FDF91CF9194
:102E90001F9108951F93CF93DF93EC0160E070E0E2
:102EA0009DDE8FEF94DE182F61E070E0CE0196DE9C
:102EB000812FDF91CF911F910895862F90E0262FCB
:102EC00021701F922F9395958795877099279F93CF
:102ED0008F9364FB882780F91F928F9365FB882767
:102EE00080F91F928F9366FB882780F91F928F933A
:102EF0001F926F9383E293E09F938F930E9415211B
:102F00008DB79EB70E960FB6F8949EBF0FBE8DBFBD
:102F10000895AF92BF92DF92EF92FF920F931F93AB
:102F2000CF93DF931F921F92CDB7DEB78C01F42EA3
:102F3000E22ECB0169837A830E948D2069817A8198
:102F4000089710F489E001C080E01F928F937F936F
:102F50006F93E1EFF2E0FF93EF930E941521EF0CE6
:102F60000F900F900F900F900F900F9039EEA32EAF
:102F700032E0B32EFE1491F0DD24D394DF0C6F2DDC
:102F8000C80175DE1F928F93BF92AF920E941521E8
:102F90000F900F900F900F90FD2CECCF86EE92E0EB
:102FA0009F938F930E9415210F900F900F900F9079
:102FB000DF91CF911F910F91FF90EF90DF90BF9025
:102FC000AF9008956F927F928F929F92AF92BF922F
:102FD000CF92DF92EF92FF920F931F93CF93DF93E5
:102FE000CDB7DEB727970FB6F894DEBF0FBECDBFC3
:102FF0004C01142F722ECB016E837F830E948D2093
:103000006E817F81089710F489E001C080E01F92F3
:103010008F937F936F93EEEDF2E0FF93EF930E9417
:103020001521710E0F900F900F900F900F900F9031
:10303000CE0101967C014AEDC42E42E0D42E55ED1E
:10304000A52E52E0B52E171521F166246394610E6A
:1030500025E0A701612FC401D5DDDF92CF920E9448
:1030600015218E010A5F1F4F0F900F900E151F053F
:1030700071F0F80182918F011F928F93BF92AF92EE
:103080000E9415210F900F900F900F90EFCF162DEB
:10309000DACF82ED92E09F938F930E9415210F90DB
:1030A0000F9027960FB6F894DEBF0FBECDBFDF910D
:1030B000CF911F910F91FF90EF90DF90CF90BF9035
:1030C000AF909F908F907F906F900895FC016083E8
:1030D000418381E08283138280E284831582168299
:1030E0001086118612861386148615861686178614
:1030F0000895462F603808F04FE765E004CECF937F
:10310000DF93EC0160E0B3DD482F436060E0CE0167
:10311000FADD40E767E0CE01F6DD288539854A858E
:103120005B856C857D858E859F85A0E0E0D339F039
:1031300025E0AE01485F5F4F6AE0CE01AFDDCE0112
:1031400083DECE0194DE61E070E0CE0157DD82E8DF
:1031500090E0DF91CF910C94BD0ACF93DF93EC0107
:1031600060E070E04BDDCE0182DECE01DF91CF91D9
:103170006BCECF93DF93EC0160E079DD482F4D7F7C
:1031800060E0CE01DF91CF91BECDFF920F931F93F0
:10319000CF93DF93EC018B01F42E60E068DD482FC4
:1031A0004C7F426060E0CE01AEDD86E990E00E9497
:1031B000BD0A4F2DB801CE01C8DD61E070E0CE013F
:1031C0001DDD8FE090E00E94BD0A60E070E0CE015E
:1031D000DF91CF911F910F91FF9010CD1F93CF934F
:1031E000DF93EC0160E070E0F9DC80E6F0DC8FEF6B
:1031F000EEDC182F61E070E0CE01F0DC812FDF9172
:10320000CF911F910895EF92FF920F931F93CF9349
:10321000DF93EC018B013EDEF82E86FBEE24E0F816
:1032200086FF14C00115110539F0282F30E03595BF
:1032300027952770F801208340E467E0CE0163DD25
:10324000F5FE04C040E267E0CE015DDD8E2DDF912A
:10325000CF911F910F91FF90EF90089560E070E083
:10326000D2CFCF93DF93EC01AFDD67E1CE01FFDC7E
:103270008170DF91CF910895EF92FF920F931F938A
:10328000CF93DF93EB018A01790140E767E03BDDF3
:1032900085FB992790F9988384FB992790F9F80189
:1032A000908386FB882780F9F7018083DF91CF9197
:1032B0001F910F91FF90EF900895CF92DF92EF92C0
:1032C000FF920F931F93CF93DF9300D01F92CDB740
:1032D000DEB78C017B0160E088E04C830E94DC0B50
:1032E0004C81B701C80151DF0E94570A6B017C0174
:1032F00021E0AE014D5F5F4F68E0C80183DC807361
:1033000059F40E94570A6C197D098E099F09643F80
:1033100071408105910560F398012B5F3F4FAE012D
:103320004F5F5F4FBE016E5F7F4FC801A5DFFA8020
:10333000F8018581882321F0C80150DFF8018783D7
:10334000C80117DFC80193DD61E088E00E94DC0B53
:103350008F2D0F900F900F900F90DF91CF911F91B5
:103360000F91FF90EF90DF90CF900895EF92FF9232
:103370000F931F93CF93DF93CDB7DEB728970FB688
:10338000F894DEBF0FBECDBF7C0109831A832B8367
:103390003C834D835E836F83788725E0AE014F5F6A
:1033A0005F4F6AE07BDC25E0AE014F5F5F4F60E17D
:1033B000C70174DCF7014481413208F040E261E169
:1033C000C701A1DC28960FB6F894DEBF0FBECDBFB3
:1033D000DF91CF911F910F91FF90EF900895BF92D1
:1033E000CF92DF92EF92FF920F931F93CF93DF93D1
:1033F000CDB7DEB728970FB6F894DEBF0FBECDBFAE
:103400006C01B62EE982FA820B831C832D833E83E6
:103410004F83588761110AC0F601E086F186028762
:103420001387248735874687578707C0F6E0F61746
:1034300008F431C081E0681307C0EB2DF0E0EB58D1
:10344000FC4F649125E006C0E62FF0E0EB58FC4FFE
:10345000649121E0AE014F5F5F4FC6011FDC0B2D71
:1034600010E0F801E159FC4F6491F6014481C60176
:103470004ADC62E0C601FBDBF801E759FC4F04912E
:1034800021E030E001C0220F0A95EAF7822B482F95
:1034900062E0C60138DC28960FB6F894DEBF0FBE96
:1034A000CDBFDF91CF911F910F91FF90EF90DF90F3
:1034B000CF90BF9008950F931F93CF93DF938C010C
:1034C000EB0166E0D4DB482F497FC330D10561F0C2
:1034D000C230D10511F4446008C0C130D10511F4E7
:1034E000426003C0249709F4466066E0C801DF919A
:1034F000CF911F910F9107CC66E0B9DB86708630C3
:1035000049F0843049F021E090E0823009F020E079
:10351000822F089583E001C082E090E00895EF9249
:10352000FF920F931F93CF93DF931F92CDB7DEB718
:103530007C018B0166E09BDBF7011282282F277D3F
:103540000230110511F4206207C00130110521F489
:1035500081E0F70182832860422F66E0C70129835A
:10356000D2DB66E0C70183DB2981821721F0F701F6
:10357000128280E001C081E00F90DF91CF911F9116
:103580000F91FF90EF90089566E071DB282F28726D
:10359000203231F081E090E0283021F080E0089581
:1035A00082E090E008950F931F93CF93DF93EC0197
:1035B0008B0160E05CDB482F437F0115110531F082
:1035C0000130110511F4486001C04C6060E0CE018B
:1035D000DF91CF911F910F9196CBCF93DF93EC01A9
:1035E00061E088810E94A30B61E089810E94A30BA6
:1035F00061E088E00E94A30BDFD060E070E0CE01C4
:10360000FDDA61E070E0CE01E9DA65E070E080E0CB
:1036100090E00E94860A4FE464E0CE0174DB63E030
:1036200070E0CE0148DF62E070E0CE0178DF8823F1
:1036300011F081E08B8360E070E0CE0170DF62E02A
:1036400070E0CE01B0DF40E06CE1CE015CDB40E732
:1036500067E0CE0158DB6CE4CE014BDDCE01F4DB3C
:10366000CE0105DC61E088E0DF91CF910C94DC0BAA
:1036700060E0FDDA83FF05C082FF06C082E090E0D3
:10368000089580E090E0089581E090E00895CF9360
:10369000DF93EC01FFDB682FCE010FDC22E04AE074
:1036A00065EC72E0CE018EDC24E04CE068EB72E069
:1036B000CE012FDC21E040E160EB72E0CE0182DC44
:1036C00026E041E165EA72E0CE0123DC21E041E041
:1036D0006FE972E0CE011DDC21E042E065E972E0B5
:1036E000CE0117DC21E045E06FE872E0CE0111DC8D
:1036F00021E046E066E872E0CE010BDC21E040E02C
:103700006FE772E0CE0105DC22E04CE161E772E098
:10371000CE01FFDBCE0138DF880F991F8B529C4F03
:10372000FC01859194919F938F938FE592E09F93F5
:103730008F937BD5EB81F0E0EE0FFF1FE254FC4F3F
:10374000859194919F938F9380E592E09F938F93BF
:103750006CD5CE018DDF880F991F80569C4FFC01E0
:10376000859194919F938F938DE392E09F938F9394
:103770005CD5CE01C1DE880F991F85589C4FFC0196
:10378000859194919F938F938CE292E09F938F9376
:103790004CD58DB79EB740960FB6F8949EBF0FBE1E
:1037A0008DBFDF91CF91089520E1629FB001112478
:1037B0004F70462B64E0A7CACF93CFB7F89480919F
:1037C000EE05811127C0EDECF1E08491E7E8F1E02E
:1037D0009491E82FF0E0EE0FFF1FEE5EFD4FA591F4
:1037E000B4918C91892321F461E085E30E94DC0B84
:1037F00061E085E30E94A30B8CB580618CBD8CB524
:1038000080648CBD61E084E30E94A30B61E083E3EC
:103810000E94A30B8091EE058F5F8093EE05CFBFD2
:10382000CF91089597FB072E16F4009406D077FDEC
:1038300008D069D007FC05D03EF4909581959F4F44
:103840000895709561957F4F0895A1E21A2EAA1BE5
:10385000BB1BFD010DC0AA1FBB1FEE1FFF1FA21740
:10386000B307E407F50720F0A21BB30BE40BF50B3D
:10387000661F771F881F991F1A9469F760957095C6
:10388000809590959B01AC01BD01CF010895052E57
:1038900097FB16F400940FD057FD05D0D6DF07FC38
:1038A00002D046F408C050954095309521953F4F81
:1038B0004F4F5F4F089590958095709561957F4F1C
:1038C0008F4F9F4F0895EE0FFF1F0590F491E02D4D
:1038D00019942DD0A59F900DB49F900DA49F800D9D
:1038E000911D112408950790F691E02D199400245C
:1038F000A7FD00942A1730054005500560057005A6
:10390000800590050895AA1BBB1B51E107C0AA1FA3
:10391000BB1FA617B70710F0A61BB70B881F991F70
:103920005A95A9F780959095BC01CD010895A29F65
:10393000B001B39FC001A39F700D811D1124911D83
:10394000B29F700D811D1124911D08955058BB2701
:10395000AA270ED075C166D130F06BD120F031F4BA
:103960009F3F11F41EF45BC10EF4E095E7FB51C1DB
:10397000E92F77D180F3BA17620773078407950799
:1039800018F071F49EF58FC10EF4E0950B2EBA2F4E
:10399000A02D0B01B90190010C01CA01A001112455
:1039A000FF27591B99F0593F50F4503E68F11A1601
:1039B000F040A22F232F342F4427585FF3CF469592
:1039C00037952795A795F0405395C9F77EF41F16B4
:1039D000BA0B620B730B840BBAF09150A1F0FF0F7E
:1039E000BB1F661F771F881FC2F70EC0BA0F621F6A
:1039F000731F841F48F4879577956795B795F7955A
:103A00009E3F08F0B3CF9395880F08F09927EE0FEB
:103A1000979587950895D9D008F481E008950CD042
:103A20000FC107D140F0FED030F021F45F3F19F014
:103A3000F0C0511139C1F3C014D198F39923C9F3DF
:103A40005523B1F3951B550BBB27AA2762177307A4
:103A5000840738F09F5F5F4F220F331F441FAA1F58
:103A6000A9F333D00E2E3AF0E0E830D09150504018
:103A7000E695001CCAF729D0FE2F27D0660F771FC6
:103A8000881FBB1F261737074807AB07B0E809F0A8
:103A9000BB0B802DBF01FF2793585F4F2AF09E3F3D
:103AA000510568F0B6C000C15F3FECF3983EDCF30F
:103AB000869577956795B795F7959F5FC9F7880FB6
:103AC000911D9695879597F90895E1E0660F771F08
:103AD000881FBB1F621773078407BA0720F0621B99
:103AE000730B840BBA0BEE1F88F7E095089504D092
:103AF0006894B111D9C00895BCD088F09F5790F058
:103B0000B92F9927B751A0F0D1F0660F771F881F02
:103B1000991F1AF0BA95C9F712C0B13081F0C3D01D
:103B2000B1E00895C0C0672F782F8827B85F39F0BB
:103B3000B93FCCF3869577956795B395D9F73EF461
:103B400090958095709561957F4F8F4F9F4F089509
:103B5000E89409C097FB3EF4909580957095619527
:103B60007F4F8F4F9F4F9923A9F0F92F96E9BB27DD
:103B70009395F695879577956795B795F111F8CF59
:103B8000FAF4BB0F11F460FF1BC06F5F7F4F8F4FC4
:103B90009F4F16C0882311F096E911C0772321F0BA
:103BA0009EE8872F762F05C0662371F096E8862F52
:103BB00070E060E02AF09A95660F771F881FDAF7A9
:103BC000880F9695879597F90895990F0008550FD6
:103BD000AA0BE0E8FEEF16161706E807F907C0F093
:103BE00012161306E407F50798F0621B730B840B9B
:103BF000950B39F40A2661F0232B242B252B21F475
:103C000008950A2609F4A140A6958FEF811D811D14
:103C1000089597F99F6780E870E060E008959FEF4E
:103C200080EC089500240A94161617061806090653
:103C3000089500240A941216130614060506089522
:103C4000092E0394000C11F4882352F0BB0F40F4AA
:103C5000BF2B11F460FF04C06F5F7F4F8F4F9F4FEA
:103C6000089557FD9058440F551F59F05F3F71F06C
:103C70004795880F97FB991F61F09F3F79F08795D3
:103C80000895121613061406551FF2CF4695F1DF5C
:103C900008C0161617061806991FF1CF86957105EC
:103CA000610508940895E894BB2766277727CB0120
:103CB00097F908958ADF08F48FEF08950BD0C0CFED
:103CC000B1DF28F0B6DF18F0952309F0A2CFA7CF17
:103CD0001124EACFC6DFA0F3959FD1F3950F50E0F2
:103CE000551F629FF001729FBB27F00DB11D639FAE
:103CF000AA27F00DB11DAA1F649F6627B00DA11D54
:103D0000661F829F2227B00DA11D621F739FB00DF9
:103D1000A11D621F839FA00D611D221F749F332769
:103D2000A00D611D231F849F600D211D822F762F02
:103D30006A2F11249F5750408AF0E1F088234AF0FF
:103D4000EE0FFF1FBB1F661F771F881F915050404B
:103D5000A9F79E3F510570F05CCFA6CF5F3FECF313
:103D6000983EDCF3869577956795B795F795E79537
:103D70009F5FC1F7FE2B880F911D9695879597F948
:103D8000089523DF880B990B0895CF93DF9382303A
:103D9000910510F482E090E0E091F105F091F205D8
:103DA00020E030E0A0E0B0E0309739F1408151816F
:103DB00048175907B8F04817590771F48281938161
:103DC000109729F013969C938E9312972CC0909382
:103DD000F2058093F10527C02115310531F0421716
:103DE000530718F0A901DB0101C0EF019A01BD01E1
:103DF000DF010280F381E02DD7CF21153105F9F0E5
:103E0000281B390B2430310580F48A819B81611590
:103E1000710521F0FB019383828304C09093F20526
:103E20008093F105FE01329644C0FE01E20FF31FBC
:103E30008193919322503109398328833AC020918C
:103E4000EF053091F005232B41F4209102023091CF
:103E500003023093F0052093EF052091000230918A
:103E600001022115310541F42DB73EB740910402FE
:103E700050910502241B350BE091EF05F091F00500
:103E8000E217F307A0F42E1B3F0B2817390778F031
:103E9000AC014E5F5F4F2417350748F04E0F5F1F90
:103EA0005093F0054093EF058193919302C0E0E0B9
:103EB000F0E0CF01DF91CF910895CF93DF9300978A
:103EC00009F487C0FC01329713821282C091F10578
:103ED000D091F205209781F420813181280F391F7C
:103EE0008091EF059091F0058217930779F5F09393
:103EF000F005E093EF056DC0DE0120E030E0AE1785
:103F0000BF0750F412964D915C9113979D01411596
:103F1000510509F1DA01F3CFB383A28340815181C6
:103F2000840F951F8A179B0771F48D919C911197AF
:103F3000840F951F02969183808312968D919C9198
:103F40001397938382832115310529F4F093F205A9
:103F5000E093F1053EC0D9011396FC93EE931297BE
:103F60004D915D91A40FB51FEA17FB0779F480818D
:103F70009181840F951F0296D90111969C938E937F
:103F80008281938113969C938E931297E0E0F0E0E8
:103F90008A819B81009719F0FE01EC01F9CFCE01D7
:103FA000029628813981820F931F2091EF0530916D
:103FB000F0052817390769F4309729F41092F205B3
:103FC0001092F10502C013821282D093F005C093C3
:103FD000EF05DF91CF9108958F929F92AF92BF929C
:103FE000CF92DF92EF92FF92CF93DF93EC01688143
:103FF00079818A819B81611571058105910521F483
:1040000064E279ED8BE597E02DE133EF41E050E09C
:104010003EDC49015A019B01AC01A7EAB1E459DC3D
:104020006B017C01ACEEB4EFA5019401D6D3C60EB2
:10403000D71EE81EF91EF7FE06C081E0C81AD10897
:10404000E10880E8F80AC882D982EA82FB82C701C7
:10405000B6019F77DF91CF91FF90EF90DF90CF90E7
:10406000BF90AF909F908F900895B6CF86E092E07A
:10407000B3CF609306027093070280930802909377
:1040800009020895FC0188279927E894219120329C
:10409000E9F3293010F02E30C8F32B3239F02D32ED
:1040A00031F4689403C05ED0820F911D219120539A
:1040B0002A30C8F31EF4909581959F4F08951F9361
:1040C000FC0199278827BC01E89411911032E9F38B
:1040D000193010F01E30C8F31B3249F01D3241F484
:1040E000689405C02AD0610F711D811D911D119129
:1040F00010531A30B8F33EF4909580957095619501
:104100007F4F8F4F9F4F1F910895911108958156B2
:104110008A5108F4805285580895FC0105900020CA
:10412000E9F7809590958E0F9F1F0895DC0101C0DF
:104130006D9341505040E0F70895592F482F372F85
:10414000262F660F771F881F991F660F771F881FFE
:10415000991F620F731F841F951F660F771F881F9B
:10416000991F08957AE0979F902D879F802D910D3C
:10417000112408950F931F93CF93DF93EC018B01CC
:10418000009731F46115710519F480E090E037C0B3
:104190006EE070E081E090E05ED2FC010097A9F350
:1041A00080E883830115110571F01387028781E888
:1041B00083838091F3059091F405892B21F4F0938A
:1041C000F405E093F3052097C9F0D187C087838178
:1041D000826083838091F5059091F605892B71F4B7
:1041E000F093F605E093F5058091F7059091F805B9
:1041F000892B21F4F093F805E093F705CF01DF91C7
:10420000CF911F910F910895CF93DF93CDB7DEB774
:10421000FE01369661917191AF018091F505909103
:10422000F6052BD0DF91CF9108950F931F93CF9375
:10423000DF93CDB7DEB7FE0138966191719105EF3E
:1042400015E0D8018D919C91DC0113962C91139768
:10425000286013962C93AF0110D0D801ED91FC91FA
:104260002381277F2383DF91CF911F910F910895A1
:104270006091F5057091F6051EC22F923F924F9204
:104280005F926F927F928F929F92AF92BF92CF92E6
:10429000DF92EF92FF920F931F93CF93DF93CDB7EF
:1042A000DEB72C970FB6F894DEBF0FBECDBF7C01F2
:1042B0006B018A01FC0117821682838181FFB0C1E4
:1042C000CE0101964C01F7019381F60193FD859192
:1042D00093FF81916F01882309F49EC1853239F4DF
:1042E00093FD859193FF81916F01853221F4B70190
:1042F00090E0E1D1E8CF512C312C20E02032A0F425
:104300008B3269F030F4803259F0833269F42061E5
:104310002CC08D3239F0803339F4216026C0226000
:10432000246023C0286021C027FD27C030ED380F4E
:104330003A3078F426FF06C0FAE05F9E300D112473
:10434000532E13C08AE0389E300D1124332E206284
:104350000CC08E3221F426FD5FC1206406C08C366D
:1043600011F4206802C0883641F4F60193FD85916E
:1043700093FF81916F018111C1CF982F9F7D95543B
:10438000933028F40C5F1F4FFFE3F9830DC0833691
:1043900031F0833771F0833509F057C021C0F8013F
:1043A000808189830E5F1F4F44244394512C540114
:1043B00014C03801F2E06F0E711CF801A080B180CA
:1043C00026FF03C0652D70E002C06FEF7FEFC501CF
:1043D0002C8766D12C0183012C852F77222E16C0C5
:1043E0003801F2E06F0E711CF801A080B18026FF49
:1043F00003C0652D70E002C06FEF7FEFC5012C8711
:1044000044D12C012C852068222E830123FC19C065
:10441000832D90E048165906A0F4B70180E290E0A1
:104420004AD13A94F5CFF50127FC859127FE819179
:104430005F01B70190E03FD131103A94F1E04F1A9B
:1044400051084114510479F7DEC0843611F08936E1
:1044500031F5F80127FF07C0608171818281938166
:104460000C5F1F4F08C060817181882777FD8095A0
:10447000982F0E5F1F4F2F76B22E97FF09C0909591
:104480008095709561957F4F8F4F9F4F2068B22E1A
:104490002AE030E0A40141D1A82EA81843C08537F6
:1044A00029F42F7EB22E2AE030E025C0F22FF97FCA
:1044B000BF2E8F36C1F018F4883579F0ADC0803743
:1044C00019F0883721F0A8C02F2F2061B22EB4FE3A
:1044D0000DC08B2D8460B82E09C024FF0AC09F2F09
:1044E0009660B92E06C028E030E005C020E130E03B
:1044F00002C020E132E0F801B7FE07C0608171819F
:10450000828193810C5F1F4F06C06081718180E0C2
:1045100090E00E5F1F4FA40100D1A82EA818FB2D1C
:10452000FF77BF2EB6FE0BC02B2D2E7FA51450F4A7
:10453000B4FE0AC0B2FC08C02B2D2E7E05C07A2C1A
:104540002B2D03C07A2C01C0752C24FF0DC0FE0159
:10455000EA0DF11D8081803311F4297E09C022FF0C
:1045600006C07394739404C0822F867809F0739404
:1045700023FD12C020FF06C05A2C731418F4530CEC
:104580005718732C731460F4B70180E290E02C8705
:1045900092D073942C85F6CF731410F4371801C0A1
:1045A000312C24FF11C0B70180E390E02C8783D029
:1045B0002C8522FF16C021FF03C088E590E002C0D1
:1045C00088E790E0B7010CC0822F867851F021FD7A
:1045D00002C080E201C08BE227FD8DE2B70190E0CE
:1045E0006AD0A51430F4B70180E390E064D05A9407
:1045F000F8CFAA94F401EA0DF11D8081B70190E093
:104600005AD0A110F6CF332009F45DCEB70180E275
:1046100090E051D03A94F7CFF7018681978102C09C
:104620008FEF9FEF2C960FB6F894DEBF0FBECDBF75
:10463000DF91CF911F910F91FF90EF90DF90CF907E
:10464000BF90AF909F908F907F906F905F904F90B2
:104650003F902F9008950F931F93CF93DF93869FE2
:104660008001879F100D969F100D1124C8018DDBCE
:10467000EC01009721F0A80160E070E057DDCE0169
:10468000DF91CF911F910F910895FC01059061502A
:1046900070400110D8F7809590958E0F9F1F089558
:1046A000FC016150704001900110D8F78095909501
:1046B0008E0F9F1F08950F931F93CF93DF93182F93
:1046C000092FEB018B8181FD03C08FEF9FEF20C08D
:1046D00082FF10C04E815F812C813D8142175307BC
:1046E0007CF4E881F9819F012F5F3F4F3983288354
:1046F000108306C0E885F985812F1995892B29F744
:104700002E813F812F5F3F4F3F832E83812F902F3C
:10471000DF91CF911F910F910895FA01AA272830B8
:1047200051F1203181F1E8946F936E7F6E5F7F4F7E
:104730008F4F9F4FAF4FB1E03ED0B4E03CD0670FFA
:10474000781F891F9A1FA11D680F791F8A1F911D4D
:10475000A11D6A0F711D811D911DA11D20D009F49D
:1047600068943F912AE0269F11243019305D3193DF
:10477000DEF6CF010895462F4770405D4193B3E0C8
:104780000FD0C9F7F6CF462F4F70405D4A3318F06F
:10479000495D31FD4052419302D0A9F7EACFB4E020
:1047A000A6959795879577956795BA95C9F70097D8
:1047B0006105710508959B01AC010A2E0694579579
:1047C000479537952795BA95C9F7620F731F841FD0
:1047D000951FA01D0895B7FF7CC87BD8821B930B43
:1047E000089513E0C4EFD3E000E005C0229701096B
:1047F000FE010BBF78D8C63FD10780E00807B1F7AC
:04480000F894FFCF5A
:104804000000F905800001000000016E676972690B
:104814006D2070616B65742067616E2000686F7233
:1048240065206B6974612064617065742070616BCC
:104834006574200070616B657420696E692073690A
:10484400682070756E7961207361796120006164FC
:10485400612070616B65742079616E67206469748E
:1048640065727573696E200079616E67206469747E
:10487400616E676B65703A200054454B414E2027AA
:10488400542720554E54554B204D4153554B204BE6
:10489400452053494E4B204D4F44452C2053205521
:1048A4004E54554B204D4153554B204B45205345B9
:1048B4004E534F52204D4F44450A0D0025630A0DB7
:1048C4000053415941204144414C41482053494EF1
:1048D4004B0A0D0053415941204144414C41482069
:1048E400534F555243450A0D004D4153554B4B41CF
:1048F4004E2041444452204E4F444520494E493AAB
:1049040020000A0D414444523A202534780A0D000F
:1049140073656D5F696E697420676167616C0A0D08
:1049240000726F7574696E67006E6F64655F73768D
:10493400630054656D7052656164657200434F3263
:104944005265616465720048756D69646974795271
:104954006561646572005072696E745461736B00B2
:10496400E1AAAAAAAA000000D2AAAAAAAA00000040
:10497400D4AAAAAA00000000D6AAAAAAAA000000E3
:10498400D8AAAAAAAA000000000000005106C20783
:10499400A605BF05B10530060D0A006E616E0069FB
:1049A4006E66006F7666002E0049444C4500000098
:1049B4000000E912C2075613C8123C133B134B20E4
:1049C40025750041202575004D20257500510050A6
:1049D4002025752025750059002A00540048004CF4
:1049E400005A0046202575202575004700550040D3
:1049F40000582025750073006100702025750000A3
:00000001FF
