:10000000FAC1000028C2000026C2000024C200007D
:1000100022C2000020C200001EC200001CC200005C
:100020001AC200000C9434100C9434100C94341048
:1000300012C2000010C200000EC200000CC200007C
:100040000AC2000008C2000006C2000004C200008C
:1000500002C200000C944F0FFEC100000C9438083F
:10006000FAC100004BC500007FC50000F4C10000CC
:10007000F2C10000F0C10000EEC10000ECC10000C0
:10008000EAC10000E8C10000E6C10000E4C10000D0
:10009000E2C10000E0C10000DEC10000DCC10000E0
:1000A000DAC10000D8C10000D6C10000D4C10000F0
:1000B000D2C10000D0C10000CEC10000CCC1000000
:1000C000CAC10000C8C10000C6C10000C4C1000010
:1000D000C2C10000C0C10000BEC10000BCC1000020
:1000E000BAC100009617991788178C179217D01766
:1000F0009D17A117A717AB17AF17B517B917BD17DE
:10010000D017C317C717CB172C002C005041205015
:100110006F77657209203D2025530D0A0043524335
:10012000204C656E67746809203D2025530D0A0038
:100130004D6F64656C0909203D2025530D0A00446C
:10014000617461205261746509203D2025530D0AB8
:100150000044594E50442F464541545552450043A2
:100160004F4E4649470052465F5345545550005242
:10017000465F434800454E5F525841444452004553
:100180004E5F41410052585F50575F50302D36004E
:1001900054585F414444520052585F414444525FB6
:1001A00050322D350052585F414444525F50302D3B
:1001B00031000D0A002530327800203078002553B8
:1001C000092563203D000D0A002030782530327863
:1001D000002553092563203D004F425345525645A3
:1001E0005F54583D253032783A20504F4C535F438E
:1001F0004E543D2578204152435F434E543D25786F
:100200000D0A005354415455530909203D203078BC
:10021000253032782052585F44523D25782054587A
:100220005F44533D2578204D41585F52543D257819
:100230002052585F505F4E4F3D25782054585F46FE
:10024000554C4C3D25780D0A0000010203040511B0
:1002500012131415160A0B0C0D0E0F790272026B95
:1002600002630250415F48494748004C415F4D4599
:10027000440050415F4C4F570050415F4D494E0084
:1002800095028E028602313620626974730038202E
:10029000626974730044697361626C656400AC02E6
:1002A000A2026E524632344C30312B006E5246322E
:1002B000344C303100C902C302BB023235304B42EC
:1002C000505300324D42505300314D4250530000C4
:1002D000000A0B02090C0D0E0807030401000000C0
:1002E000000000000000000000000000000000000E
:1002F00000000000000000000000001211100000CB
:1003000000000000000000000000000000000000ED
:1003100000000000000102102020080810204010FA
:1003200020408002010201080402010102040810B9
:1003300020408080402010080402018004020180D7
:100340004020100804020108040201010204081000
:1003500020408001020408102040800505050507A3
:100360000508080808020202020A0A080804040430
:10037000040101010101010101030303030303035C
:1003800003040707070C0C0C0C0C0C0C0C020202EB
:100390000206060606060606060B0B0B0B0B0B0BDE
:1003A0000B000020002300260029002C002F003223
:1003B00000000100000301060109010000220025E0
:1003C0000028002B002E003100340002010000053F
:1003D0000108010B0100002100240027002A002D44
:1003E000003000330001010000040107010A010090
:1003F000DD03E605F00311241FBECFEFD1E2DEBF1F
:10040000CDBF00E00CBF13E0A0E0B2E0E4E7FFE303
:1004100000E00BBF02C007900D92A236B107D9F7DA
:1004200025E0A2E6B3E001C01D92A332B207E1F7D6
:1004300013E0C4EFD3E000E006C022970109FE01FB
:100440000BBF0E949618C03FD10780E00807A9F7AC
:1004500005D60C94A91FD4CDCF93C82FE091C80323
:10046000F091C9030190F081E02D682F88EC93E0B2
:1004700019958C2F992787FD9095CF910895CF934B
:10048000DF93CDB7DEB7AE970FB6F894DEBF0FBEE1
:10049000CDBF4E012FE2820E911C37E4E32E32E0F5
:1004A000F32E46E1C42E42E0D42E56E0A52E52E0B3
:1004B000B52E8FE793E00E941C158823D1F34EE2FE
:1004C000BE016F5F7F4F8FE793E00E941F15882367
:1004D000B1F3898190E0982F88272A81822B8F3F62
:1004E0009F4719F0BF92AF9202C0DF92CF920E9455
:1004F000C21C0F900F908E010F5F1F4FF80181916A
:100500008F01992787FD90950E94F61C0815190503
:10051000A8F3FF92EF920E94C21C0F900F90C9CFD8
:10052000809179038130E1F780917E038130C1F7BA
:10053000809174038130A1F7409175035091760347
:1005400060917703709178032AE030E088EC93E0C3
:1005500081D46AE071E088EC93E0B9D340917A03EA
:1005600050917B0360917C0370917D0322E030E029
:1005700088EC93E061D568E071E088EC93E0A7D364
:1005800040917003509171036091720370917303F5
:1005900022E030E088EC93E050D510927E03109278
:1005A000790310927403BCCFC1E080917403811170
:1005B000FCCF8FE893E00E945F126093700370930A
:1005C00071038093720390937303C0937403EDCF10
:1005D000C1E0809179038111FCCF8FE893E00E9404
:1005E00069126093750370937603809377039093F9
:1005F0007803C0937903EDCFC1E080917E03811130
:10060000FCCF8FE893E00E944D1260937A037093C1
:100610007B0380937C0390937D03C0937E03EDCF97
:1006200060E070E08CE292E00C94781CCF93DF9352
:100630001F92CDB7DEB740E855E260E070E089EA8E
:1006400093E00E94341126E040E855E260E070E05B
:1006500088EC93E0F1D1E4DF8FE793E00E9461162C
:1006600060E070E08FE793E00E9403164FE06FE0D8
:100670008FE793E00E94441701EE1AEA2AEA3AEA69
:100680004AEA50E060E070E08FE793E00E942A15AC
:1006900015ECC12E12E0D12E71E0F601E080F18060
:1006A000028113812481358146815781F8E0CF0E84
:1006B000D11C672F8FE793E079830E9463157981BE
:1006C0007F5F773051F78FE793E00E94C3148FE785
:1006D00093E00E94B7168FEF9FE790936703809394
:1006E00066038FE78F938FEF8F9389E392E09F9359
:1006F0008F930E94C21CA12CB12CC12CD12C6EE670
:10070000E62E63E0F62E01E020E030E04EE551E019
:100710006AE472E08CEF92E00AD67CE6E72E73E0A2
:10072000F72E20E030E044EF51E065E572E088EE1E
:1007300092E0FDD5EAE6EE2EE3E0FE2E20E030E08A
:1007400048EC50E06FE572E084ED92E0F0D5F8E619
:10075000EF2EF3E0FF2E20E030E040E951E06EE6BE
:1007600072E080E992E0E3D5A4E6EA2EA3E0FA2E57
:1007700020E030E04AEF50E068E772E08FE392E07B
:10078000D6D5B2E6EB2EB3E0FB2E20E030E044E617
:1007900050E065E872E084EF93E0C9D5CED682E9F7
:1007A00092E09F938F930E94C21C0F900F900F9026
:1007B0000F900F900F90FFCF089520E04CE06DE078
:1007C00089EA93E00E94061169EA73E08FE893E0FA
:1007D0000E94EB114AE069E08FE793E00C94AA14C1
:1007E00089EA93E00C94B210C2EAD2E088EC93E07C
:1007F00014D0892B69F0DF93CF930E94C21C0F9015
:100800000F9088EC93E022D00E94431C8335C9F7F7
:1008100082E390E00E940F0CE9CFFC01818D228DD4
:1008200090E0805C9F4F821B91098F7399270895F8
:10083000FC01918D828D981731F0828DE80FF11DAA
:10084000858D90E008958FEF9FEF0895FC01918DC5
:10085000828D981761F0828DDF01A80FB11D5D9622
:100860008C91928D9F5F9F73928F90E008958FEF90
:100870009FEF08958DED95E0892B39F080E090E0B1
:10088000892B19F09AD1811125C080E090E0892B45
:1008900041F080E090E0892B21F00E94000081115E
:1008A0001CC080E090E0892B41F080E090E0892B33
:1008B00021F00E940000811113C080E090E0892B9C
:1008C000A1F080E090E0892B81F00E94000081116E
:1008D0000AC008950E940000D8CF0E940000E1CF16
:1008E0000E940000EACF0C9400000895FC01848D62
:1008F000DF01A80FB11DA35ABF4F2C91848D90E04A
:1009000001968F739927848FA689B7892C93A08924
:10091000B1898C9180648C93938D848D981306C0DB
:100920000288F389E02D80818F7D80830895CF93A5
:10093000DF93EC01888D8823C1F0EA89FB898081EF
:1009400085FD05C0A889B9898C9186FD0EC00FB6BA
:1009500007FCF5CF808185FFF2CFA889B9898C91FA
:1009600085FFEDCFCE01C2DFE8CFDF91CF910895B3
:10097000CF92DF92FF920F931F93CF93DF931F923B
:10098000CDB7DEB76C0181E0D60158968C935897AD
:100990005B969C915B975C968C915C97981307C0D3
:1009A0005096ED91FC915197808185FD2DC0F60107
:1009B000038D10E00F5F1F4F0F731127F02EF6010C
:1009C000848DF81210C00FB607FCF9CFD6015096EF
:1009D000ED91FC915197808185FFF1CFC60169832C
:1009E00085DF6981ECCF838DE80FF11DE35AFF4F5E
:1009F0006083D6015B960C935B975296ED91FC91C8
:100A00005397808180620CC0D6015696ED91FC917F
:100A1000579760835096ED91FC9151978081806447
:100A2000808381E090E00F90DF91CF911F910F9133
:100A3000FF90DF90CF900895BF92CF92DF92EF9218
:100A4000FF92CF93DF93EC016A017B01B22EE8891C
:100A5000F98982E08083411581EE580761057105AF
:100A6000A1F060E079E08DE390E0A70196010E949B
:100A7000521821503109410951095695479537952A
:100A80002795211580E1380798F0E889F9891082C7
:100A900060E874E88EE190E0A70196010E94521888
:100AA00021503109410951095695479537952795A8
:100AB000EC85FD853083EE85FF852083188EEC89DB
:100AC000FD89B082EA89FB89808180618083EA891F
:100AD000FB89808188608083EA89FB8980818068C6
:100AE0008083EA89FB8980818F7D8083DF91CF912C
:100AF000FF90EF90DF90CF90BF9008951F920F92DC
:100B00000FB60F9211240BB60F922F938F939F93D2
:100B1000EF93FF93E091D803F091D9038081E091A6
:100B2000DE03F091DF0382FD12C090818091E1032A
:100B30008F5F8F732091E203821751F0E091E10300
:100B4000F0E0E853FC4F958F8093E10301C0808172
:100B5000FF91EF919F918F912F910F900BBE0F906E
:100B60000FBE0F901F9018951F920F920FB60F9205
:100B700011240BB60F922F933F934F935F936F9374
:100B80007F938F939F93AF93BF93EF93FF9388ECE3
:100B900093E0ACDEFF91EF91BF91AF919F918F9168
:100BA0007F916F915F914F913F912F910F900BBE6D
:100BB0000F900FBE0F901F90189588EC93E02DDEDC
:100BC00021E0892B09F420E0822F08951092CB03B5
:100BD0001092CA0388EE93E0A0E0B0E08093CC03CB
:100BE0009093CD03A093CE03B093CF0381EF92E017
:100BF0009093C9038093C80385EC90E09093D5034C
:100C00008093D40384EC90E09093D7038093D60331
:100C100080EC90E09093D9038093D80381EC90E02E
:100C20009093DB038093DA0382EC90E09093DD03F2
:100C30008093DC0386EC90E09093DF038093DE03E7
:100C40001092E1031092E2031092E3031092E40386
:100C50000895CF92DF92EF92FF920F931F93CF935D
:100C6000DF937C016A01EB0100E010E00C151D052B
:100C700071F06991D701ED91FC910190F081E02D27
:100C8000C7011995892B19F00F5F1F4FEFCFC801CE
:100C9000DF91CF911F910F91FF90EF90DF90CF9058
:100CA00008956115710581F0DB010D900020E9F7D1
:100CB000AD0141505109461B570BDC01ED91FC91F0
:100CC0000280F381E02D199480E090E00895EF9286
:100CD000FF920F931F93CF93DF938C017B01C0E0B2
:100CE000D0E0F701EC0FFD1F6491662359F0F80185
:100CF000A081B181ED91FC91C8011995892B11F06A
:100D00002196EFCFCE01DF91CF911F910F91FF90F0
:100D1000EF900895C6CFDC01ED91FC910190F08138
:100D2000E02D19946DEF72E0BCCF8F929F92AF923D
:100D3000BF92DF92EF92FF920F931F93CF93DF93B7
:100D4000CDB7DEB7A1970FB6F894DEBF0FBECDBF0B
:100D50007C01F42FD52ECB0119A2223008F42AE011
:100D60008E010F5D1F4F822E912CA12CB12C6F2F65
:100D70007D2DA50194010E945218F22FD32ECA0195
:100D8000015011096A3014F4E0E301C0E7E3E60F13
:100D9000D801EC93232B242B252B49F7B801C7014D
:100DA00080DFA1960FB6F894DEBF0FBECDBFDF91F6
:100DB000CF911F910F91FF90EF90DF90BF90AF9078
:100DC0009F908F900895CF92DF92EF92FF920F93B2
:100DD0001F93CF93DF93EC016A017B01211531054D
:100DE00079F4E881F9810190F081E02D642FDF91A1
:100DF000CF911F910F91FF90EF90DF90CF901994BA
:100E00002A303105D9F477FF18C06DE284DF8C01F8
:100E100044275527BA014C195D096E097F092AE05C
:100E2000CE0183DF800F911FDF91CF911F910F9132
:100E3000FF90EF90DF90CF9008952AE0B701A601D0
:100E4000CE01DF91CF911F910F91FF90EF90DF9036
:100E5000CF906BCF2115310541F4DC01ED91FC9170
:100E60000190F081E02D642F19945FCF4F925F9233
:100E70006F927F928F929F92AF92BF92CF92DF92AA
:100E8000EF92FF920F931F93CF93DF93EC016A01D0
:100E90007B01B22E9A01AB01C701B6010E94D51A9F
:100EA000882319F060E073E027C026013701E89439
:100EB00077F82FEF3FEF4FE75FE7C301B2010E94E2
:100EC000D51A81110DC02FEF3FEF4FE75FE7C30148
:100ED000B2010E941F1918161CF464E073E00CC0E4
:100EE0002FEF3FEF4FE75FE4C701B6010E946E1A94
:100EF0001816A4F468E073E0CE01DF91CF911F9142
:100F00000F91FF90EF90DF90CF90BF90AF909F90A8
:100F10008F907F906F905F904F90C3CE2FEF3FEFF9
:100F20004FE75FECC701B6010E941F1987FDE2CFB2
:100F300020E030E0A901C701B6010E941F1987FF18
:100F400009C06DE2CE01E7DE8C01F7FAF094F7F804
:100F5000F09402C000E010E0A12C60E070E080E0BE
:100F60009FE3AB1441F020E030E040E251E40E9406
:100F70002319A394F6CF9B01AC01C701B6010E94CF
:100F8000BB186B017C010E9490192B013C010E944F
:100F9000BC199B01AC01C701B6010E94BA186B01D4
:100FA0007C012AE0B301A201CE01BFDE080F191FA8
:100FB000BB2031F06CE073E0CE0173DE080F191F27
:100FC0007B2C772039F120E030E040E251E4C7018A
:100FD000B6010E94721A6B017C010E948B194B01B1
:100FE000AA2497FCA094BA2C2AE030E0B501A40111
:100FF000CE01E9DE080F191FC501B4010E94BE1918
:101000009B01AC01C701B6010E94BA186B017C01BB
:101010007A94D7CFC801DF91CF911F910F91FF90A4
:10102000EF90DF90CF90BF90AF909F908F907F9088
:101030006F905F904F90089519CF0F931F93CF93A8
:10104000DF93EC0113DF8C01CE016CDE800F911F6A
:10105000DF91CF911F910F9108950895B8D0FDDFD2
:10106000E5DACAE3D4E0A8DB2097E9F303DCFBCFA1
:101070001F920F920FB60F9211242F933F938F93CD
:101080009F93AF93BF938091660490916704A09162
:101090006804B09169043091650423E0230F2D3773
:1010A00020F40196A11DB11D05C026E8230F02966C
:1010B000A11DB11D2093650480936604909367047D
:1010C000A0936804B093690480916A0490916B04C2
:1010D000A0916C04B0916D040196A11DB11D809387
:1010E0006A0490936B04A0936C04B0936D04BF9159
:1010F000AF919F918F913F912F910F900FBE0F90C5
:101100001F9018953FB7F89480916A0490916B04F2
:10111000A0916C04B0916D0426B5A89B05C02F3F2B
:1011200019F00196A11DB11D3FBF6627782F892FA9
:101130009A2F620F711D811D911D42E0660F771F6E
:10114000881F991F4A95D1F708958F929F92AF9269
:10115000BF92CF92DF92EF92FF926B017C01D2DFC0
:101160004B015C01C114D104E104F104E1F091D020
:10117000C9DF681979098A099B09683E73408105AE
:10118000910580F321E0C21AD108E108F10888EE48
:10119000880E83E0981EA11CB11CC114D104E10487
:1011A000F10431F7DFCFFF90EF90DF90CF90BF9049
:1011B000AF909F908F9008958230910538F0880FFE
:1011C000991F880F991F05970197F1F70895789453
:1011D00084B5826084BD84B5816084BD85B582603C
:1011E00085BD85B5816085BDEEE6F0E080818160DA
:1011F0008083E1E8F0E010828081826080838081DA
:1012000081608083E0E8F0E0808181608083E1EBB1
:10121000F0E0808184608083E0EBF0E08081816099
:101220008083E1E9F0E08081826080838081816059
:101230008083E0E9F0E0808181608083E1EAF0E092
:10124000808182608083808181608083E0EAF0E039
:10125000808181608083E1E2F1E08081826080832F
:10126000808181608083E0E2F1E080818160808321
:10127000EAE7F0E0808184608083808182608083FF
:101280008081816080838081806880831092C1002A
:1012900008950895E0919A04F0919B048081811152
:1012A00003C08FEF9FEF0CC0E0919A04F0919B0474
:1012B0000580F681E02D0680F781E02D8281938103
:1012C0009093700480936F040895CF93DF93EC01A3
:1012D000E091D204F091D3049383828380917704C8
:1012E000909178046091D2047091D304C817D90703
:1012F00048F480919804909199046E5F7F4FDF913C
:10130000CF9106C480919A0490919B046E5F7F4FA9
:10131000FFD380916F0490917004C817D90720F40F
:10132000D0937004C0936F04DF91CF9108953F92E2
:101330004F925F926F927F928F929F92AF92BF92E5
:10134000CF92DF92EF92FF920F931F93CF93DF9391
:101350004C01162F372E5A013901009709F463D337
:10136000802F90E004970CF05ED3C114D10431F4C7
:10137000C50165D36C01009709F4CCC089E290E007
:101380005ED3EC010097A1F0D88ECF8AA50165EA63
:1013900070E0C6010E94541C21E0A21AB1084F88D7
:1013A000588C4A0C5B1CE12FF32D80E090E007C0C5
:1013B000C60162D3AFC001968830910561F0BF01CC
:1013C00041919E01280F391FD90159964C93DB0199
:1013D0002C912111F0CF18A2102F043008F013E047
:1013E0001E8B19A31AA26E01B2E0CB0ED11CC6014E
:1013F0006AD3CE010C9667D3D987C88784E090E082
:10140000811B91099D878C87DB8BCA8B1BA21CA239
:101410001DA21EA218A61FA2A301B401C201D3D30C
:1014200099838883E114F10419F0F701D183C08313
:101430000FB6F8940F92809179048F5F80937904AE
:101440008091D2049091D304892B89F5D093D30451
:10145000C093D20480917904813009F037C08EEABC
:1014600094E023D387EB94E020D380EC94E01DD369
:1014700089EC94E01AD385EA94E017D38CE994E0E0
:1014800014D38FE894E011D386E894E00ED38CE770
:1014900094E00BD385EA94E090939B0480939A04A4
:1014A0008CE994E090939904809398040FC0809104
:1014B000750481110BC0E091D204F091D3048689A8
:1014C000081720F0D093D304C093D2048091710404
:1014D0008F5F809371048E8990917604981710F431
:1014E00080937604F9E08F9FC0011124B6018255E4
:1014F0009B4FEDD20F900FBE80917504882341F071
:10150000E091D204F091D3048689801708F405D4C1
:1015100081E001C08FEFDF91CF911F910F91FF907C
:10152000EF90DF90CF90BF90AF909F908F907F9083
:101530006F905F904F903F900895AF92BF92CF927F
:10154000DF92EF92FF920F93A12CB12CC12CD12CE2
:101550008AE7E82E84E0F82E00E020E030E044E660
:1015600050E06EE073E083E39CE0E1DE8130B1F4B3
:10157000F8948FEF9FEF9093700480936F0481E055
:101580008093750410927804109277040F91FF9065
:10159000EF90DF90CF90BF90AF9087C3811108C0CC
:1015A0000F91FF90EF90DF90CF90BF90AF903BC234
:1015B0000F91FF90EF90DF90CF90BF90AF90089584
:1015C00080916E048F5F80936E040895CF92DF92B6
:1015D000EF92FF920F931F93CF93DF9380916E044E
:1015E000811196C080917704909178040196909330
:1015F00078048093770400917704109178040115A2
:101600001105E9F4E0919A04F0919B048081811125
:101610000AD280919A0490919B0420919804309171
:10162000990430939B0420939A0490939904809397
:101630009804809172048F5F809372042BDE8091F6
:101640006F0490917004D12C0817190708F44AC050
:1016500099E0C92EE0919A04F0919B048081811158
:1016600007C08FEF9FEF9093700480936F043AC090
:10167000E0919A04F0919B040580F681E02DC681EB
:10168000D7812A813B810217130728F43093700415
:1016900020936F0427C07E0182E0E80EF11CC70191
:1016A0006FD28C899D89892B19F0CE010C9668D256
:1016B0002E8980917604821710F420937604C29EBE
:1016C000C0011124B70182559B4F01D2E091D20491
:1016D000F091D3049E898689981708F4BBCFDD2446
:1016E000D394B8CFE091D204F091D304E68989E095
:1016F000E89FF0011124E255FB4F8081823010F009
:10170000DD24D39480917404811109C097D107C05E
:10171000809174048F5F8093740490D1D12C809158
:101720007304882311F0DD24D3948D2DDF91CF91A4
:101730001F910F91FF90EF90DF90CF900895EF925F
:10174000FF920F931F93CF93DF9380916E048111CB
:1017500001C069D10FB6F8940F9280916E04815048
:1017600080936E0480916E04882311F080E04EC057
:10177000809179048823D1F329E0F22EEE24E394BA
:1017800080918F04882339F1E0919404F0919504BD
:10179000C681D781CE010C96F3D18E010E5F1F4F0B
:1017A000C801EED18E8990917604981710F4809339
:1017B0007604F89EC0011124B80182559B4F87D151
:1017C000E091D204F091D3049E8986899817C0F2E3
:1017D000E0927304D5CF80917404811108C0809188
:1017E0007304813009F0C2CF98D281E00FC0C1E00C
:1017F00080917404882399F3E9DE8111C093730406
:1018000080917404815080937404F2CF0F900FBEC6
:10181000DF91CF911F910F91FF90EF9008950F935B
:101820001F93CF93DF938C01009711F476D216C0EB
:1018300080916E048111F7D0C3DEC0917704D091FE
:101840007804C00FD11F8091D2049091D3040296E6
:1018500097D1CE013ADD73DF882341F3DF91CF9139
:101860001F910F91089580918504882321F1A8DEAE
:10187000C091860464DFCC23B1F30FB6F8940F92C5
:10188000E0918B04F0918C04C681D781CE01029641
:1018900077D1809179048150809379048091850477
:1018A0008150809385040F900FBE8F89988DE4D06E
:1018B000CE01E2D0D8CF8091AE04823008F02DD294
:1018C000BBD0D1CFCF9380916E04882321F081E0EB
:1018D0008093730472C010927304E091D204F0916B
:1018E000D3040788F08DE02D80819181A281B3819E
:1018F000853A954AA54AB54AD9F484819581A6814D
:10190000B781853A954AA54AB54A91F48085918573
:10191000A285B385853A954AA54AB54A49F4848596
:101920009585A685B785853A954AA54AB54A59F061
:101930006091D2047091D3048091D2049091D30429
:10194000675E7F4F76D0C9E0E0917604CE9FF001CC
:101950001124E255FB4F808181110BC080917604E8
:10196000811101C060D0809176048150809376040B
:10197000EBCFE091760489E0E89FF0011124E25575
:10198000FB4FA181B28112960D90BC91A02DB28324
:10199000A183CF010396A817B90731F412968D9150
:1019A0009C911397928381830180F281E02D86813F
:1019B00097819093D3048093D204CF910895EC0142
:1019C000F89461E08DE00E94D11700E010E00C1760
:1019D0001D07F4F461E08DE00E940A1880E899EA9E
:1019E000A3E0B0E000000197A109B109D9F760E0D8
:1019F0008DE00E940A1840E859EA63E070E00000B8
:101A00004150510961097109D1F70F5F1F4FDFCFB5
:101A100040E05AE668E170E0000041505109610978
:101A20007109D1F7D2CF81E090E0C9DF82E090E088
:101A3000C6DF83E090E0C3DF0C94DC0308950F93CE
:101A40001F93CF93DF931F921F92CDB7DEB7898389
:101A50009A83B6DD89819A810E94D91A8C016FDE42
:101A60000115110509F4E2DFC8010F900F90DF9115
:101A7000CF911F910F910895CF93DF931F921F92E3
:101A8000CDB7DEB7009761F089839A8399DD8981AC
:101A90009A810E94711B0F900F90DF91CF914FCED2
:101AA0000F900F90DF91CF910895FC0103969283E0
:101AB00081832FEF3FEF3483238396838583908741
:101AC000878310820895FC01118610860895CF93B4
:101AD000DF939C01FB01DC011196CD91DC91129703
:101AE000D383C2838C819D81958384838C819D81E6
:101AF000DC0113967C936E9312977D836C83318700
:101B00002087F90180818F5F8083DF91CF910895D5
:101B10000F931F93CF93DF938C01FB0120813181C1
:101B20002F3F8FEF380721F4E801AF81B8850EC051
:101B3000D801139612968D919C911397EC014881D0
:101B400059812417350710F0DC01F4CF12968D91DE
:101B50009C91139793838283EC01FD83EC83B5837F
:101B6000A4831396FC93EE93129711870087F801D4
:101B700080818F5F8083DF91CF911F910F910895B6
:101B8000CF93DF93FC01A085B1858281938124816D
:101B90003581EC013D832C83C481D5819B838A836D
:101BA00011968D919C9112978E179F0721F4129692
:101BB000DC93CE931197118610868C9181508C9373
:101BC000DF91CF91089531E1FC013083319722E21A
:101BD00020833197A3E3A08331976083319770838B
:101BE0003197108231971082319760E86083319786
:101BF00010823197108231971082319762E06083B2
:101C0000319763E06083319764E06083319765E0EA
:101C10006083319766E06083319767E06083319736
:101C200068E06083319769E06083319760E16083A9
:101C300031973083319732E13083319733E130830C
:101C4000319734E13083319735E13083319736E194
:101C50003083319737E13083319738E130833197E2
:101C600039E13083319730E23083319731E230838C
:101C700031972083319723E2208331974083319736
:101C80005083319726E22083319727E220833197D2
:101C900028E22083319729E22083319720E32083B3
:101CA000319721E320838997089581E087BDEEE68F
:101CB000F0E0808182608083A091D204B091D3044F
:101CC000CD91CDBFDD91DEBFFF91EF91DF91CF913F
:101CD000BF91AF919F918F917F916F915F914F9144
:101CE0003F912F911F910F91FF90EF90DF90CF9038
:101CF000BF90AF909F908F907F906F905F904F902C
:101D00003F902F901F900F900CBE0F900BBE0F9026
:101D10000FBE0F90089581E008950F920FB6F894CA
:101D20000F920BB60F920CB60F921F9211242F92A6
:101D30003F924F925F926F927F928F929F92AF925B
:101D4000BF92CF92DF92EF92FF920F931F932F9348
:101D50003F934F935F936F937F938F939F93AF9333
:101D6000BF93CF93DF93EF93FF93A091D204B091F1
:101D7000D3040DB60D920EB60D92A4DDA091D2043F
:101D8000B091D304CD91CDBFDD91DEBFFF91EF9136
:101D9000DF91CF91BF91AF919F918F917F916F9183
:101DA0005F914F913F912F911F910F91FF90EF9075
:101DB000DF90CF90BF90AF909F908F907F906F906B
:101DC0005F904F903F902F901F900F900CBE0F9000
:101DD0000BBE0F900FBE0F9008950F920FB6F894A0
:101DE0000F920BB60F920CB60F921F9211242F92E6
:101DF0003F924F925F926F927F928F929F92AF929B
:101E0000BF92CF92DF92EF92FF920F931F932F9387
:101E10003F934F935F936F937F938F939F93AF9372
:101E2000BF93CF93DF93EF93FF93A091D204B09130
:101E3000D3040DB60D920EB60D92C8DB811142DDB2
:101E4000A091D204B091D304CD91CDBFDD91DEBF7E
:101E5000FF91EF91DF91CF91BF91AF919F918F91C2
:101E60007F916F915F914F913F912F911F910F91B2
:101E7000FF90EF90DF90CF90BF90AF909F908F90AA
:101E80007F906F905F904F903F902F901F900F909A
:101E90000CBE0F900BBE0F900FBE0F9008959DDFEC
:101EA0001895209116053091170528173907B9F4B0
:101EB0009091D4048091D504981789F0E091D404CE
:101EC000F0E0EA52FB4F80812091D40430E02F5F94
:101ED0003F4F2F7333272093D40490E008958FEF62
:101EE0009FEF08951F93CF93DF93DC015C968D9154
:101EF0009C915D97009749F481E090E013969C9344
:101F00008E93129780E090E03BC05196ED91FC914A
:101F1000529750962C915097322F30951FB75E965E
:101F20004C915E9741FB772770F941FD6095F894DD
:101F30004081772311F0422B01C043234083EC0101
:101F40002197F1F748E0508160FF02C0522B01C099
:101F500053235083EC012197F1F76695415099F78F
:101F60008081772311F0832301C0822B80831FBFE0
:101F70005C968D919C915D970197F1F781E090E0DF
:101F8000DF91CF911F91089508952091160530910A
:101F900017052817390781F49091D4048091D5044E
:101FA000981751F0E091D404F0E0EA52FB4F8081A1
:101FB000992787FD909508958FEF9FEF08952091C1
:101FC0001605309117052817390769F48091D50453
:101FD0002091D40490E0805C9F4F821B910960E4C3
:101FE00070E00C943F1880E090E00895E0911605B1
:101FF000F0911705E817F90769F4A389B4899C9152
:102000008589809589238C93109217051092160567
:1020100081E0089580E00895CF93DF93EC018A8DED
:102020009B8D892BE9F080911605909117058C17EF
:102030009D07B1F0009709F0D9DF8E8D8E7F8E8FCE
:102040001092D5041092D404D0931705C0931605AE
:10205000EB89FC8980819D89892B808381E001C087
:1020600080E0DF91CF9108951F920F920FB60F92EB
:1020700011240BB60F922F933F934F935F936F935F
:102080007F938F939F93AF93BF93EF93FF93E091D1
:102090001605F0911705309709F451C0868DA68575
:1020A000B785958581FF04C08C91892329F447C0A9
:1020B0008C91892309F043C0A389B4899C918589B7
:1020C000809589238C93868997890197F1F7208DD4
:1020D000318DA685B785758558E040E0C901019727
:1020E000F1F7842F90E095958795482F6C916723A1
:1020F00009F04068515091F7868D81FD409580919F
:10210000D50490E001968F7399272091D404281765
:1021100049F0A091D504B0E0AA52BB4F4C938093F4
:10212000D50403C0868D8160868F828D938D019743
:10213000F1F7A389B4898C919589892B8C93FF91B0
:10214000EF91BF91AF919F918F917F916F915F912F
:102150004F913F912F910F900BBE0F900FBE0F909C
:102160001F90189527E133E0FC01318320833ECF97
:102170001F93CF93DF93EC01162F6E8D66956170E0
:1021800081E06827812F46D761E0812F0AD7812F10
:1021900090E0FC01EB5EFC4FE491E88BFC01E55A1A
:1021A000FC4FE491F0E0EE0FFF1FE554FC4F8591EA
:1021B00094919A8B898BDF91CF911F9108951F93F2
:1021C000CF93DF93EC01162F60E0812FEAD68E8D3E
:1021D00081FD03C061E0812F1DD71C87812F90E016
:1021E000FC01EB5EFC4FE491ED87FC01E55AFC4FEE
:1021F000E491F0E0EE0FFF1FEF55FC4F85919491B5
:102200009F878E87DF91CF911F910895FF920F9343
:102210001F93CF93DF93EC01F62E522F1B821A826D
:1022200008EE13E020E030E00C831D832E833F8313
:1022300087E193E0998388831F8A1E8A198E188EFE
:102240001B8E1A8E1D8E1C8E8E8D8E7F50FB81F9FB
:102250008E8F642FCE018CDF6F2DCE01DF91CF9159
:102260001F910F91FF90ABCF0F931F93CF93DF93ED
:10227000EC019A01AB011B8E1A8E198E188E1F8AE3
:102280001E8A60E079E08DE390E02ED7C90124300A
:10229000310520F0B9016350710902C061E070E0BE
:1022A0007D8F6C8F1C8506EF010F043048F06EECBB
:1022B000610F643028F062EC610F683008F07DC077
:1022C000B901769567956431710518F0635171090C
:1022D00002C061E070E07F8B6E8B069718F0C90139
:1022E000059702C081E090E0998F888FC901880F1F
:1022F000991F820F931F96958795969587958D3098
:10230000910510F00C9702C081E090E09B8F8A8FBE
:10231000043060F08EEC810F843040F082EC810F4D
:10232000883008F050C0A8E6B0E04FC0A8E6B0E0A2
:10233000E8E6F0E09081043028F01E53183010F4E5
:1023400084E001C081E0892B8C932C8536EF320F1D
:10235000343058F08EEC820F843038F082EC820FEB
:10236000883030F48DE690E005C08BE690E002C046
:1023700080E090E09C8B8B8B343010F426500BC0A7
:10238000223379F0233379F0243379F082EC820F11
:10239000883068F4282F81E001C0880F2A95EAF779
:1023A00007C088E005C084E003C082E001C081E08E
:1023B0008D8B8C8D9D8D0197F1F7CE01DF91CF91A3
:1023C0001F910F9129CEA0E0B0E0883008F4B0CF83
:1023D000E0E0F0E0AFCFFC01758364830895CF9314
:1023E000DF93EC018C819D810E948A066DEF72E083
:1023F0008C819D81DF91CF910C948A060F931F935E
:10240000CF93DF93EC01EBDF1E8268EC70E080E09D
:1024100090E00E94A50800E010E08C819D81DC0125
:10242000ED91FC910480F581E02D1995892B81F0C7
:102430000F5F1F4F8C819D81DC01ED91FC91068027
:10244000F781E02D1995FE01E00FF11F8583E5CF9F
:10245000FE01E00FF11F16828E81843589F4CE01D2
:102460000B960E94001CBC01882777FD8095982F51
:102470002A85213069F468517C4F8F4F9F4F08C0E7
:10248000CE010896DF91CF911F910F910C941D1CE6
:10249000DF91CF911F910F91089560EA72E0AEDF56
:1024A00080E090E069D720E030E04AE754E462D66B
:1024B0002DEC3CEC4CEC5DE30C94721A089560E456
:1024C00073E09CDF59D72DEC3CEC4CEC5DE30C94B5
:1024D000721A64E473E092CF8EBD00000DB407FE63
:1024E000FDCF8EB508952CB52F7D2CBD2CB5237F47
:1024F0002CBD2CB52C7F2CBD2DB52E7F2DBDFC0108
:10250000818188C5FC01808185C5CF92DF92EF92E1
:10251000FF920F931F93CF93DF931F921F92CDB71C
:10252000DEB78C01E62EF22E60E070E049835A831C
:10253000DADF8E2D8F71D0DFE82E4981C42E5A81CB
:10254000D52EF40EFC1431F08FEFC6DFF601819327
:102550006F01F8CF61E070E0C801C5DF8E2D0F90EC
:102560000F90DF91CF911F910F91FF90EF90DF902F
:10257000CF9008951F93CF93DF93EC01162F60E067
:1025800070E0B1DF812F8F71A7DF8FEFA5DF182FEC
:1025900061E070E0CE01A7DF812FDF91CF911F9125
:1025A0000895CF92DF92EF92FF920F931F93CF93F4
:1025B000DF931F921F92CDB7DEB78C01E62EF22E6D
:1025C00060E070E049835A838EDF8E2D8F718062C8
:1025D00083DFE82E4981C42E5A81D52EF40EFC14D7
:1025E00029F0F60181916F0177DFF9CF61E070E0AA
:1025F000C80179DF8E2D0F900F90DF91CF911F9141
:102600000F91FF90EF90DF90CF900895EF92FF929F
:102610001F93CF93DF931F92CDB7DEB77C01162FA8
:1026200060E070E049835FDF812F8F71806254DF4B
:10263000182F4981842F50DF61E070E0C70153DF1C
:10264000812F0F90DF91CF911F91FF90EF90089510
:10265000BF92CF92DF92EF92FF920F931F93CF938F
:10266000DF938C01D62EB72EFC01C481F42EC41743
:1026700008F4FC2EF8018681811103C0EC2EEF18BE
:1026800001C0E12C60E070E0C8012DDF81E624DFAD
:10269000C82ECD2DDB2DFD0CFC1621F08FEF1CDF9D
:1026A0008993FACFCE2DCC2321F08FEF15DFC150C7
:1026B000FACF61E070E0C80116DF8C2DDF91CF9179
:1026C0001F910F91FF90EF90DF90CF90BF900895F2
:1026D0001F93CF93DF93EC0160E070E004DF82EEA4
:1026E000FBDE182F61E070E0CE01FDDE812FDF916F
:1026F000CF911F9108951F93CF93DF93EC0160E07A
:1027000070E0F1DE81EEE8DE182F61E070E0CE01CE
:10271000EADE812FDF91CF911F9108951F93CF9310
:10272000DF93EC0160E070E0DEDE8FEFD5DE182F86
:1027300061E070E0CE01D7DE812FDF91CF911F9154
:102740000895862F90E0262F21701F922F93959544
:102750008795877099279F938F9364FB882780F9CB
:102760001F928F9365FB882780F91F928F9366FBDA
:10277000882780F91F928F931F926F9383E092E0D6
:102780009F938F930E94D31C8DB79EB70E960FB662
:10279000F8949EBF0FBE8DBF0895AF92BF92DF9297
:1027A000EF92FF920F931F93CF93DF931F921F928D
:1027B000CDB7DEB78C01F42EE22ECB0169837A838C
:1027C0000E944B1C69817A81089710F489E001C04E
:1027D00080E01F928F937F936F93E1EDF1E0FF9381
:1027E000EF930E94D31CEF0C0F900F900F900F905F
:1027F0000F900F9039ECA32E31E0B32EFE1491F020
:10280000DD24D394DF0C6F2DC801B4DE1F928F93AB
:10281000BF92AF920E94D31C0F900F900F900F9019
:10282000FD2CECCF86EC91E09F938F930E94D31CFC
:102830000F900F900F900F90DF91CF911F910F91FC
:10284000FF90EF90DF90BF90AF9008956F927F92CE
:102850008F929F92AF92BF92CF92DF92EF92FF92B0
:102860000F931F93CF93DF93CDB7DEB727970FB6A4
:10287000F894DEBF0FBECDBF4C01142F722ECB01DA
:102880006E837F830E944B1C6E817F81089710F4BA
:1028900089E001C080E01F928F937F936F93EEEBEE
:1028A000F1E0FF93EF930E94D31C710E0F900F90F5
:1028B0000F900F900F900F90CE0101967C014AEB84
:1028C000C42E41E0D42E55EBA52E51E0B52E1715A0
:1028D00021F166246394610E25E0A701612FC401F4
:1028E00014DEDF92CF920E94D31C8E010A5F1F4F2D
:1028F0000F900F900E151F0571F0F80182918F0156
:102900001F928F93BF92AF920E94D31C0F900F9093
:102910000F900F90EFCF162DDACF82EB91E09F93BF
:102920008F930E94D31C0F900F9027960FB6F894A8
:10293000DEBF0FBECDBFDF91CF911F910F91FF90F2
:10294000EF90DF90CF90BF90AF909F908F907F904F
:102950006F900895FC016083418381E0828313823C
:1029600080E2848315821682108611861286138671
:1029700014861586168617860895462F603808F047
:102980004FE765E043CECF93DF93EC0160E0F2DDEB
:10299000482F436060E0CE0139DE40E767E0CE01BA
:1029A00035DE288539854A855B856C857D858E85F4
:1029B0009F85A0E0BFD339F025E0AE01485F5F4FAF
:1029C0006AE0CE01EEDDCE0183DECE0194DE61E071
:1029D00070E0CE0197DD82E890E0DF91CF910C941A
:1029E000DC08EF92FF920F931F93CF93DF93EC01DC
:1029F0008B0194DEF82E86FBEE24E0F886FF14C0EF
:102A00000115110539F0282F30E0359527952770ED
:102A1000F801208340E467E0CE01F8DDF5FE04C054
:102A200040E267E0CE01F2DD8E2DDF91CF911F9164
:102A30000F91FF90EF90089560E070E0D2CFCF93B8
:102A4000DF93EC0105DE67E1CE0194DD8170DF915B
:102A5000CF910895EF92FF920F931F93CF93DF933F
:102A6000CDB7DEB728970FB6F894DEBF0FBECDBF47
:102A70007C0109831A832B833C834D835E836F83A0
:102A8000788725E0AE014F5F5F4F6AE08ADD25E081
:102A9000AE014F5F5F4F60E1C70183DDF701448105
:102AA000413208F040E261E1C701B0DD28960FB67F
:102AB000F894DEBF0FBECDBFDF91CF911F910F9174
:102AC000FF90EF900895BF92CF92DF92EF92FF9226
:102AD0000F931F93CF93DF93CDB7DEB728970FB631
:102AE000F894DEBF0FBECDBF6C01B62EE982FA822C
:102AF0000B831C832D833E834F83588761110AC04B
:102B0000F601E086F186028713872487358746879A
:102B1000578707C0F6E0F61708F431C081E0681364
:102B200007C0EB2DF0E0EB5AFD4F649125E006C0A5
:102B3000E62FF0E0EB5AFD4F649121E0AE014F5FCC
:102B40005F4FC6012EDD0B2D10E0F801E15BFD4F5C
:102B50006491F6014481C60159DD62E0C6010ADDD7
:102B6000F801E75BFD4F049121E030E001C0220F46
:102B70000A95EAF7822B482F62E0C60147DD2896C6
:102B80000FB6F894DEBF0FBECDBFDF91CF911F917E
:102B90000F91FF90EF90DF90CF90BF9008950F932B
:102BA0001F93CF93DF938C01EB0166E0E3DC482FAA
:102BB000497FC330D10561F0C230D10511F44460C2
:102BC00008C0C130D10511F4426003C0249709F454
:102BD000466066E0C801DF91CF911F910F9116CD3D
:102BE00066E0C8DC8670863049F0843049F021E028
:102BF00090E0823009F020E0822F089583E001C048
:102C000082E090E00895EF92FF920F931F93CF938D
:102C1000DF931F92CDB7DEB77C018B0166E0AADCA3
:102C2000F7011282282F277D0230110511F420624E
:102C300007C00130110521F481E0F701828328608B
:102C4000422F66E0C7012983E1DC66E0C70192DC20
:102C50002981821721F0F701128280E001C081E012
:102C60000F90DF91CF911F910F91FF90EF900895FA
:102C700066E080DC282F2872203231F081E090E07D
:102C8000283021F080E0089582E090E008950F93CD
:102C90001F93CF93DF93EC018B0160E06BDC482F37
:102CA000437F0115110531F00130110511F4486021
:102CB00001C04C6060E0CE01DF91CF911F910F9178
:102CC000A5CCCF93DF93EC0161E088816AD161E00C
:102CD000898167D161E088E064D1DED060E070E096
:102CE000CE0110DC61E070E0CE01FDDB65E070E05C
:102CF00080E090E00E94A5084FE464E0CE0186DC0D
:102D000063E070E0CE014BDF62E070E0CE017BDF7C
:102D1000882311F081E08B8360E070E0CE0173DFE7
:102D200062E070E0CE01B3DF40E06CE1CE016EDC2A
:102D300040E767E0CE016ADC6CE4CE011EDECE0126
:102D4000C7DCCE01D8DC61E088E0DF91CF9162C1C1
:102D500060E010DC83FF05C082FF06C082E090E0E7
:102D6000089580E090E0089581E090E00895CF9389
:102D7000DF93EC01D3DC682FCE01E3DC22E04AE0F4
:102D800065EA71E0CE0162DD24E04CE068E971E0C3
:102D9000CE0103DD21E040E160E971E0CE0156DDC6
:102DA00026E041E165E871E0CE01F7DC21E041E099
:102DB0006FE771E0CE01F1DC21E042E065E771E010
:102DC000CE01EBDC21E045E06FE671E0CE01E5DC11
:102DD00021E046E066E671E0CE01DFDC21E040E084
:102DE0006FE571E0CE01D9DC22E04CE161E571E0F4
:102DF000CE01D3DCCE013CDF880F991F8B549D4F51
:102E0000FC01859194919F938F938FE391E09F9321
:102E10008F93C9D5EB81F0E0EE0FFF1FE256FD4F17
:102E2000859194919F938F9380E391E09F938F93EB
:102E3000BAD5CE018DDF880F991F80589D4FFC01B8
:102E4000859194919F938F938DE191E09F938F93C0
:102E5000AAD5CE01C5DE880F991F855A9D4FFC016A
:102E6000859194919F938F938CE091E09F938F93A2
:102E70009AD58DB79EB740960FB6F8949EBF0FBEF9
:102E80008DBFDF91CF91089520E1629FB0011124A1
:102E90004F70462B64E0BACBCF93CFB7F8948091B4
:102EA0001805811123C0E0E9F3E08491EAE4F3E03E
:102EB0009491E82FF0E0EE0FFF1FEB52FC4FA5912D
:102EC000B4918C91892319F461E085E3A3D061E08A
:102ED00085E367D08CB580618CBD8CB580648CBD7A
:102EE00061E084E35ED061E083E35BD0809118050C
:102EF0008F5F80931805CFBFCF91089590E0FC01BC
:102F00003197E231F10508F04BC0EE58FF4F08C190
:102F1000809180008F7703C0809180008F7D8093A7
:102F20008000089580918000877FF9CF84B58F77E6
:102F300002C084B58F7D84BD08958091B0008F77E5
:102F400003C08091B0008F7D8093B0000895809180
:102F500090008F7707C0809190008F7D03C0809193
:102F60009000877F8093900008958091A0008F77D4
:102F700007C08091A0008F7D03C08091A000877F53
:102F80008093A0000895809120018F7707C08091E1
:102F900020018F7D03C080912001877F80932001D5
:102FA0000895CF93DF9390E0FC01EB5EFC4F2491FA
:102FB000FC01E55AFC4F8491882349F190E0880F89
:102FC000991FFC01EB52FC4FA591B49185549C4F85
:102FD000FC01C591D4919FB7611108C0F8948C9100
:102FE000209582238C93888182230AC0623051F419
:102FF000F8948C91322F309583238C938881822B87
:10300000888304C0F8948C91822B8C939FBFDF91AE
:10301000CF9108950F931F93CF93DF931F92CDB756
:10302000DEB7282F30E0F901E153FD4F8491F9011B
:10303000EB5EFC4F1491F901E55AFC4F049100231B
:10304000C1F0882319F0698359DF6981E02FF0E02E
:10305000EE0FFF1FE554FC4FA591B4919FB7F89474
:103060008C91611103C01095812301C0812B8C9339
:103070009FBF0F90DF91CF911F910F91089597FB04
:10308000072E16F4009406D077FD08D05FD007FC19
:1030900005D03EF4909581959F4F08957095619568
:1030A0007F4F0895A1E21A2EAA1BBB1BFD010DC084
:1030B000AA1FBB1FEE1FFF1FA217B307E407F507E8
:1030C00020F0A21BB30BE40BF50B661F771F881FC4
:1030D000991F1A9469F760957095809590959B015A
:1030E000AC01BD01CF010895052E97FB16F40094A5
:1030F0000FD057FD05D0D6DF07FC02D046F408C03C
:1031000050954095309521953F4F4F4F5F4F089513
:1031100090958095709561957F4F8F4F9F4F089543
:10312000EE0FFF1F0590F491E02D19940790F69192
:10313000E02D19940024A7FD00942A1730054005BE
:10314000500560057005800590050895AA1BBB1BFE
:1031500051E107C0AA1FBB1FA617B70710F0A61B97
:10316000B70B881F991F5A95A9F780959095BC01B8
:10317000CD0108955058BB27AA270ED075C166D13E
:1031800030F06BD120F031F49F3F11F41EF45BC19D
:103190000EF4E095E7FB51C1E92F77D180F3BA1720
:1031A000620773078407950718F071F49EF58FC1C5
:1031B0000EF4E0950B2EBA2FA02D0B01B901900152
:1031C0000C01CA01A0011124FF27591B99F0593F96
:1031D00050F4503E68F11A16F040A22F232F342FDE
:1031E0004427585FF3CF469537952795A795F0402C
:1031F0005395C9F77EF41F16BA0B620B730B840B41
:10320000BAF09150A1F0FF0FBB1F661F771F881FF8
:10321000C2F70EC0BA0F621F731F841F48F4879550
:1032200077956795B795F7959E3F08F0B3CF93953F
:10323000880F08F09927EE0F979587950895D9D0B4
:1032400008F481E008950CD00FC107D140F0FED002
:1032500030F021F45F3F19F0F0C0511139C1F3C0D3
:1032600014D198F39923C9F35523B1F3951B550B4A
:10327000BB27AA2762177307840738F09F5F5F4F49
:10328000220F331F441FAA1FA9F333D00E2E3AF08A
:10329000E0E830D091505040E695001CCAF729D0A4
:1032A000FE2F27D0660F771F881FBB1F26173707F3
:1032B0004807AB07B0E809F0BB0B802DBF01FF2723
:1032C00093585F4F2AF09E3F510568F0B6C000C189
:1032D0005F3FECF3983EDCF3869577956795B7955D
:1032E000F7959F5FC9F7880F911D9695879597F978
:1032F0000895E1E0660F771F881FBB1F62177307F1
:103300008407BA0720F0621B730B840BBA0BEE1F05
:1033100088F7E095089504D06894B111D9C0089554
:10332000BCD088F09F5790F0B92F9927B751A0F0E3
:10333000D1F0660F771F881F991F1AF0BA95C9F749
:1033400012C0B13081F0C3D0B1E00895C0C0672F82
:10335000782F8827B85F39F0B93FCCF386957795F9
:103360006795B395D9F73EF49095809570956195E2
:103370007F4F8F4F9F4F0895E89409C097FB3EF40D
:1033800090958095709561957F4F8F4F9F4F9923B2
:10339000A9F0F92F96E9BB279395F6958795779530
:1033A0006795B795F111F8CFFAF4BB0F11F460FFF0
:1033B0001BC06F5F7F4F8F4F9F4F16C0882311F048
:1033C00096E911C0772321F09EE8872F762F05C05C
:1033D000662371F096E8862F70E060E02AF09A95F7
:1033E000660F771F881FDAF7880F9695879597F9EC
:1033F0000895990F0008550FAA0BE0E8FEEF161686
:103400001706E807F907C0F012161306E407F507D8
:1034100098F0621B730B840B950B39F40A2661F04C
:10342000232B242B252B21F408950A2609F4A140EF
:10343000A6958FEF811D811D089597F99F6780E8FC
:1034400070E060E008959FEF80EC089500240A94F6
:103450001616170618060906089500240A9412166F
:103460001306140605060895092E0394000C11F4A2
:10347000882352F0BB0F40F4BF2B11F460FF04C04F
:103480006F5F7F4F8F4F9F4F089557FD9058440FA8
:10349000551F59F05F3F71F04795880F97FB991FB3
:1034A00061F09F3F79F08795089512161306140670
:1034B000551FF2CF4695F1DF08C0161617061806FD
:1034C000991FF1CF86957105610508940895E894D8
:1034D000BB2766277727CB0197F908958ADF08F481
:1034E0008FEF08950BD0C0CFB1DF28F0B6DF18F012
:1034F000952309F0A2CFA7CF1124EACFC6DFA0F30E
:10350000959FD1F3950F50E0551F629FF001729F78
:10351000BB27F00DB11D639FAA27F00DB11DAA1F97
:10352000649F6627B00DA11D661F829F2227B00DE4
:10353000A11D621F739FB00DA11D621F839FA00D6F
:10354000611D221F749F3327A00D611D231F849FBF
:10355000600D211D822F762F6A2F11249F57504016
:103560008AF0E1F088234AF0EE0FFF1FBB1F661FB1
:10357000771F881F91505040A9F79E3F510570F06A
:103580005CCFA6CF5F3FECF3983EDCF38695779552
:103590006795B795F795E7959F5FC1F7FE2B880F65
:1035A000911D9695879597F9089523DF880B990BC0
:1035B0000895CF93DF938230910510F482E090E07C
:1035C000E0911B05F0911C0520E030E0A0E0B0E0A8
:1035D000309739F14081518148175907B8F04817A1
:1035E000590771F482819381109729F013969C9367
:1035F0008E9312972CC090931C0580931B0527C0B7
:103600002115310531F04217530718F0A901DB01EC
:1036100001C0EF019A01BD01DF010280F381E02DBD
:10362000D7CF21153105F9F0281B390B243031058E
:1036300080F48A819B816115710521F0FB019383E0
:10364000828304C090931C0580931B05FE01329673
:1036500044C0FE01E20FF31F819391932250310980
:10366000398328833AC02091190530911A05232BFC
:1036700041F4209102023091030230931A05209305
:10368000190520910002309101022115310541F404
:103690002DB73EB74091040250910502241B350B13
:1036A000E0911905F0911A05E217F307A0F42E1B1B
:1036B0003F0B2817390778F0AC014E5F5F4F241796
:1036C000350748F04E0F5F1F50931A0540931905B8
:1036D0008193919302C0E0E0F0E0CF01DF91CF91C0
:1036E0000895CF93DF93009709F487C0FC013297C8
:1036F00013821282C0911B05D0911C05209781F482
:1037000020813181280F391F8091190590911A0568
:103710008217930779F5F0931A05E09319056DC0A8
:10372000DE0120E030E0AE17BF0750F412964D9155
:103730005C9113979D014115510509F1DA01F3CF11
:10374000B383A28340815181840F951F8A179B0701
:1037500071F48D919C911197840F951F029691831E
:10376000808312968D919C91139793838283211568
:10377000310529F4F0931C05E0931B053EC0D901E7
:103780001396FC93EE9312974D915D91A40FB51F84
:10379000EA17FB0779F480819181840F951F0296C7
:1037A000D90111969C938E938281938113969C9359
:1037B0008E931297E0E0F0E08A819B81009719F0E8
:1037C000FE01EC01F9CFCE01029628813981820FEA
:1037D000931F2091190530911A052817390769F4AC
:1037E000309729F410921C0510921B0502C0138219
:1037F0001282D0931A05C0931905DF91CF910895D5
:10380000FC0188279927E89421912032E9F3293097
:1038100010F02E30C8F32B3239F02D3231F4689489
:1038200003C05ED0820F911D219120532A30C8F32E
:103830001EF4909581959F4F08951F93FC01992741
:103840008827BC01E89411911032E9F3193010F087
:103850001E30C8F31B3249F01D3241F4689405C094
:103860002AD0610F711D811D911D119110531A30C5
:10387000B8F33EF490958095709561957F4F8F4F8A
:103880009F4F1F9108959111089581568A5108F410
:10389000805285580895FC0105900020E9F7809535
:1038A00090958E0F9F1F0895DC0101C06D934150CC
:1038B0005040E0F70895592F482F372F262F660FD5
:1038C000771F881F991F660F771F881F991F620F28
:1038D000731F841F951F660F771F881F991F0895F8
:1038E0007AE0979F902D879F802D910D1124089548
:1038F0000F931F93CF93DF93EC018B01009731F46B
:103900006115710519F480E090E037C06EE070E059
:1039100081E090E05ED2FC010097A9F380E8838308
:103920000115110571F01387028781E88383809167
:103930001D0590911E05892B21F4F0931E05E0933F
:103940001D052097C9F0D187C0878381826083835A
:1039500080911F0590912005892B71F4F09320052B
:10396000E0931F058091210590912205892B21F478
:10397000F0932205E0932105CF01DF91CF911F91B4
:103980000F910895CF93DF93CDB7DEB7FE01369642
:1039900061917191AF0180911F05909120052BD00D
:1039A000DF91CF9108950F931F93CF93DF93CDB7FE
:1039B000DEB7FE013896619171910FE115E0D801F3
:1039C0008D919C91DC0113962C911397286013968E
:1039D0002C93AF0110D0D801ED91FC912381277F6A
:1039E0002383DF91CF911F910F91089560911F055F
:1039F000709120051EC22F923F924F925F926F925C
:103A00007F928F929F92AF92BF92CF92DF92EF926E
:103A1000FF920F931F93CF93DF93CDB7DEB72C9711
:103A20000FB6F894DEBF0FBECDBF7C016B018A01DB
:103A3000FC0117821682838181FFB0C1CE010196FD
:103A40004C01F7019381F60193FD859193FF8191DC
:103A50006F01882309F49EC1853239F493FD859165
:103A600093FF81916F01853221F4B70190E0E1D19C
:103A7000E8CF512C312C20E02032A0F48B3269F0B9
:103A800030F4803259F0833269F420612CC08D32D9
:103A900039F0803339F4216026C02260246023C0CD
:103AA000286021C027FD27C030ED380F3A3078F468
:103AB00026FF06C0FAE05F9E300D1124532E13C07E
:103AC0008AE0389E300D1124332E20620CC08E32D5
:103AD00021F426FD5FC1206406C08C3611F42068F5
:103AE00002C0883641F4F60193FD859193FF8191E0
:103AF0006F018111C1CF982F9F7D9554933028F489
:103B00000C5F1F4FFFE3F9830DC0833631F083371D
:103B100071F0833509F057C021C0F8018081898395
:103B20000E5F1F4F44244394512C540114C038019C
:103B3000F2E06F0E711CF801A080B18026FF03C077
:103B4000652D70E002C06FEF7FEFC5012C8766D155
:103B50002C0183012C852F77222E16C03801F2E02C
:103B60006F0E711CF801A080B18026FF03C0652D87
:103B700070E002C06FEF7FEFC5012C8744D12C01AC
:103B80002C852068222E830123FC19C0832D90E010
:103B900048165906A0F4B70180E290E04AD13A9461
:103BA000F5CFF50127FC859127FE81915F01B701D3
:103BB00090E03FD131103A94F1E04F1A510841148E
:103BC000510479F7DEC0843611F0893631F5F801F9
:103BD00027FF07C060817181828193810C5F1F4F35
:103BE00008C060817181882777FD8095982F0E5FCE
:103BF0001F4F2F76B22E97FF09C090958095709534
:103C000061957F4F8F4F9F4F2068B22E2AE030E0A2
:103C1000A40141D1A82EA81843C0853729F42F7ECE
:103C2000B22E2AE030E025C0F22FF97FBF2E8F366A
:103C3000C1F018F4883579F0ADC0803719F08837B5
:103C400021F0A8C02F2F2061B22EB4FE0DC08B2D05
:103C50008460B82E09C024FF0AC09F2F9660B92E39
:103C600006C028E030E005C020E130E002C020E1DD
:103C700032E0F801B7FE07C06081718182819381D3
:103C80000C5F1F4F06C06081718180E090E00E5F85
:103C90001F4FA40100D1A82EA818FB2DFF77BF2E1F
:103CA000B6FE0BC02B2D2E7FA51450F4B4FE0AC017
:103CB000B2FC08C02B2D2E7E05C07A2C2B2D03C004
:103CC0007A2C01C0752C24FF0DC0FE01EA0DF11DF8
:103CD0008081803311F4297E09C022FF06C07394CD
:103CE000739404C0822F867809F0739423FD12C068
:103CF00020FF06C05A2C731418F4530C5718732C59
:103D0000731460F4B70180E290E02C8792D0739432
:103D10002C85F6CF731410F4371801C0312C24FF12
:103D200011C0B70180E390E02C8783D02C8522FF5F
:103D300016C021FF03C088E590E002C088E790E04C
:103D4000B7010CC0822F867851F021FD02C080E2BD
:103D500001C08BE227FD8DE2B70190E06AD0A51487
:103D600030F4B70180E390E064D05A94F8CFAA947D
:103D7000F401EA0DF11D8081B70190E05AD0A11045
:103D8000F6CF332009F45DCEB70180E290E051D048
:103D90003A94F7CFF7018681978102C08FEF9FEFAA
:103DA0002C960FB6F894DEBF0FBECDBFDF91CF913A
:103DB0001F910F91FF90EF90DF90CF90BF90AF9049
:103DC0009F908F907F906F905F904F903F902F903B
:103DD00008950F931F93CF93DF93869F8001879F52
:103DE000100D969F100D1124C801E3DBEC01009724
:103DF00021F0A80160E070E057DDCE01DF91CF91A6
:103E00001F910F910895FC010590615070400110C1
:103E1000D8F7809590958E0F9F1F0895FC016150F3
:103E2000704001900110D8F7809590958E0F9F1FDC
:103E300008950F931F93CF93DF93182F092FEB0152
:103E40008B8181FD03C08FEF9FEF20C082FF10C0E8
:103E50004E815F812C813D81421753077CF4E881BC
:103E6000F9819F012F5F3F4F39832883108306C05C
:103E7000E885F985812F1995892B29F72E813F81B6
:103E80002F5F3F4F3F832E83812F902FDF91CF9164
:103E90001F910F910895FA01AA27283051F120317E
:103EA00081F1E8946F936E7F6E5F7F4F8F4F9F4FCE
:103EB000AF4FB1E03ED0B4E03CD0670F781F891F10
:103EC0009A1FA11D680F791F8A1F911DA11D6A0FDE
:103ED000711D811D911DA11D20D009F468943F9191
:103EE0002AE0269F11243019305D3193DEF6CF0190
:103EF0000895462F4770405D4193B3E00FD0C9F756
:103F0000F6CF462F4F70405D4A3318F0495D31FDC2
:103F10004052419302D0A9F7EACFB4E0A695979515
:103F2000879577956795BA95C9F7009761057105EB
:103F300008959B01AC010A2E069457954795379535
:103F40002795BA95C9F7620F731F841F951FA01D8F
:103F5000089513E0C4EFD3E000E005C02297010903
:103F6000FE010BBFE3D8C63FD10780E00807B1F7D9
:043F7000F894FFCFF3
:103F740000002305800062756B616E2062756174B8
:103F84002073696E6B0079616E6720646974616E79
:103F9400676B65703A20006E676972696D207061A5
:103FA4006B65742067616E20004144445220534184
:103FB40059413A202534780A0D0054656D705265D4
:103FC4006164657200434F325265616465720048F2
:103FD400756D6964697479526561646572005072C3
:103FE400696E745461736B005461736B20726F75E6
:103FF40074696E67005461736B20736572766963CC
:1040040065005343484544554C455220535441524E
:10401400540054454B414E205320554E54554B208B
:104024004D454C414B554B414E2050454E47415414
:104034005552414E00E1AAAAAAAA000000D2AAAA97
:10404400AAAA000000D4AAAAAA00000000D6AAAA1C
:10405400AAAA000000D8AAAAAAAA00000000000088
:1040640000B80429060D042604180497040D0A0058
:104074006E616E00696E66006F7666002E004944BC
:104084004C450000000000720F2906DF0F510FC5D8
:104094000FC40F4B2025750041202575004D2025A8
:1040A40075005100502025752025750059002A00FF
:1040B40048004C005A00462025752025750047000D
:1040C40055004000582025750073006100702025BC
:0240D400750075
:00000001FF
