:10000000EAC1000018C2000016C2000014C20000BD
:1000100012C2000010C200000EC200000CC200009C
:100020000AC2000008C2000006C2000004C20000AC
:1000300002C2000000C20000FEC10000FCC10000BE
:10004000FAC10000F8C10000F6C10000F4C10000D0
:10005000F2C100000C94A013EEC1000078C70000AC
:10006000EAC1000041C6000075C60000E4C10000FE
:10007000E2C10000E0C10000DEC10000DCC1000000
:10008000DAC10000D8C10000D6C10000D4C1000010
:10009000D2C10000D0C10000CEC10000CCC1000020
:1000A000CAC10000C8C10000C6C10000C4C1000030
:1000B000C2C10000C0C10000BEC10000BCC1000040
:1000C000BAC10000B8C10000B6C10000B4C1000050
:1000D000B2C10000B0C10000AEC10000ACC1000060
:1000E000AAC1000002090509F408F808FE083C0945
:1000F00009090D09130917091B09210925092909EE
:100100003C092F093309370900000A0B02090C0DBD
:100110000E080703040100000000000000000000BA
:1001200000000000000000000000000000000000CF
:10013000000000001211100000000000000000008C
:1001400000000000000000000000000000000102AC
:1001500010202008081020401020408002010201D9
:100160000804020101020408102040808040201091
:1001700008040201800402018040201008040201EA
:100180000804020101020408102040800102040852
:10019000102040800505050507050808080802022B
:1001A00002020A0A08080404040401010101010111
:1001B00001010303030303030303040707070C0CF4
:1001C0000C0C0C0C0C0C02020202060606060606BB
:1001D00006060B0B0B0B0B0B0B0B00002200250074
:1001E00028002B002E003100340002010000050120
:1001F00008010B0100002100240027002A002D0027
:100200003000330001010000040107010A015041E0
:1002100020506F77657209203D2025530D0A004359
:100220005243204C656E67746809203D2025530DAC
:100230000A004D6F64656C0909203D2025530D0AA5
:100240000044617461205261746509203D2025538A
:100250000D0A0044594E50442F46454154555245CD
:1002600000434F4E4649470052465F534554555050
:100270000052465F434800454E5F52584144445245
:1002800000454E5F41410052585F50575F50302D3E
:10029000360054585F414444520052585F41444430
:1002A000525F50322D350052585F414444525F50E6
:1002B000302D31000D0A00253032780020307800D2
:1002C0002553092563203D000D0A00203078253094
:1002D0003278002553092563203D004F4253455293
:1002E00056455F54583D253032783A20504F4C5394
:1002F0005F434E543D2578204152435F434E543D69
:1003000025780D0A005354415455530909203D20C6
:100310003078253032782052585F44523D2578207D
:1003200054585F44533D2578204D41585F52543D09
:1003300025782052585F505F4E4F3D257820545805
:100340005F46554C4C3D25780D0A00000102030420
:10035000051112131415160A0B0C0D0E0F7B0374E6
:10036000036D03650350415F48494748004C415FB6
:100370004D45440050415F4C4F570050415F4D493F
:100380004E0097039003880331362062697473002E
:100390003820626974730044697361626C6564003B
:1003A000AE03A4036E524632344C30312B006E52F1
:1003B0004632344C303100CB03C503BD03323530F7
:1003C0004B42505300324D42505300314D42505336
:1003D0000000CB03DC0611241FBECFEFD1E2DEBF4D
:1003E000CDBF00E00CBF13E0A0E0B2E0E0EEFDE323
:1003F00000E00BBF02C007900D92AA3AB107D9F7EF
:1004000025E0AAEAB3E001C01D92AD30B207E1F7E2
:1004100013E0C6EDD3E000E006C022970109FE011B
:100420000BBF0E94FA19C23DD10780E00807A9F767
:1004300084D50C94EE1EE4CDCF93C82FE091F60343
:10044000F091F7030190F081E02D682F86EF93E0A3
:1004500019958C2F992787FD9095CF91089584E663
:1004600090E00E94EA0EFBCF60E070E08CE192E049
:100470000C94B71B47E14150242F30E0FC01E20F00
:10048000F31F5081FB01E20FF31F50834111F3CFA3
:100490000895EF92FF920F931F93CF93DF93CDB701
:1004A000DEB767970FB6F894DEBF0FBECDBF7C01F5
:1004B000BE016F5F7F4FDEDF26E232E03F932F9376
:1004C0000E94011C870187E1E80EF11C0F900F903C
:1004D0000E151F0549F0F80181918F01992787FDBD
:1004E00090950E94351CF4CF81E093E09F938F9309
:1004F0000E94011C86EE93E00E945E1647E1BE0159
:100500006F5F7F4F86EE93E00E940E17182F86EEE6
:1005100093E00E9430160F900F90812F67960FB6D0
:10052000F894DEBF0FBECDBFDF91CF911F910F9129
:10053000FF90EF90089564E670E080E090E0D8D4FA
:10054000772767FD7095872F972F7AC54F925F9217
:100550006F927F928F929F92AF92BF92CF92DF92D3
:10056000EF92FF920F931F93CF93DF93CDB7DEB738
:1005700067970FB6F894DEBF0FBECDBF43E8C42E19
:1005800042E0D42E4E0188E1880E911C01E013E078
:1005900059E6A52E52E0B52E66246A946FE7762EB2
:1005A0008091B2039091B303892B09F0C7C086EE06
:1005B00093E00E94DF16811123C020E040E050E06C
:1005C00060E070E08AEA93E00E946C0B8111F5CF45
:1005D0008091B0039091B1039093D5038093D4039D
:1005E0007092D7036092D60320E040E050E060E0D4
:1005F00070E08AEA93E0CCD78BEC93E04ADF9CC0B2
:1006000047E164EB73E086EE93E00E94E2168823F4
:10061000B9F3E090B703F12CFE2CEE248091B603E1
:10062000E82A8091B90390E0982F88272091B80399
:10063000822B2091B0033091B10382179307E1F42C
:1006400068E372E086EF93E03BD494EB492E93E0AD
:10065000592EF20181912F01992787FD90950E94D3
:10066000351CFBEC4F16F3E05F0698F31F930F93D6
:100670000E94011C0F900F908091B0039091B103E4
:10068000E816F906A9F58FE492E09F938F930E94F4
:10069000011C04EB13E00F900F90F80181918F0182
:1006A000992787FD90950E94351CF3E00B3C1F07AE
:1006B000A0F381E093E09F938F930E94011C0F9021
:1006C0000F9067960FB6F894DEBF0FBECDBFDF91D7
:1006D000CF911F910F91FF90EF90DF90CF90BF903F
:1006E000AF909F908F907F906F905F904F90089504
:1006F000BF92AF920E94011C84EBE82E83E0F82E9B
:100700000F900F90F70181917F01992787FD9095B8
:100710000E94351CFBECEF16F3E0FF0698F31F93E5
:100720000F930E94011C47E164EB73E086EE93E0B7
:100730000E940E170F900F90FEDE32CF86EE93E0F0
:100740000E94DF16882309F42BCF47E1BE016F5FBB
:100750007F4F86EE93E00E94E2168823B1F3DF928A
:10076000CF920E94011CCE0101967C010F900F9048
:10077000F70181917F01992787FD90950E94351C93
:10078000E814F904A8F31F930F930E94011C0F9023
:100790000F9006CF08954AE069E086EE93E00C944E
:1007A0001716CF93DF931F92CDB7DEB78BE1EBE047
:1007B000F2E0ABECB3E001900D928A95E1F726E010
:1007C00040E855E260E070E086EF93E02BD24CDE2B
:1007D00086EE93E00E948F1860E070E086EE93E072
:1007E0000E9431184FE06FE086EE93E00E946E1990
:1007F00001EE1AEA2AEA3AEA4AEA50E060E070E0DA
:1008000086EE93E00E945817ACE5CA2EA3E0DA2EDC
:1008100071E0F601E080F18002811381248135814D
:1008200046815781F8E0CF0ED11C672F86EE93E00A
:1008300079830E94911779817F5F773051F786EE37
:1008400093E00E94301686EE93E00E94E11884E95E
:1008500092E09F938F930E94011C0F900F9010E0E5
:100860008DEA810F823060F086EF93E0CCD0892B47
:10087000D9F386EF93E0E0D00E94961B182FF0CFBB
:10088000212F332727FD30953F931F9327ED32E02B
:100890003F932F930E94011C0F900F900F900F9089
:1008A0001435A9F48CED92E09F938F930E94011C64
:1008B00081E090E09093B3038093B2038FEF9FE7C2
:1008C0009093B1038093B0030F900F904AC08FEEC6
:1008D00092E09F938F930E94011C1092B303109299
:1008E000B20384E093E09F938F930E94011C0F90CA
:1008F0000F900F900F9011E086EF93E084D0892B3A
:10090000D9F386EF93E098D0082FE82EFF24E7FC78
:10091000F094C7010E94351C2091B0033091B103BF
:100920000B3324F480E3E81AF10803C0E7E5EE1A7C
:10093000F108E22AF32AF092B103E092B0031430F6
:1009400069F08091B0039091B103F4E0880F991F92
:10095000FA95E1F79093B1038093B0031F5F1530D0
:1009600059F680E011D4BC01882777FD8095982F37
:10097000B7D28091B1038F938091B0038F938DE1B3
:1009800093E09F938F930E94011C43E060E081E01D
:10099000D1D59093AB038093AA030F900F900F9043
:1009A0000F90892B31F46BE273E086EF93E088D2ED
:1009B000FFCFA12CB12CC12CD12C7EEAE72E73E005
:1009C000F72E01E020E030E04EE551E06CE373E00B
:1009D00086EA92E087D7ECEAEE2EE3E0FE2E20E0F6
:1009E00030E044E650E064E473E08FE292E07AD7CE
:1009F0008DE493E09F938F930E94011C0E94780DD9
:100A00000F900F90FFCFFC01818D228D90E0805CD4
:100A10009F4F821B91098F7399270895FC01918D37
:100A2000828D981731F0828DE80FF11D858D90E051
:100A300008958FEF9FEF0895FC01918D828D981797
:100A400061F0828DDF01A80FB11D5D968C91928DB2
:100A50009F5F9F73928F90E008958FEF9FEF0895AF
:100A600083ED96E0892B39F080E090E0892B19F036
:100A70009AD1811125C080E090E0892B41F080E07F
:100A800090E0892B21F00E94000081111CC080E0C1
:100A900090E0892B41F080E090E0892B21F00E94CA
:100AA0000000811113C080E090E0892BA1F080E06C
:100AB00090E0892B81F00E94000081110AC0089506
:100AC0000E940000D8CF0E940000E1CF0E940000E9
:100AD000EACF0C9400000895FC01848DDF01A80F7B
:100AE000B11DA35ABF4F2C91848D90E001968F7356
:100AF0009927848FA689B7892C93A089B1898C9175
:100B000080648C93938D848D981306C00288F3893A
:100B1000E02D80818F7D80830895CF93DF93EC015A
:100B2000888D8823C1F0EA89FB89808185FD05C015
:100B3000A889B9898C9186FD0EC00FB607FCF5CF48
:100B4000808185FFF2CFA889B9898C9185FFEDCF8F
:100B5000CE01C2DFE8CFDF91CF910895CF92DF922F
:100B6000FF920F931F93CF93DF931F92CDB7DEB702
:100B70006C0181E0D60158968C9358975B969C91B6
:100B80005B975C968C915C97981307C05096ED919B
:100B9000FC915197808185FD2DC0F601038D10E0F9
:100BA0000F5F1F4F0F731127F02EF601848DF8127F
:100BB00010C00FB607FCF9CFD6015096ED91FC910D
:100BC0005197808185FFF1CFC601698385DF6981F7
:100BD000ECCF838DE80FF11DE35AFF4F6083D60100
:100BE0005B960C935B975296ED91FC9153978081A5
:100BF00080620CC0D6015696ED91FC9157976083A8
:100C00005096ED91FC91519780818064808381E0C2
:100C100090E00F90DF91CF911F910F91FF90DF90A7
:100C2000CF900895BF92CF92DF92EF92FF92CF9331
:100C3000DF93EC016A017B01B22EE889F98982E039
:100C40008083411581EE580761057105A1F060E0D0
:100C500079E08DE390E0A70196010E94AC19215044
:100C60003109410951095695479537952795211521
:100C700080E1380798F0E889F989108260E874E823
:100C80008EE190E0A70196010E94AC192150310934
:100C9000410951095695479537952795EC85FD856E
:100CA0003083EE85FF852083188EEC89FD89B08224
:100CB000EA89FB89808180618083EA89FB89808160
:100CC00088608083EA89FB89808180688083EA89E3
:100CD000FB8980818F7D8083DF91CF91FF90EF90A2
:100CE000DF90CF90BF9008951F920F920FB60F9292
:100CF00011240BB60F922F938F939F93EF93FF9333
:100D0000E0910604F09107048081E0910C04F091D9
:100D10000D0482FD12C0908180910F048F5F8F734C
:100D200020911004821751F0E0910F04F0E0EA5096
:100D3000FC4F958F80930F0401C08081FF91EF914C
:100D40009F918F912F910F900BBE0F900FBE0F9020
:100D50001F9018951F920F920FB60F9211240BB689
:100D60000F922F933F934F935F936F937F938F9344
:100D70009F93AF93BF93EF93FF9386EF93E0ACDE27
:100D8000FF91EF91BF91AF919F918F917F916F9163
:100D90005F914F913F912F910F900BBE0F900FBE1F
:100DA0000F901F90189586EF93E02DDE21E0892BA0
:100DB00009F420E0822F08951092F9031092F803AD
:100DC00088EE93E0A0E0B0E08093FA039093FB03F9
:100DD000A093FC03B093FD0388E893E09093F7039E
:100DE0008093F60385EC90E09093030480930204D3
:100DF00084EC90E0909305048093040480EC90E0F0
:100E0000909307048093060481EC90E0909309048A
:100E10008093080482EC90E090930B0480930A0482
:100E200086EC90E090930D0480930C0410920F04D4
:100E30001092100410921104109212040895CF928F
:100E4000DF92EF92FF920F931F93CF93DF937C017A
:100E50006A01EB0100E010E00C151D0571F06991CD
:100E6000D701ED91FC910190F081E02DC70119951A
:100E7000892B19F00F5F1F4FEFCFC801DF91CF9182
:100E80001F910F91FF90EF90DF90CF900895611523
:100E9000710581F0DB010D900020E9F7AD014150B3
:100EA0005109461B570BDC01ED91FC910280F38147
:100EB000E02D199480E090E0089564E973E0E7CFB5
:100EC0000F931F93CF93DF93EC01E1DF8C01CE01F1
:100ED000F4DF800F911FDF91CF911F910F91089543
:100EE000611571058105910511F00C948D1B089514
:100EF000CF93DF9300D01F92CDB7DEB79B01AC013B
:100F0000611571058105910569F069833A834B8309
:100F10005C830E948A1B29813A814B815C810E94FB
:100F2000CE1903C060E070E0CB010F900F900F90DE
:100F30000F90DF91CF9108950895C4D0FDDF31DC8B
:100F4000C0E3D5E027DC2097E9F38ADDFBCF1F92D1
:100F50000F920FB60F9211242F933F938F939F936D
:100F6000AF93BF938091940490919504A0919604BF
:100F7000B09197043091930423E0230F2D3720F490
:100F80000196A11DB11D05C026E8230F0296A11DE3
:100F9000B11D209393048093940490939504A0939F
:100FA0009604B09397048091980490919904A0912D
:100FB0009A04B0919B040196A11DB11D80939804E1
:100FC00090939904A0939A04B0939B04BF91AF911E
:100FD0009F918F913F912F910F900FBE0F901F9077
:100FE00018952FB7F89460919404709195048091AE
:100FF0009604909197042FBF08953FB7F89480917D
:10100000980490919904A0919A04B0919B0426B5FC
:10101000A89B05C02F3F19F00196A11DB11D3FBF30
:101020006627782F892F9A2F620F711D811D911DC0
:1010300042E0660F771F881F991F4A95D1F70895E0
:101040008F929F92AF92BF92CF92DF92EF92FF92D8
:101050006B017C01D2DF4B015C01C114D104E104BE
:10106000F104E1F078D1C9DF681979098A099B098F
:10107000683E73408105910580F321E0C21AD108D2
:10108000E108F10888EE880E83E0981EA11CB11CCF
:10109000C114D104E104F10431F7DFCFFF90EF90E8
:1010A000DF90CF90BF90AF909F908F900895823047
:1010B000910538F0880F991F880F991F05970197A0
:1010C000F1F70895789484B5826084BD84B5816019
:1010D00084BD85B5826085BD85B5816085BDEEE640
:1010E000F0E0808181608083E1E8F0E0108280811F
:1010F00082608083808181608083E0E8F0E080818D
:1011000081608083E1EBF0E0808184608083E0EBAC
:10111000F0E0808181608083E1E9F0E0808182609D
:101120008083808181608083E0E9F0E0808181605C
:101130008083E1EAF0E08081826080838081816049
:101140008083E0EAF0E0808181608083E1E2F1E089
:10115000808182608083808181608083E0E2F1E031
:10116000808181608083EAE7F0E080818460808311
:1011700080818260808380818160808380818068BB
:1011800080831092C1000895863308F08653209121
:101190007B00982F9870277F922B90937B0087700D
:1011A00020910A0290E4299F90011124822B8093C0
:1011B0007C0080917A00806480937A0080917A002C
:1011C00086FDFCCF809178002091790090E0922BF1
:1011D000089590E0FC013197E231F10508F04CC030
:1011E000EE58FF4F0C94EA19809180008F7703C06E
:1011F000809180008F7D8093800008958091800091
:10120000877FF9CF84B58F7702C084B58F7D84BD89
:1012100008958091B0008F7703C08091B0008F7DDA
:101220008093B0000895809190008F7707C08091DF
:1012300090008F7D03C080919000877F8093900005
:1012400008958091A0008F7707C08091A0008F7DC6
:1012500003C08091A000877F8093A00008958091B3
:1012600020018F7707C0809120018F7D03C080917E
:101270002001877F809320010895CF93DF9390E032
:10128000FC01E25BFE4F2491FC01EC56FE4F849181
:10129000882349F190E0880F991FFC01EC50FE4F24
:1012A000A591B49186529E4FFC01C591D4919FB7F0
:1012B000611108C0F8948C91209582238C938881C9
:1012C00082230AC0623051F4F8948C91322F309509
:1012D00083238C938881822B888304C0F8948C911B
:1012E000822B8C939FBFDF91CF9108950F931F9313
:1012F000CF93DF931F92CDB7DEB7282F30E0F901EF
:10130000E85FFE4F8491F901E25BFE4F1491F90111
:10131000EC56FE4F04910023C1F0882319F0698335
:1013200058DF6981E02FF0E0EE0FFF1FE652FE4F1D
:10133000A591B4919FB7F8948C91611103C0109559
:10134000812301C0812B8C939FBF0F90DF91CF91A0
:101350001F910F91089508951F93CF93DF93EC0190
:10136000142F4C8D41110BC088819981892B09F074
:1013700040C08A819B8122D71B821A823BC050E0E9
:10138000111115C08C819D810E94A71B2C8D8C8111
:101390009D81820F911D9D838C832A813B818217C1
:1013A000930738F1888199819D838C8322C08E8137
:1013B0009F810E94A71B2C8D30E03195219531092A
:1013C0008E819F81820F931F9F838E836881798195
:1013D0008617970730F48A819B81820F931F9F8322
:1013E0008E83123031F48A8D882319F08A8D8150D2
:1013F0008A8F80E09A8D9F5F9A8FDF91CF911F91A6
:101400000895FC01CB01448D4423A1F050E02681D6
:101410003781240F351F3783268362817381261716
:10142000370720F0208131813783268366817781D9
:101430000C94A71B08950F931F93CF93DF93EC0198
:101440000FB6F8940F928C010F5E1F4F8E8D1816F9
:101450005CF48989882341F0C801C9D5811157D628
:101460008E8D81508E8FF2CF8FEF8E8F0F900FBEAB
:101470000FB6F8940F928E01085F1F4F8D8D1816CE
:101480005CF48885882341F0C801B1D581113FD62D
:101490008D8D81508D8FF2CF8FEF8D8F0F900FBE7E
:1014A000DF91CF911F910F9108950F931F93CF93C9
:1014B000DF931F92CDB7DEB78C01009719F46983D3
:1014C00003D769810FB6F8940F92F801208131811A
:1014D000838D748D879FC0011124A901480F591F66
:1014E00053834283128E35832483871B9109820F95
:1014F000931F978386838FEF858F868F61110BC033
:101500008085882371F0C801089671D5813049F42F
:101510000E94DE1206C0C801089618D7C80141967D
:1015200015D70F900FBE81E00F90DF91CF911F91E3
:101530000F9108950F931F93CF93DF93082F162FCA
:10154000811101C0C1D6112329F0019FC0011124CE
:10155000019602C080E090E04F96C2D6EC01009761
:1015600081F0111103C09983888305C09C01215E1D
:101570003F4F398328830B8F1C8F61E0CE0195DFAD
:1015800001C0A2D6CE01DF91CF911F910F91089596
:10159000BF92CF92DF92EF92FF920F931F93CF9360
:1015A000DF9300D01F921F92CDB7DEB78C017B0175
:1015B0005D834C83B22E009709F486D6E114F104C2
:1015C00021F4F801848D811174C0F2E0BF1205C0CE
:1015D000F801838D813009F06EC020E06801F8E0E9
:1015E000CF0ED11C0FB6F8940F92F801928D838D17
:1015F000981718F0F2E0BF1215C04B2DB701C801C3
:10160000ABDEF8019189992339F0C8014196EFD4F6
:10161000813021F4D3D702C08111FCCF0F900FBECF
:1016200081E04BC08C819D81892B19F40F900FBEF6
:101630003EC0211103C0CE01019619D50F900FBEF7
:101640009AD20FB6F8940F92F801858D8F3F09F466
:10165000158EF801868D8F3F09F4168E0F900FBE00
:10166000BE016C5F7F4FCE01019613D581111CC066
:101670000FB6F8940F92F801928D0F900FBEF801FB
:10168000838D98130DC06C817D81C60173D4C80110
:10169000D2DE30D3882311F021E0A4CF8FD7FCCF46
:1016A000C801C9DE27D3F8CFC801C5DE23D380E047
:1016B00004C00AD68ACF08D690CF0F900F900F9013
:1016C0000F900F90DF91CF911F910F91FF90EF90AE
:1016D000DF90CF90BF900895BF92CF92DF92EF92AC
:1016E000FF920F931F93CF93DF9300D01F921F920F
:1016F000CDB7DEB78C017B015D834C83B22E0097A2
:1017000009F4E2D5E114F10421F4F801848D81118A
:101710008BC030E06801F1E1CF0ED11C0FB6F89418
:101720000F92F801828D882361F1C680D780B701BE
:10173000C80167DEF801B11016C0828D8150828F1A
:1017400080819181892B21F47CD5F8019383828358
:10175000F8018085882389F0C801089648D4813033
:1017600061F42CD70AC0D782C6828189882329F0E8
:10177000C80141963CD48111F4CF0F900FBE81E097
:1017800055C08C819D81892B19F40F900FBE4AC0E2
:10179000311103C0CE0101966AD40F900FBEEBD178
:1017A0000FB6F8940F92F801858D8F3F09F4158ECE
:1017B000F801868D8F3F09F4168E0F900FBEBE0183
:1017C0006C5F7F4FCE01019664D4811128C00FB6A3
:1017D000F8940F92F801828D0F900FBE81111BC0FB
:1017E000F80180819181892B49F40FB6F8940F920A
:1017F000F801828193818FD40F900FBE6C817D811F
:10180000C601B8D3C80117DE75D2882311F031E0C4
:1018100085CFD4D6FCCFC8010EDE6CD2F8CFC8017C
:101820000ADE68D280E002C04FD573CF0F900F90D0
:101830000F900F900F90DF91CF911F910F91FF901C
:10184000EF90DF90CF90BF900895E091C804F091A1
:10185000C9048081811103C08FEF9FEF0CC0E0911C
:10186000C804F091C9040580F681E02D0680F78157
:10187000E02D8281938190939E0480939D0408952E
:10188000CF93DF93EC01E0910005F0910105938384
:1018900082838091A5049091A604609100057091C7
:1018A0000105C817D90748F48091C6049091C70470
:1018B0006E5F7F4FDF91CF917CC58091C80490917E
:1018C000C9046E5F7F4F75D580919D0490919E04F1
:1018D000C817D90720F4D0939E04C0939D04DF91CC
:1018E000CF9108953F924F925F926F927F928F9225
:1018F0009F92AF92BF92CF92DF92EF92FF920F939F
:101900001F93CF93DF934C01162F372E5A013901C5
:10191000009709F4D9D4802F90E004970CF0D4D428
:10192000C114D10431F4C501DBD46C01009709F472
:10193000CCC089E290E0D4D4EC010097A1F0D88E1D
:10194000CF8AA50165EA70E0C6010E94B01B21E0C4
:10195000A21AB1084F88588C4A0C5B1CE12FF32D5A
:1019600080E090E007C0C601D8D4AFC001968830AF
:10197000910561F0BF0141919E01280F391FD901E6
:1019800059964C93DB012C912111F0CF18A2102F06
:10199000043008F013E01E8B19A31AA26E01B2E006
:1019A000CB0ED11CC601E0D4CE010C96DDD4D98774
:1019B000C88784E090E0811B91099D878C87DB8B31
:1019C000CA8B1BA21CA21DA21EA218A61FA2A301A5
:1019D000B401C20149D599838883E114F10419F057
:1019E000F701D183C0830FB6F8940F928091A704BA
:1019F0008F5F8093A7048091000590910105892B4A
:101A000089F5D0930105C09300058091A70481302A
:101A100009F037C08CED94E099D485EE94E096D42B
:101A20008EEE94E093D487EF94E090D483ED94E02D
:101A30008DD48AEC94E08AD48DEB94E087D484EB47
:101A400094E084D48AEA94E081D483ED94E0909386
:101A5000C9048093C8048AEC94E09093C7048093EF
:101A6000C6040FC08091A30481110BC0E091000552
:101A7000F09101058689081720F0D0930105C093E5
:101A8000000580919F048F5F80939F048E899091C1
:101A9000A404981710F48093A404F9E08F9FC00168
:101AA0001124B60184529B4F63D40F900FBE8091D6
:101AB000A304882341F0E0910005F0910105868997
:101AC000801708F47BD581E001C08FEFDF91CF91C3
:101AD0001F910F91FF90EF90DF90CF90BF90AF904C
:101AE0009F908F907F906F905F904F903F90089560
:101AF000AF92BF92CF92DF92EF92FF920F93A12C01
:101B0000B12CC12CD12C88EAE82E84E0F82E00E01C
:101B100020E030E044E650E065EA73E08EE09FE0CC
:101B2000E1DE8130B1F4F8948FEF9FEF90939E0443
:101B300080939D0481E08093A3041092A6041092E8
:101B4000A5040F91FF90EF90DF90CF90BF90AF90E2
:101B5000FDC4811108C00F91FF90EF90DF90CF90EE
:101B6000BF90AF90B1C30F91FF90EF90DF90CF90F7
:101B7000BF90AF90089580919C048F5F80939C04E8
:101B80000895CF92DF92EF92FF920F931F93CF931E
:101B9000DF9380919C04811196C08091A50490915F
:101BA000A60401969093A6048093A5040091A50431
:101BB0001091A60401151105E9F4E091C804F09113
:101BC000C9048081811180D38091C8049091C90497
:101BD0002091C6043091C7043093C9042093C804EF
:101BE0009093C7048093C6048091A0048F5F809374
:101BF000A0042BDE80919D0490919E04D12C0817A7
:101C0000190708F44AC099E0C92EE091C804F09180
:101C1000C9048081811107C08FEF9FEF90939E04CC
:101C200080939D043AC0E091C804F091C9040580F6
:101C3000F681E02DC681D7812A813B8102171307E7
:101C400028F430939E0420939D0427C07E0182E0F7
:101C5000E80EF11CC701E5D38C899D89892B19F009
:101C6000CE010C96DED32E898091A404821710F445
:101C70002093A404C29EC0011124B70184529B4F3B
:101C800077D3E0910005F09101059E898689981728
:101C900008F4BBCFDD24D394B8CFE0910005F091D8
:101CA0000105E68989E0E89FF0011124E452FB4F29
:101CB0008081823010F0DD24D3948091A2048111C0
:101CC00009C00DD307C08091A2048F5F8093A20446
:101CD00006D3D12C8091A104882311F0DD24D39464
:101CE0008D2DDF91CF911F910F91FF90EF90DF909D
:101CF000CF900895EF92FF920F931F93CF93DF93AE
:101D000080919C04811101C0DFD20FB6F8940F922C
:101D100080919C04815080939C0480919C04882332
:101D200011F080E04EC08091A7048823D1F329E010
:101D3000F22EEE24E3948091BD04882339F1E091E2
:101D4000C204F091C304C681D781CE010C9669D339
:101D50008E010E5F1F4FC80164D38E899091A40439
:101D6000981710F48093A404F89EC0011124B801C0
:101D700084529B4FFDD2E0910005F09101059E89B0
:101D800086899817C0F2E092A104D5CF8091A20471
:101D9000811108C08091A104813009F0C2CF0ED416
:101DA00081E00FC0C1E08091A204882399F3E9DEAD
:101DB0008111C093A1048091A20481508093A20458
:101DC000F2CF0F900FBEDF91CF911F910F91FF9037
:101DD000EF9008950F931F93CF93DF938C0100979B
:101DE00011F4ECD316C080919C0481116DD2C3DE36
:101DF000C091A504D091A604C00FD11F8091000509
:101E00009091010502960DD3CE013ADD73DF882350
:101E100041F3DF91CF911F910F9108958091B30409
:101E2000882321F1A8DEC091B40464DFCC23B1F390
:101E30000FB6F8940F92E091B904F091BA04C681FC
:101E4000D781CE010296EDD28091A7048150809374
:101E5000A7048091B30481508093B3040F900FBE08
:101E60008F89988D5AD2CE0158D2D8CF8091DC0478
:101E7000823008F0A3D331D2D1CFCF9380919C048C
:101E8000882321F081E08093A10472C01092A10404
:101E9000E0910005F09101050788F08DE02D80812B
:101EA0009181A281B381853A954AA54AB54AD9F470
:101EB00084819581A681B781853A954AA54AB54A1C
:101EC00091F480859185A285B385853A954AA54A86
:101ED000B54A49F484859585A685B785853A954A9E
:101EE000A54AB54A59F060910005709101058091AD
:101EF000000590910105675E7F4FECD1C9E0E0914C
:101F0000A404CE9FF0011124E452FB4F8081811183
:101F10000BC08091A404811101C0D6D18091A4048A
:101F200081508093A404EBCFE091A40489E0E89F62
:101F3000F0011124E452FB4FA181B28112960D9061
:101F4000BC91A02DB283A183CF010396A817B90736
:101F500031F412968D919C91139792838183018025
:101F6000F281E02D86819781909301058093000591
:101F7000CF9108950F931F93CF93DF931F921F92DA
:101F8000CDB7DEB78B01009729F489839A839CD162
:101F90009A8189816091000570910105645F7F4F8E
:101FA00008D2809100059091010502963AD20F3F28
:101FB0008FEF180779F460910005709101056E5F4D
:101FC0007F4F8AEA94E00F900F90DF91CF911F919D
:101FD0000F91CEC18091A5049091A604800F911F0E
:101FE0000F900F90DF91CF911F910F9149CC0F93DC
:101FF0001F93CF93DF93DC011596ED91FC9116971B
:10200000C681D781209709F45FD18E01045F1F4FED
:10201000C80107D280919C04811113C00A50110994
:10202000C801FFD18E899091A404981710F4809371
:10203000A404B9E08B9FC0011124B80184529B4FC6
:1020400003C0B8018DEB94E093D1E0910005F091CD
:1020500001059E898689891720F481E08093A10477
:1020600001C080E0DF91CF911F910F910895CF9330
:10207000DF93EC01009709F427D18091A0048883B5
:102080008091A5049091A6049A838983DF91CF91D2
:1020900008950F931F93CF93DF93EC018B0100976B
:1020A00009F412D10115110509F40ED10FB6F894F7
:1020B0000F924091A5045091A604F801208131812E
:1020C0002F3FFFEF3F07C9F07091A004688189811D
:1020D0009A81761719F04817590788F4BA01681BD6
:1020E000790B6217730758F4841B950B820F931FAB
:1020F000F80191838083CE01BADF80E001C081E0E6
:102100000F900FBEDF91CF911F910F91089581E045
:102110008093A10408950F931F93CF93DF93EC0155
:10212000009709F446C08E89E0910005F091010501
:102130009689891708F03DC02C853D8537FD0BC079
:10214000E0910005F0910105968924E030E0291B1B
:1021500031093D872C8729E0829FC00111248452D8
:102160009B4F2A853B8528173907E9F48E010E5FBE
:102170001F4FC80156D1E0910005F09101058689F5
:102180008E8B9091A404981710F48093A40429E0F6
:10219000829FC0011124B80184529B4FDF91CF91DF
:1021A0001F910F91E5C0E0910005F091010586892E
:1021B0008E8BDF91CF911F910F9108950F931F93F5
:1021C000CF93DF93EC01009711F480E035C080914C
:1021D000000590910105C817D90709F075D08AA1AB
:1021E000811101C071D08AA181508AA32E8999A141
:1021F000291759F38111E9CF8E010E5F1F4FC801D6
:1022000010D189A18E8B482F50E024E030E0241BB0
:10221000350B3D872C879091A404981710F4809378
:10222000A40429E0249FC001259F900D1124B8012A
:1022300084529B4F9DD081E0DF91CF911F910F91F0
:1022400008958091000590910105892B39F0E09166
:102250000005F091010582A18F5F82A380910005A6
:10226000909101050895EC01F89461E08DE005D8A6
:1022700000E010E00C171D07E4F461E08DE036D8B3
:1022800080E899EAA3E0B0E000000197A109B10954
:10229000D9F760E08DE02AD840E859EA63E070E0C1
:1022A00000004150510961097109D1F70F5F1F4FBB
:1022B000E1CF40E05AE668E170E00000415051098A
:1022C00061097109D1F7D4CF81E090E0CCDF82E0E1
:1022D00090E0C9DF83E090E0C6DF0C94CA03089564
:1022E0000F931F93CF93DF931F921F92CDB7DEB74B
:1022F00089839A8340DC89819A810E94191A8C0112
:10230000F9DC0115110509F4E2DFC8010F900F9007
:10231000DF91CF911F910F910895CF93DF931F927B
:102320001F92CDB7DEB7009761F089839A8323DCD3
:1023300089819A810E94B11A0F900F90DF91CF91FD
:10234000D9CC0F900F90DF91CF910895FC010396A7
:10235000928381832FEF3FEF34832383968385839A
:102360009087878310820895FC0111861086089556
:10237000CF93DF939C01FB01DC011196CD91DC91A1
:102380001297D383C2838C819D81958384838C81B2
:102390009D81DC0113967C936E9312977D836C83F1
:1023A00031872087F90180818F5F8083DF91CF9112
:1023B00008950F931F93CF93DF938C01FB0120812E
:1023C00031812F3F8FEF380721F4E801AF81B885C5
:1023D0000EC0D801139612968D919C911397EC0123
:1023E000488159812417350710F0DC01F4CF12968B
:1023F0008D919C91139793838283EC01FD83EC83F1
:10240000B583A4831396FC93EE93129711870087EC
:10241000F80180818F5F8083DF91CF911F910F91B1
:102420000895CF93DF93FC01A085B18582819381CC
:1024300024813581EC013D832C83C481D5819B832C
:102440008A8311968D919C9112978E179F0721F484
:102450001296DC93CE931197118610868C91815041
:102460008C93DF91CF91089531E1FC013083319756
:1024700022E220833197A3E3A083319760833197D1
:1024800070833197108231971082319760E86083B2
:10249000319710823197108231971082319762E024
:1024A0006083319763E06083319764E060833197A4
:1024B00065E06083319766E06083319767E0608311
:1024C000319768E06083319769E06083319760E11C
:1024D000608331973083319732E13083319733E134
:1024E0003083319734E13083319735E13083319750
:1024F00036E13083319737E13083319738E13083EB
:10250000319739E13083319730E23083319731E2CE
:10251000308331972083319723E2208331974083A2
:1025200031975083319726E22083319727E2208329
:10253000319728E22083319729E22083319720E3E5
:102540002083319721E320838997089581E087BD17
:10255000EEE6F0E0808182608083A0910005B0917A
:102560000105CD91CDBFDD91DEBFFF91EF91DF91F0
:10257000CF91BF91AF919F918F917F916F915F911B
:102580004F913F912F911F910F91FF90EF90DF900E
:10259000CF90BF90AF909F908F907F906F905F9003
:1025A0004F903F902F901F900F900CBE0F900BBE3E
:1025B0000F900FBE0F90089581E008950F920FB60F
:1025C000F8940F920BB60F920CB60F921F92112433
:1025D0002F923F924F925F926F927F928F929F9233
:1025E000AF92BF92CF92DF92EF92FF920F931F9321
:1025F0002F933F934F935F936F937F938F939F930B
:10260000AF93BF93CF93DF93EF93FF93A091000518
:10261000B09101050DB60D920EB60D922EDCA09173
:102620000005B0910105CD91CDBFDD91DEBFFF91D9
:10263000EF91DF91CF91BF91AF919F918F917F915A
:102640006F915F914F913F912F911F910F91FF904B
:10265000EF90DF90CF90BF90AF909F908F907F9042
:102660006F905F904F903F902F901F900F900CBEF7
:102670000F900BBE0F900FBE0F9008950F920FB6E4
:10268000F8940F920BB60F920CB60F921F92112472
:102690002F923F924F925F926F927F928F929F9272
:1026A000AF92BF92CF92DF92EF92FF920F931F9360
:1026B0002F933F934F935F936F937F938F939F934A
:1026C000AF93BF93CF93DF93EF93FF93A091000558
:1026D000B09101050DB60D920EB60D9252DA811130
:1026E000CCDBA0910005B0910105CD91CDBFDD916E
:1026F000DEBFFF91EF91DF91CF91BF91AF919F919D
:102700008F917F916F915F914F913F912F911F9189
:102710000F91FF90EF90DF90CF90BF90AF909F9080
:102720008F907F906F905F904F903F902F901F9071
:102730000F900CBE0F900BBE0F900FBE0F90089520
:102740009DDF18958EBD00000DB407FEFDCF8EB540
:1027500008952CB52F7D2CBD2CB5237F2CBD2CB519
:102760002C7F2CBD2DB52E7F2DBDFC0181810C94BD
:102770007609FC0180810C947609CF92DF92EF926A
:10278000FF920F931F93CF93DF931F921F92CDB7AA
:10279000DEB78C01E62EF22E60E070E049835A83AA
:1027A000D8DF8E2D8F71CEDFE82E4981C42E5A815D
:1027B000D52EF40EFC1431F08FEFC4DFF6018193B7
:1027C0006F01F8CF61E070E0C801C3DF8E2D0F907C
:1027D0000F90DF91CF911F910F91FF90EF90DF90BD
:1027E000CF9008951F93CF93DF93EC01162F60E0F5
:1027F00070E0AFDF812F8F71A5DF8FEFA3DF182F80
:1028000061E070E0CE01A5DF812FDF91CF911F91B4
:102810000895CF92DF92EF92FF920F931F93CF9381
:10282000DF931F921F92CDB7DEB78C01E62EF22EFA
:1028300060E070E049835A838CDF8E2D8F71806257
:1028400081DFE82E4981C42E5A81D52EF40EFC1466
:1028500029F0F60181916F0175DFF9CF61E070E039
:10286000C80177DF8E2D0F900F90DF91CF911F91D0
:102870000F91FF90EF90DF90CF900895EF92FF922D
:102880001F93CF93DF931F92CDB7DEB77C01162F36
:1028900060E070E049835DDF812F8F71806252DFDD
:1028A000182F4981842F4EDF61E070E0C70151DFAE
:1028B000812F0F90DF91CF911F91FF90EF9008959E
:1028C000BF92CF92DF92EF92FF920F931F93CF931D
:1028D000DF938C01D62EB72EFC01C481F42EC417D1
:1028E00008F4FC2EF8018681811103C0EC2EEF184C
:1028F00001C0E12C60E070E0C8012BDF80EA22DF3C
:10290000C82ECD2DDB2DFD0CFC1619F089911ADF98
:10291000FBCFCE2DCC2321F080E014DFC150FACFC5
:1029200061E070E0C80115DF8C2DDF91CF911F9120
:102930000F91FF90EF90DF90CF90BF900895BF92DE
:10294000CF92DF92EF92FF920F931F93CF93DF937B
:102950008C01D62EB72EFC01C481F42EC41708F4C6
:10296000FC2EF8018681811103C0EC2EEF1801C006
:10297000E12C60E070E0C801ECDE81E6E3DEC82E09
:10298000CD2DDB2DFD0CFC1621F08FEFDBDE8993C6
:10299000FACFCE2DCC2321F08FEFD4DEC150FACF69
:1029A00061E070E0C801D5DE8C2DDF91CF911F91E1
:1029B0000F91FF90EF90DF90CF90BF9008951F93FD
:1029C000CF93DF93EC0160E070E0C3DE82EEBADE0D
:1029D000182F61E070E0CE01BCDE812FDF91CF9136
:1029E0001F9108951F93CF93DF93EC0160E070E097
:1029F000B0DE81EEA7DE182F61E070E0CE01A9DE27
:102A0000812FDF91CF911F9108951F93CF93DF9373
:102A1000EC0160E070E09DDE8FEF94DE182F61E046
:102A200070E0CE0196DE812FDF91CF911F91089546
:102A3000862F90E0262F21701F922F9395958795D2
:102A4000877099279F938F9364FB882780F91F9243
:102A50008F9365FB882780F91F928F9366FB8827E9
:102A600080F91F928F931F926F9385E093E09F935D
:102A70008F93D8D68DB79EB70E960FB6F8949EBF9B
:102A80000FBE8DBF0895AF92BF92DF92EF92FF927B
:102A90000F931F93CF93DF931F921F92CDB7DEB793
:102AA0008C01F42EE22ECB0169837A8347D66981AB
:102AB0007A81089710F489E001C080E01F928F931B
:102AC0007F936F93E3EDF2E0FF93EF93ABD6EF0CC0
:102AD0000F900F900F900F900F900F903BECA32E44
:102AE00032E0B32EFE1489F0DD24D394DF0C6F2D79
:102AF000C80178DE1F928F93BF92AF9293D60F904A
:102B00000F900F900F90FD2CEDCF88EC92E09F93EB
:102B10008F9388D60F900F900F900F90DF91CF91E9
:102B20001F910F91FF90EF90DF90BF90AF900895AD
:102B30006F927F928F929F92AF92BF92CF92DF92CD
:102B4000EF92FF920F931F93CF93DF93CDB7DEB732
:102B500027970FB6F894DEBF0FBECDBF4C01142FE0
:102B6000722ECB016E837F83E9D56E817F810897BA
:102B700010F489E001C080E01F928F937F936F93E0
:102B8000E0ECF2E0FF93EF934DD6710E0F900F90B3
:102B90000F900F900F900F90CE0101967C014CEB9F
:102BA000C42E42E0D42E57EBA52E52E0B52E1715B9
:102BB00011F166246394610E25E0A701612FC40121
:102BC000DCDDDF92CF922ED68E010A5F1F4F0F9071
:102BD0000F900E151F0569F0F80182918F011F9269
:102BE0008F93BF92AF921ED60F900F900F900F90C1
:102BF000F0CF162DDCCF84EB92E09F938F9312D60B
:102C00000F900F9027960FB6F894DEBF0FBECDBF82
:102C1000DF91CF911F910F91FF90EF90DF90CF90B8
:102C2000BF90AF909F908F907F906F900895FC0120
:102C30006083418381E08283138280E284831582F2
:102C400016821086118612861386148615861686BD
:102C500017860895462F603808F04FE765E00ECEDE
:102C6000CF93DF93EC0160E0BDDD482F436060E06F
:102C7000CE0104DE40E767E0CE0100DE288539851D
:102C80004A855B856C857D858E859F85A0E0B6D362
:102C900039F025E0AE01485F5F4F6AE0CE01B9DD53
:102CA000CE018DDECE019EDE61E070E0CE0161DD01
:102CB00082E890E0DF91CF910C945708CF93DF9397
:102CC000EC0160E070E055DDCE018CDECE01DF91DD
:102CD000CF9175CECF93DF93EC0160E083DD482F79
:102CE0004D7F60E0CE01DF91CF91C8CDFF920F9371
:102CF0001F93CF93DF93EC018B01F42E60E072DD24
:102D0000482F4C7F426060E0CE01B8DD86E990E05C
:102D10000E9457084F2DB801CE01D2DD61E070E06E
:102D2000CE0127DD8FE090E00E94570860E070E060
:102D3000CE01DF91CF911F910F91FF901ACD1F937C
:102D4000CF93DF93EC0160E070E003DD80E6FADC16
:102D50008FEFF8DC182F61E070E0CE01FADC812FF4
:102D6000DF91CF911F910895EF92FF920F931F93E0
:102D7000CF93DF93EC018B0148DEF82E86FBEE2427
:102D8000E0F886FF14C00115110539F0282F30E056
:102D9000359527952770F801208340E467E0CE0140
:102DA0006DDDF5FE04C040E267E0CE0167DD8E2DEB
:102DB000DF91CF911F910F91FF90EF90089560E008
:102DC00070E0D2CFCF93DF93EC01B9DD67E1CE01A4
:102DD00009DD8170DF91CF910895EF92FF920F93FB
:102DE0001F93CF93DF93EB018A01790140E767E0FE
:102DF00045DD85FB992790F9988384FB992790F905
:102E0000F801908386FB882780F9F7018083DF91A2
:102E1000CF911F910F91FF90EF900895CF92DF9285
:102E2000EF92FF920F931F93CF93DF9300D0CDB714
:102E3000DEB78C015BDF0E94F1076B017C0121E0B2
:102E4000AE014D5F5F4F68E0C80197DC807359F4B5
:102E50000E94F1076C197D098E099F09643F71403A
:102E60008105910560F398012B5F3F4FAE014F5FE5
:102E70005F4FBE016E5F7F4FC801AFDFFA80F80180
:102E80008581882321F0C8015ADFF8018783C801B2
:102E900021DFC801A7DD8F2D0F900F900F90DF91DC
:102EA000CF911F910F91FF90EF90DF90CF900895F9
:102EB000EF92FF920F931F93CF93DF93CDB7DEB7BF
:102EC00028970FB6F894DEBF0FBECDBF7C010983F3
:102ED0001A832B833C834D835E836F83788725E041
:102EE000AE014F5F5F4F6AE094DC25E0AE014F5FBB
:102EF0005F4F60E1C7018DDCF7014481413208F08A
:102F000040E261E1C701BADC28960FB6F894DEBF53
:102F10000FBECDBFDF91CF911F910F91FF90EF902A
:102F20000895BF92CF92DF92EF92FF920F931F937B
:102F3000CF93DF93CDB7DEB728970FB6F894DEBFF7
:102F40000FBECDBF6C01B62EE982FA820B831C83C3
:102F50002D833E834F83588761110AC0F601E086B6
:102F6000F18602871387248735874687578707C0EE
:102F7000F6E0F61708F431C081E0681307C0EB2DC6
:102F8000F0E0E95AFC4F649125E006C0E62FF0E03E
:102F9000E95AFC4F649121E0AE014F5F5F4FC601DB
:102FA00038DC0B2D10E0F801EF5AFC4F6491F6016C
:102FB0004481C60163DC62E0C60114DCF801E55B14
:102FC000FC4F049121E030E001C0220F0A95EAF79E
:102FD000822B482F62E0C60151DC28960FB6F89488
:102FE000DEBF0FBECDBFDF91CF911F910F91FF903C
:102FF000EF90DF90CF90BF9008950F931F93CF93E2
:10300000DF938C01EB0166E0EDDB482F497FC33095
:10301000D10561F0C230D10511F4446008C0C1305F
:10302000D10511F4426003C0249709F4466066E0BC
:10303000C801DF91CF911F910F9120CC66E0D2DBC8
:103040008670863049F0843049F021E090E082308B
:1030500009F020E0822F089583E001C082E090E033
:103060000895EF92FF920F931F93CF93DF931F92D8
:10307000CDB7DEB77C018B0166E0B4DBF7011282CD
:10308000282F277D0230110511F4206207C001307E
:10309000110521F481E0F70182832860422F66E068
:1030A000C7012983EBDB66E0C7019CDB298182171E
:1030B00021F0F701128280E001C081E00F90DF91E2
:1030C000CF911F910F91FF90EF90089566E08ADBFA
:1030D000282F2872203231F081E090E0283021F052
:1030E00080E0089582E090E008950F931F93CF93BE
:1030F000DF93EC018B0160E075DB482F437F011506
:10310000110531F00130110511F4486001C04C6027
:1031100060E0CE01DF91CF911F910F91AFCBCF93A4
:10312000DF93EC0161E088810E943D0961E08981C3
:103130000E943D09DBD060E070E0CE011ADB61E067
:1031400070E0CE0106DB65E070E080E090E00E9478
:1031500020084FE464E0CE0191DB63E070E0CE0133
:103160004CDF62E070E0CE017CDF882311F081E06B
:103170008B8360E070E0CE0174DF62E070E0CE012E
:10318000B4DF40E06CE1CE0179DB40E767E0CE01DF
:1031900075DB6CE4CE015EDDCE0111DCCE01DF918A
:1031A000CF9120CC60E01EDB83FF05C082FF06C00C
:1031B00082E090E0089580E090E0089581E090E062
:1031C0000895CF93DF93EC0120DC682FCE0130DC33
:1031D00022E04AE067EA72E0CE01AADC24E04CE09B
:1031E0006AE972E0CE014FDC21E040E162E972E081
:1031F000CE019EDC26E041E167E872E0CE0143DCCF
:1032000021E041E061E872E0CE013DDC21E042E0F6
:1032100067E772E0CE0137DC21E045E061E772E06C
:10322000CE0131DC21E046E068E672E0CE012BDC25
:1032300021E040E061E672E0CE0125DC22E04CE1D5
:1032400063E572E0CE011FDCCE0140DF880F991FDD
:1032500089549C4FFC01859194919F938F9381E4B5
:1032600092E09F938F93DED2EB81F0E0EE0FFF1F91
:10327000E056FC4F859194919F938F9382E392E067
:103280009F938F93CFD2CE018DDF880F991F8E57DA
:103290009C4FFC01859194919F938F938FE192E0D5
:1032A0009F938F93BFD2CE01C9DE880F991F835A97
:1032B0009C4FFC01859194919F938F938EE092E0B7
:1032C0009F938F93AFD28DB79EB740960FB6F89469
:1032D0009EBF0FBE8DBFDF91CF91089520E1629F09
:1032E000B00111244F70462B64E0C8CACF93CFB70A
:1032F000F89480910205811127C0E9ECF1E08491F6
:10330000E3E8F1E09491E82FF0E0EE0FFF1FEC50BE
:10331000FE4FA591B4918C91892321F461E085E35E
:103320000E94760961E085E30E943D098CB58061C9
:103330008CBD8CB580648CBD61E084E30E943D0946
:1033400061E083E30E943D09809102058F5F8093D5
:103350000205CFBFCF910895A1E21A2EAA1BBB1B75
:10336000FD010DC0AA1FBB1FEE1FFF1FA217B30751
:10337000E407F50720F0A21BB30BE40BF50B661F67
:10338000771F881F991F1A9469F76095709580952B
:1033900090959B01AC01BD01CF010895052E97FBCF
:1033A00016F400940FD057FD05D0D6DF07FC02D0ED
:1033B00046F408C050954095309521953F4F4F4FAA
:1033C0005F4F089590958095709561957F4F8F4FD1
:1033D0009F4F0895EE0FFF1F0590F491E02D199473
:1033E00019D0A59F900DB49F900DA49F800D911DA5
:1033F000112408950790F691E02D19940024A7FD5B
:1034000000942A17300540055005600570058005B9
:1034100090050895A29FB001B39FC001A39F700DB6
:10342000811D1124911DB29F700D811D1124911DCC
:103430000895CF93DF938230910510F482E090E0FD
:10344000E0910505F091060520E030E0A0E0B0E055
:10345000309739F14081518148175907B8F0481722
:10346000590771F482819381109729F013969C93E8
:103470008E9312972CC0909306058093050527C064
:103480002115310531F04217530718F0A901DB016E
:1034900001C0EF019A01BD01DF010280F381E02D3F
:1034A000D7CF21153105F9F0281B390B2430310510
:1034B00080F48A819B816115710521F0FB01938362
:1034C000828304C09093060580930505FE01329621
:1034D00044C0FE01E20FF31F819391932250310902
:1034E000398328833AC02091030530910405232BAA
:1034F00041F420910202309103023093040520939D
:10350000030520910002309101022115310541F49B
:103510002DB73EB74091040250910502241B350B94
:10352000E0910305F0910405E217F307A0F42E1BC8
:103530003F0B2817390778F0AC014E5F5F4F241717
:10354000350748F04E0F5F1F509304054093030565
:103550008193919302C0E0E0F0E0CF01DF91CF9141
:103560000895CF93DF93009709F487C0FC01329749
:1035700013821282C0910505D0910605209781F42F
:1035800020813181280F391F809103059091040516
:103590008217930779F5F0930405E09303056DC056
:1035A000DE0120E030E0AE17BF0750F412964D91D7
:1035B0005C9113979D014115510509F1DA01F3CF93
:1035C000B383A28340815181840F951F8A179B0783
:1035D00071F48D919C911197840F951F02969183A0
:1035E000808312968D919C911397938382832115EA
:1035F000310529F4F0930605E09305053EC0D90195
:103600001396FC93EE9312974D915D91A40FB51F05
:10361000EA17FB0779F480819181840F951F029648
:10362000D90111969C938E938281938113969C93DA
:103630008E931297E0E0F0E08A819B81009719F069
:10364000FE01EC01F9CFCE01029628813981820F6B
:10365000931F20910305309104052817390769F459
:10366000309729F4109206051092050502C01382C6
:103670001282D0930405C0930305DF91CF91089582
:103680008F929F92AF92BF92CF92DF92EF92FF9272
:10369000CF93DF93EC01688179818A819B816115E9
:1036A00071058105910521F464E279ED8BE597E0E0
:1036B0002DE133EF41E050E071DE49015A019B01F9
:1036C000AC01A7EAB1E48CDE6B017C01ACEEB4EF97
:1036D000A50194017FD3C60ED71EE81EF91EF7FE82
:1036E00006C081E0C81AD108E10880E8F80AC8825B
:1036F000D982EA82FB82C701B6019F77DF91CF9121
:10370000FF90EF90DF90CF90BF90AF909F908F9001
:103710000895B6CF86E092E0B3CF6093060270932F
:103720000702809308029093090208959111089569
:1037300081568A5108F4805285580895FC010590FD
:103740000020E9F7809590958E0F9F1F0895FB014B
:10375000DC0102C001900D9241505040D8F708950D
:10376000DC0101C06D9341505040E0F708950F9384
:103770001F93CF93DF93EC018B01009731F4611518
:10378000710519F480E090E037C06EE070E081E0F0
:1037900090E05ED2FC010097A9F380E883830115D5
:1037A000110571F01387028781E8838380910705F3
:1037B00090910805892B21F4F0930805E093070503
:1037C0002097C9F0D187C0878381826083838091ED
:1037D000090590910A05892B71F4F0930A05E0938D
:1037E000090580910B0590910C05892B21F4F0932C
:1037F0000C05E0930B05CF01DF91CF911F910F9145
:103800000895CF93DF93CDB7DEB7FE013696619171
:103810007191AF018091090590910A052BD0DF913C
:10382000CF9108950F931F93CF93DF93CDB7DEB75A
:10383000FE0138966191719109E015E0D8018D91F2
:103840009C91DC0113962C911397286013962C936E
:10385000AF0110D0D801ED91FC912381277F238304
:10386000DF91CF911F910F9108956091090570919B
:103870000A051EC22F923F924F925F926F927F92E3
:103880008F929F92AF92BF92CF92DF92EF92FF9270
:103890000F931F93CF93DF93CDB7DEB72C970FB65F
:1038A000F894DEBF0FBECDBF7C016B018A01FC0125
:1038B00017821682838181FFB0C1CE0101964C012F
:1038C000F7019381F60193FD859193FF81916F013B
:1038D000882309F49EC1853239F493FD859193FFC5
:1038E00081916F01853221F4B70190E0E1D1E8CFF9
:1038F000512C312C20E02032A0F48B3269F030F4CE
:10390000803259F0833269F420612CC08D3239F055
:10391000803339F4216026C02260246023C02860EF
:1039200021C027FD27C030ED380F3A3078F426FF4C
:1039300006C0FAE05F9E300D1124532E13C08AE0BA
:10394000389E300D1124332E20620CC08E3221F4AB
:1039500026FD5FC1206406C08C3611F4206802C0C9
:10396000883641F4F60193FD859193FF81916F01B3
:103970008111C1CF982F9F7D9554933028F40C5F0F
:103980001F4FFFE3F9830DC0833631F0833771F0A9
:10399000833509F057C021C0F801808189830E5F0B
:1039A0001F4F44244394512C540114C03801F2E0B9
:1039B0006F0E711CF801A080B18026FF03C0652D39
:1039C00070E002C06FEF7FEFC5012C8766D12C013C
:1039D00083012C852F77222E16C03801F2E06F0E5E
:1039E000711CF801A080B18026FF03C0652D70E036
:1039F00002C06FEF7FEFC5012C8744D12C012C85CD
:103A00002068222E830123FC19C0832D90E04816E4
:103A10005906A0F4B70180E290E04AD13A94F5CF7C
:103A2000F50127FC859127FE81915F01B70190E0A8
:103A30003FD131103A94F1E04F1A5108411451042A
:103A400079F7DEC0843611F0893631F5F80127FFA9
:103A500007C060817181828193810C5F1F4F08C014
:103A600060817181882777FD8095982F0E5F1F4FA9
:103A70002F76B22E97FF09C090958095709561952D
:103A80007F4F8F4F9F4F2068B22E2AE030E0A40175
:103A900041D1A82EA81843C0853729F42F7EB22E15
:103AA0002AE030E025C0F22FF97FBF2E8F36C1F01B
:103AB00018F4883579F0ADC0803719F0883721F0D7
:103AC000A8C02F2F2061B22EB4FE0DC08B2D8460B4
:103AD000B82E09C024FF0AC09F2F9660B92E06C0D9
:103AE00028E030E005C020E130E002C020E132E013
:103AF000F801B7FE07C060817181828193810C5FFC
:103B00001F4F06C06081718180E090E00E5F1F4F03
:103B1000A40100D1A82EA818FB2DFF77BF2EB6FE5A
:103B20000BC02B2D2E7FA51450F4B4FE0AC0B2FC9E
:103B300008C02B2D2E7E05C07A2C2B2D03C07A2C8D
:103B400001C0752C24FF0DC0FE01EA0DF11D80811E
:103B5000803311F4297E09C022FF06C07394739448
:103B600004C0822F867809F0739423FD12C020FFD1
:103B700006C05A2C731418F4530C5718732C731472
:103B800060F4B70180E290E02C8792D073942C858A
:103B9000F6CF731410F4371801C0312C24FF11C074
:103BA000B70180E390E02C8783D02C8522FF16C0DC
:103BB00021FF03C088E590E002C088E790E0B701EC
:103BC0000CC0822F867851F021FD02C080E201C036
:103BD0008BE227FD8DE2B70190E06AD0A51430F4A6
:103BE000B70180E390E064D05A94F8CFAA94F4012E
:103BF000EA0DF11D8081B70190E05AD0A110F6CFF7
:103C0000332009F45DCEB70180E290E051D03A94C0
:103C1000F7CFF7018681978102C08FEF9FEF2C9637
:103C20000FB6F894DEBF0FBECDBFDF91CF911F91CD
:103C30000F91FF90EF90DF90CF90BF90AF909F904B
:103C40008F907F906F905F904F903F902F9008954E
:103C50000F931F93CF93DF93869F8001879F100D53
:103C6000969F100D1124C801E4DBEC01009721F0B0
:103C7000A80160E070E074DDCE01DF91CF911F916B
:103C80000F910895FC010590615070400110D8F724
:103C9000809590958E0F9F1F0895FC016150704094
:103CA00001900110D8F7809590958E0F9F1F089571
:103CB0000F931F93CF93DF93182F092FEB018B8165
:103CC00081FD03C08FEF9FEF20C082FF10C04E81A7
:103CD0005F812C813D81421753077CF4E881F98193
:103CE0009F012F5F3F4F39832883108306C0E885EB
:103CF000F985812F1995892B29F72E813F812F5F17
:103D00003F4F3F832E83812F902FDF91CF911F91C3
:103D10000F910895FA01AA27283051F1203181F13D
:103D2000E8946F936E7F6E5F7F4F8F4F9F4FAF4FC3
:103D3000B1E03ED0B4E03CD0670F781F891F9A1FD6
:103D4000A11D680F791F8A1F911DA11D6A0F711D8A
:103D5000811D911DA11D20D009F468943F912AE096
:103D6000269F11243019305D3193DEF6CF0108957E
:103D7000462F4770405D4193B3E00FD0C9F7F6CFAF
:103D8000462F4F70405D4A3318F0495D31FD405277
:103D9000419302D0A9F7EACFB4E0A695979587950D
:103DA00077956795BA95C9F70097610571050895EC
:103DB0009B01AC010A2E0694579547953795279598
:103DC000BA95C9F7620F731F841F951FA01D089530
:103DD000B7FF06CB05DB821B930B0895F894FFCF4A
:103DE00000000D0580000100000001686B0000006C
:103DF000000000007A73677400C8444600046546FA
:103E00008986844E30466E676972696D2070616B79
:103E100065742067616E2000686F7265206B69743D
:103E2000612064617065742070616B65742000703E
:103E3000616B657420696E69207369682070756EA6
:103E40007961207361796120006164612070616B28
:103E500065742079616E6720646974657275736931
:103E60006E200079616E6720646974616E676B65AE
:103E7000703A200054454B414E2027542720554E80
:103E800054554B204D4153554B204B452053494EE3
:103E90004B204D4F44452C205320554E54554B201C
:103EA0004D4153554B204B452053454E534F5220C7
:103EB0004D4F44450A0D0025630A0D0053415941F9
:103EC000204144414C41482053494E4B0A0D005378
:103ED000415941204144414C414820534F555243A0
:103EE000450A0D004D4153554B4B414E2041444432
:103EF00052204E4F444520494E493A20000A0D4178
:103F00004444523A202534780A0D0073656D5F6988
:103F10006E697420676167616C0A0D00726F757459
:103F2000696E67006E6F64655F7376630052554E0D
:103F30004E494E47205441534B0A0D00E1AAAAAA0C
:103F4000AA000000D2AAAAAAAA000000D4AAAAAA7B
:103F500000000000D6AAAAAAAA000000D8AAAAAA0D
:103F6000AA00000000000000AE051F0703051C05A5
:103F70000E058D050D0A006E616E00696E66006F9C
:0A3F80007666002E0049444C45000F
:00000001FF
