:10000000FAC1000028C2000026C2000024C200007D
:1000100022C2000020C200001EC200001CC200005C
:100020001AC200000C940C110C940C110C940C11BD
:1000300012C2000010C200000EC200000CC200007C
:100040000AC2000008C2000006C2000004C200008C
:1000500002C200000C942710FEC100000C94040999
:10006000FAC1000007C600003BC60000F4C1000052
:10007000F2C10000F0C10000EEC10000ECC10000C0
:10008000EAC10000E8C10000E6C10000E4C10000D0
:10009000E2C10000E0C10000DEC10000DCC10000E0
:1000A000DAC10000D8C10000D6C10000D4C10000F0
:1000B000D2C10000D0C10000CEC10000CCC1000000
:1000C000CAC10000C8C10000C6C10000C4C1000010
:1000D000C2C10000C0C10000BEC10000BCC1000020
:1000E000BAC1000081198419731977197D19BB19D8
:1000F00088198C19921996199A19A019A419A81976
:10010000BB19AE19B219B6192C002C005041205061
:100110006F77657209203D2025530D0A0043524335
:10012000204C656E67746809203D2025530D0A0038
:100130004D6F64656C0909203D2025530D0A00446C
:10014000617461205261746509203D2025530D0AB8
:100150000044594E50442F464541545552450043A2
:100160004F4E4649470052465F5345545550005242
:10017000465F434800454E5F525841444452004553
:100180004E5F41410052585F50575F50302D36004E
:1001900054585F414444520052585F414444525FB6
:1001A00050322D350052585F414444525F50302D3B
:1001B00031000D0A002530327800203078002553B8
:1001C000092563203D000D0A002030782530327863
:1001D000002553092563203D004F425345525645A3
:1001E0005F54583D253032783A20504F4C535F438E
:1001F0004E543D2578204152435F434E543D25786F
:100200000D0A005354415455530909203D203078BC
:10021000253032782052585F44523D25782054587A
:100220005F44533D2578204D41585F52543D257819
:100230002052585F505F4E4F3D25782054585F46FE
:10024000554C4C3D25780D0A0000010203040511B0
:1002500012131415160A0B0C0D0E0F790272026B95
:1002600002630250415F48494748004C415F4D4599
:10027000440050415F4C4F570050415F4D494E0084
:1002800095028E028602313620626974730038202E
:10029000626974730044697361626C656400AC02E6
:1002A000A2026E524632344C30312B006E5246322E
:1002B000344C303100C902C302BB023235304B42EC
:1002C000505300324D42505300314D4250530000C4
:1002D000000A0B02090C0D0E0807030401000000C0
:1002E000000000000000000000000000000000000E
:1002F00000000000000000000000001211100000CB
:1003000000000000000000000000000000000000ED
:1003100000000000000102102020080810204010FA
:1003200020408002010201080402010102040810B9
:1003300020408080402010080402018004020180D7
:100340004020100804020108040201010204081000
:1003500020408001020408102040800505050507A3
:100360000508080808020202020A0A080804040430
:10037000040101010101010101030303030303035C
:1003800003040707070C0C0C0C0C0C0C0C020202EB
:100390000206060606060606060B0B0B0B0B0B0BDE
:1003A0000B000020002300260029002C002F003223
:1003B00000000100000301060109010000220025E0
:1003C0000028002B002E003100340002010000053F
:1003D0000108010B0100002100240027002A002D44
:1003E000003000330001010000040107010A010090
:1003F0009104A206A40411241FBECFEFD1E2DEBFF8
:10040000CDBF00E00CBF13E0A0E0B2E0EAE5F3E40A
:1004100000E00BBF02C007900D92A83AB107D9F7D0
:1004200025E0A8EAB3E001C01D92A23BB207E1F7C4
:1004300013E0C4EFD3E000E006C022970109FE01FB
:100440000BBF0E94811AC03FD10780E00807A9F7BF
:10045000D1D60C949C21D4CD4EE24150242F30E0D3
:10046000FC01E20FF31F5081FB01E20FF31F5083E9
:100470004111F3CF0895CF93C82FE0915704F09125
:1004800058040190F081E02D682F87E594E01995DC
:100490008C2F992787FD9095CF910895809108041E
:1004A0008130E1F780910D048130C1F78091030420
:1004B0008130A1F740910404509105046091060435
:1004C000709107042AE030E087E594E08FD56AE078
:1004D00071E087E594E0B7D44091090450910A0493
:1004E00060910B0470910C0422E030E087E594E009
:1004F0006FD668E071E087E594E0A5D44091FF03F2
:1005000050910004609101047091020422E030E0F7
:1005100087E594E05ED610920D04109208041092C4
:100520000304BCCFC1E0809103048111FCCF8EE1B4
:1005300094E00E943C136093FF0370930004809347
:10054000010490930204C0930304EDCFC1E08091B5
:1005500008048111FCCF8EE194E00E944713609360
:100560000404709305048093060490930704C093D9
:100570000804EDCFC1E080910D048111FCCF8EE124
:1005800094E00E9429136093090470930A048093F5
:100590000B0490930C04C0930D04EDCF60E070E069
:1005A0008BE392E00C94631EEF92FF920F931F93E4
:1005B000CF93DF93CDB7DEB7AE970FB6F894DEBF1B
:1005C0000FBECDBF7C01BE016F5F7F4F45DF26E0D0
:1005D00032E03F932F930E94AD1E87018EE2E80E1A
:1005E000F11C0F900F900E151F0549F0F801819135
:1005F0008F01992787FD90950E94E11EF4CF81E736
:1006000092E09F938F930E94AD1E8EE094E00E9433
:100610000E164EE2BE016F5F7F4F8EE094E00E94A7
:10062000BE16182F8EE094E00E94E0150F900F90F8
:10063000812FAE960FB6F894DEBF0FBECDBFDF910F
:10064000CF911F910F91FF90EF90089579E4E72EDD
:1006500072E0F72EC1E7D2E0EFE2CE2EE2E0DE2E2E
:10066000AA24AA94FFE7BF2E8EE094E00E948F1682
:10067000811110C08091AC039091AD039093E6037B
:100680008093E503B092E803A092E7038CED93E03A
:100690008BDF71C04EE26EEA73E08EE094E00E9460
:1006A00092168823B9F38091B10390E0982F8827A0
:1006B0002091B003822B4091AC035091AD03209167
:1006C000B30330E0322F22276091B203262B241788
:1006D0003507C1F468E172E087E594E0E2D30EEA01
:1006E00013E0F80181918F01992787FD90950E9471
:1006F000E11EF3E00C3D1F07A0F3DF93CF930E94B0
:10070000AD1E37C084179507A9F4DF92CF920E94DF
:10071000AD1E0EEA13E00F900F90F80181918F014A
:10072000992787FD90950E94E11EF3E00C3D1F077D
:10073000A0F3E3CFFF92EF920E94AD1E0EEA13E00A
:100740000F900F90F80181918F01992787FD909567
:100750000E94E11EF3E00C3D1F07A0F3DF93CF934F
:100760000E94AD1E4EE26EEA73E08EE094E00E94BD
:10077000BE160F900F9084E190E00E94E70C74CFBA
:10078000CF93DF931F92CDB7DEB740E855E260E02C
:1007900070E088E394E00E940F1226E040E855E202
:1007A00060E070E087E594E003D2F8DE8EE094E04C
:1007B0000E944C1860E070E08EE094E00E94EE171A
:1007C0004FE06FE08EE094E00E942F1901EE1AEAEC
:1007D0002AEA3AEA4AEA50E060E070E08EE094E00B
:1007E0000E9415174BE0C42E43E0D42E71E0F601B1
:1007F000E080F18002811381248135814681578117
:10080000F8E0CF0ED11C672F8EE094E079830E9430
:100810004E1779817F5F773051F78EE094E00E9428
:10082000E0158EE094E00E94A2188EEF9FEF0E94E8
:10083000D420182F8FEF9FEF0E94D420212F30E07B
:10084000322F2227282B3093AD032093AC033F9304
:100850002F9383E692E09F938F930E94AD1EA12C6D
:10086000B12CC12CD12CBDEFEB2EB3E0FB2E01E05F
:1008700020E030E04EE551E064E772E08AEB92E080
:100880002ED61BEFE12E13E0F12E20E030E044EFF6
:1008900051E06FE772E086EA92E021D689EFE82E18
:1008A00083E0F82E20E030E048EC50E069E872E0A8
:1008B00082E992E014D697EFE92E93E0F92E20E03A
:1008C00030E040E951E068E972E08EE492E007D65A
:1008D0002AEAE22E23E0F22E20E030E04AEF50E058
:1008E00062EA72E086E293E0FAD538EAE32E33E07A
:1008F000F32E20E030E044E650E06FEA72E088EA50
:1009000094E0EDD5F2D68CEB92E09F938F930E940A
:10091000AD1E0F900F900F900F900F900F90FFCF84
:10092000089520E04CE06DE088E394E00E94E1113E
:1009300068E374E08EE194E00E94C7124AE069E047
:100940008EE094E00C94C71588E394E00C948A112F
:10095000CCECD2E00FEE12E087E594E01AD0892BC0
:1009600099F0DF93CF930E94AD1E0F900F9087E513
:1009700094E028D00E942E1E8335C9F71F930F9351
:100980000E94AD1E0F900F9082E390E00E94E70C52
:10099000E3CFFC01818D228D90E0805C9F4F821B14
:1009A00091098F7399270895FC01918D828D981775
:1009B00031F0828DE80FF11D858D90E008958FEF65
:1009C0009FEF0895FC01918D828D981761F0828DC3
:1009D000DF01A80FB11D5D968C91928D9F5F9F7373
:1009E000928F90E008958FEF9FEF089589E996E048
:1009F000892B39F080E090E0892B19F09AD1811190
:100A000025C080E090E0892B41F080E090E0892BC8
:100A100021F00E94000081111CC080E090E0892B31
:100A200041F080E090E0892B21F00E9400008111CC
:100A300013C080E090E0892BA1F080E090E0892B4A
:100A400081F00E94000081110AC008950E940000F8
:100A5000D8CF0E940000E1CF0E940000EACF0C94A2
:100A600000000895FC01848DDF01A80FB11DA35A79
:100A7000BF4F2C91848D90E001968F739927848FBE
:100A8000A689B7892C93A089B1898C9180648C93B5
:100A9000938D848D981306C00288F389E02D8081A0
:100AA0008F7D80830895CF93DF93EC01888D882319
:100AB000C1F0EA89FB89808185FD05C0A889B989D3
:100AC0008C9186FD0EC00FB607FCF5CF808185FFA7
:100AD000F2CFA889B9898C9185FFEDCFCE01C2DF15
:100AE000E8CFDF91CF910895CF92DF92FF920F93DD
:100AF0001F93CF93DF931F92CDB7DEB76C0181E0D8
:100B0000D60158968C9358975B969C915B975C9610
:100B10008C915C97981307C05096ED91FC9151977A
:100B2000808185FD2DC0F601038D10E00F5F1F4F02
:100B30000F731127F02EF601848DF81210C00FB636
:100B400007FCF9CFD6015096ED91FC915197808129
:100B500085FFF1CFC601698385DF6981ECCF838D85
:100B6000E80FF11DE35AFF4F6083D6015B960C93AB
:100B70005B975296ED91FC915397808180620CC0F7
:100B8000D6015696ED91FC91579760835096ED9162
:100B9000FC91519780818064808381E090E00F9088
:100BA000DF91CF911F910F91FF90DF90CF9008952B
:100BB000BF92CF92DF92EF92FF92CF93DF93EC013F
:100BC0006A017B01B22EE889F98982E080834115B0
:100BD00081EE580761057105A1F060E079E08DE3D1
:100BE00090E0A70196010E943D1A21503109410968
:100BF00051095695479537952795211580E1380776
:100C000098F0E889F989108260E874E88EE190E054
:100C1000A70196010E943D1A21503109410951094D
:100C20005695479537952795EC85FD853083EE855C
:100C3000FF852083188EEC89FD89B082EA89FB89C3
:100C4000808180618083EA89FB89808188608083DC
:100C5000EA89FB89808180688083EA89FB898081B9
:100C60008F7D8083DF91CF91FF90EF90DF90CF90C9
:100C7000BF9008951F920F920FB60F9211240BB6DA
:100C80000F922F938F939F93EF93FF93E0916704BD
:100C9000F09168048081E0916D04F0916E0482FD12
:100CA00012C09081809170048F5F8F7320917104C6
:100CB000821751F0E0917004F0E0E95AFB4F958FF4
:100CC0008093700401C08081FF91EF919F918F917B
:100CD0002F910F900BBE0F900FBE0F901F90189585
:100CE0001F920F920FB60F9211240BB60F922F93F3
:100CF0003F934F935F936F937F938F939F93AF93A4
:100D0000BF93EF93FF9387E594E0ACDEFF91EF9103
:100D1000BF91AF919F918F917F916F915F914F9113
:100D20003F912F910F900BBE0F900FBE0F901F9011
:100D3000189587E594E02DDE21E0892B09F420E069
:100D4000822F089510925A041092590488EE93E06D
:100D5000A0E0B0E080935B0490935C04A0935D04FA
:100D6000B0935E0487E393E0909358048093570414
:100D700085EC90E0909364048093630484EC90E0AD
:100D8000909366048093650480EC90E090936804EF
:100D90008093670481EC90E090936A0480936904E7
:100DA00082EC90E090936C0480936B0486EC90E06E
:100DB00090936E0480936D041092700410927104ED
:100DC00010927204109273040895CF92DF92EF9202
:100DD000FF920F931F93CF93DF937C016A01EB0186
:100DE00000E010E00C151D0571F06991D701ED913F
:100DF000FC910190F081E02DC7011995892B19F024
:100E00000F5F1F4FEFCFC801DF91CF911F910F915F
:100E1000FF90EF90DF90CF9008956115710581F0FC
:100E2000DB010D900020E9F7AD0141505109461B4F
:100E3000570BDC01ED91FC910280F381E02D1994B8
:100E400080E090E00895EF92FF920F931F93CF936D
:100E5000DF938C017B01C0E0D0E0F701EC0FFD1FB8
:100E60006491662359F0F801A081B181ED91FC9164
:100E7000C8011995892B11F02196EFCFCE01DF9192
:100E8000CF911F910F91FF90EF900895C6CFDC0195
:100E9000ED91FC910190F081E02D199463E473E0F1
:100EA000BCCF0F931F93CF93DF93EC01B6DF8C0180
:100EB000CE01F4DF800F911FDF91CF911F910F9131
:100EC00008958F929F92AF92BF92DF92EF92FF921E
:100ED0000F931F93CF93DF93CDB7DEB7A1970FB6D4
:100EE000F894DEBF0FBECDBF7C01F42FD52ECB0111
:100EF00019A2223008F42AE08E010F5D1F4F822EC6
:100F0000912CA12CB12C6F2F7D2DA50194010E9455
:100F10003D1AF22FD32ECA01015011096A3014F480
:100F2000E0E301C0E7E3E60FD801EC93232B242B89
:100F3000252B49F7B801C70170DFA1960FB6F894C9
:100F4000DEBF0FBECDBFDF91CF911F910F91FF90FC
:100F5000EF90DF90BF90AF909F908F900895CF92C9
:100F6000DF92EF92FF920F931F93CF93DF93EC01E9
:100F70006A017B012115310579F4E881F98101903D
:100F8000F081E02D642FDF91CF911F910F91FF90A1
:100F9000EF90DF90CF9019942A303105D9F477FF84
:100FA00018C06DE274DF8C0144275527BA014C1933
:100FB0005D096E097F092AE0CE0183DF800F911F52
:100FC000DF91CF911F910F91FF90EF90DF90CF9025
:100FD00008952AE0B701A601CE01DF91CF911F91BC
:100FE0000F91FF90EF90DF90CF906BCF21153105DF
:100FF00041F4DC01ED91FC910190F081E02D642F32
:1010000019945FCF4F925F926F927F928F929F92CF
:10101000AF92BF92CF92DF92EF92FF920F931F9306
:10102000CF93DF93EC016A017B01B22E9A01AB01F1
:10103000C701B6010E94C01C882319F066E473E062
:1010400027C026013701E89477F82FEF3FEF4FE7ED
:101050005FE7C301B2010E94C01C81110DC02FEFD8
:101060003FEF4FE75FE7C301B2010E940A1B18166A
:101070001CF46AE473E00CC02FEF3FEF4FE75FE42E
:10108000C701B6010E94591C1816A4F46EE473E05F
:10109000CE01DF91CF911F910F91FF90EF90DF90E4
:1010A000CF90BF90AF909F908F907F906F905F9008
:1010B0004F90B3CE2FEF3FEF4FE75FECC701B60184
:1010C0000E940A1B87FDE2CF20E030E0A901C701A2
:1010D000B6010E940A1B87FF09C06DE2CE01D7DE70
:1010E0008C01F7FAF094F7F8F09402C000E010E0F9
:1010F000A12C60E070E080E09FE3AB1441F020E0C1
:1011000030E040E251E40E940E1BA394F6CF9B0115
:10111000AC01C701B6010E94A61A6B017C010E94B6
:101120007B1B2B013C010E94A71B9B01AC01C7014B
:10113000B6010E94A51A6B017C012AE0B301A2014D
:10114000CE01BFDE080F191FBB2031F062E573E04E
:10115000CE0163DE080F191F7B2C772039F120E0C8
:1011600030E040E251E4C701B6010E945D1C6B0112
:101170007C010E94761B4B01AA2497FCA094BA2CF8
:101180002AE030E0B501A401CE01E9DE080F191F05
:10119000C501B4010E94A91B9B01AC01C701B601A6
:1011A0000E94A51A6B017C017A94D7CFC801DF9108
:1011B000CF911F910F91FF90EF90DF90CF90BF9054
:1011C000AF909F908F907F906F905F904F90089519
:1011D00019CF0F931F93CF93DF93EC0113DF8C0193
:1011E000CE015CDE800F911FDF91CF911F910F9197
:1011F00008950895C4D0FDDFC3DAC6EFD4E090DBD4
:101200002097E9F3F3DBFBCF1F920F920FB60F92FB
:1012100011242F933F938F939F93AF93BF9380910C
:10122000F5049091F604A091F704B091F804309180
:10123000F40423E0230F2D3720F40196A11DB11DE6
:1012400005C026E8230F0296A11DB11D2093F404CA
:101250008093F5049093F604A093F704B093F804F8
:101260008091F9049091FA04A091FB04B091FC04E0
:101270000196A11DB11D8093F9049093FA04A093E7
:10128000FB04B093FC04BF91AF919F918F913F916C
:101290002F910F900FBE0F901F9018952FB7F894B5
:1012A0006091F5047091F6048091F7049091F80430
:1012B0002FBF08953FB7F8948091F9049091FA04F4
:1012C000A091FB04B091FC0426B5A89B05C02F3F5C
:1012D00019F00196A11DB11D3FBF6627782F892FF8
:1012E0009A2F620F711D811D911D42E0660F771FBD
:1012F000881F991F4A95D1F708958F929F92AF92B8
:10130000BF92CF92DF92EF92FF926B017C01D2DF0E
:101310004B015C01C114D104E104F104E1F091D06E
:10132000C9DF681979098A099B09683E73408105FC
:10133000910580F321E0C21AD108E108F10888EE96
:10134000880E83E0981EA11CB11CC114D104E104D5
:10135000F10431F7DFCFFF90EF90DF90CF90BF9097
:10136000AF909F908F9008958230910538F0880F4C
:10137000991F880F991F05970197F1F708957894A1
:1013800084B5826084BD84B5816084BD85B582608A
:1013900085BD85B5816085BDEEE6F0E08081816028
:1013A0008083E1E8F0E01082808182608083808128
:1013B00081608083E0E8F0E0808181608083E1EB00
:1013C000F0E0808184608083E0EBF0E080818160E8
:1013D0008083E1E9F0E080818260808380818160A8
:1013E0008083E0E9F0E0808181608083E1EAF0E0E1
:1013F000808182608083808181608083E0EAF0E088
:10140000808181608083E1E2F1E08081826080837D
:10141000808181608083E0E2F1E08081816080836F
:10142000EAE7F0E08081846080838081826080834D
:101430008081816080838081806880831092C10078
:1014400008950895E0912905F0912A058081811180
:1014500003C08FEF9FEF0CC0E0912905F0912A05A2
:101460000580F681E02D0680F781E02D8281938151
:101470009093FF048093FE040895CF93DF93EC01D3
:10148000E0916105F0916205938382838091060566
:10149000909107056091610570916205C817D907A1
:1014A00048F480912705909128056E5F7F4FDF916A
:1014B000CF9106C48091290590912A056E5F7F4FD8
:1014C000FFD38091FE049091FF04C817D90720F440
:1014D000D093FF04C093FE04DF91CF9108953F9213
:1014E0004F925F926F927F928F929F92AF92BF9234
:1014F000CF92DF92EF92FF920F931F93CF93DF93E0
:101500004C01162F372E5A013901009709F463D385
:10151000802F90E004970CF05ED3C114D10431F415
:10152000C50165D36C01009709F4CCC089E290E055
:101530005ED3EC010097A1F0D88ECF8AA50165EAB1
:1015400070E0C6010E943F1E21E0A21AB1084F8838
:10155000588C4A0C5B1CE12FF32D80E090E007C013
:10156000C60162D3AFC001968830910561F0BF011A
:1015700041919E01280F391FD90159964C93DB01E7
:101580002C912111F0CF18A2102F043008F013E095
:101590001E8B19A31AA26E01B2E0CB0ED11CC6019C
:1015A0006AD3CE010C9667D3D987C88784E090E0D0
:1015B000811B91099D878C87DB8BCA8B1BA21CA288
:1015C0001DA21EA218A61FA2A301B401C201D3D35B
:1015D00099838883E114F10419F0F701D183C08362
:1015E0000FB6F8940F92809108058F5F80930805DD
:1015F0008091610590916205892B89F5D0936205F0
:10160000C093610580910805813009F037C08DE3F2
:1016100095E023D386E495E020D38FE495E01DD3B5
:1016200088E595E01AD384E395E017D38BE295E043
:1016300014D38EE195E011D385E195E00ED38BE0D4
:1016400095E00BD384E395E090932A0580932905D8
:101650008BE295E090932805809327050FC0809139
:10166000040581110BC0E0916105F0916205868946
:10167000081720F0D0936205C093610580910005A2
:101680008F5F809300058E8990910505981710F45F
:1016900080930505F9E08F9FC0011124B601835C9A
:1016A0009A4FEDD20F900FBE80910405882341F030
:1016B000E0916105F09162058689801708F405D4F0
:1016C00081E001C08FEFDF91CF911F910F91FF90CB
:1016D000EF90DF90CF90BF90AF909F908F907F90D2
:1016E0006F905F904F903F900895AF92BF92CF92CE
:1016F000DF92EF92FF920F93A12CB12CC12CD12C31
:1017000089E0E82E85E0F82E00E020E030E044E6B5
:1017100050E064E573E08BE09DE0E1DE8130B1F400
:10172000F8948FEF9FEF9093FF048093FE0481E085
:101730008093040510920705109206050F91FF9003
:10174000EF90DF90CF90BF90AF9087C3811108C01A
:101750000F91FF90EF90DF90CF90BF90AF903BC282
:101760000F91FF90EF90DF90CF90BF90AF900895D2
:101770008091FD048F5F8093FD040895CF92DF92E6
:10178000EF92FF920F931F93CF93DF938091FD040D
:10179000811196C08091060590910705019690935E
:1017A00007058093060500910605109107050115B0
:1017B0001105E9F4E0912905F0912A058081811154
:1017C0000AD28091290590912A0520912705309110
:1017D000280530932A0520932905909328058093A6
:1017E0002705809101058F5F809301052BDE809195
:1017F000FE049091FF04D12C0817190708F44AC081
:1018000099E0C92EE0912905F0912A058081811186
:1018100007C08FEF9FEF9093FF048093FE043AC0C0
:10182000E0912905F0912A050580F681E02DC68119
:10183000D7812A813B810217130728F43093FF04D4
:101840002093FE0427C07E0182E0E80EF11CC70150
:101850006FD28C899D89892B19F0CE010C9668D2A4
:101860002E8980910505821710F420930505C29EEC
:10187000C0011124B701835C9A4F01D2E091610548
:10188000F09162059E898689981708F4BBCFDD2404
:10189000D394B8CFE0916105F0916205E68989E0C3
:1018A000E89FF0011124E35CFA4F8081823010F050
:1018B000DD24D39480910305811109C097D107C01D
:1018C000809103058F5F8093030590D1D12C809187
:1018D0000205882311F0DD24D3948D2DDF91CF9163
:1018E0001F910F91FF90EF90DF90CF900895EF92AE
:1018F000FF920F931F93CF93DF938091FD0481118B
:1019000001C069D10FB6F8940F928091FD04815007
:101910008093FD048091FD04882311F080E04EC087
:10192000809108058823D1F329E0F22EEE24E39478
:1019300080911E05882339F1E0912305F09124055B
:10194000C681D781CE010C96F3D18E010E5F1F4F59
:10195000C801EED18E8990910505981710F48093F7
:101960000505F89EC0011124B801835C9A4F87D108
:10197000E0916105F09162059E8986899817C0F211
:10198000E0920205D5CF80910305811108C08091B6
:101990000205813009F0C2CF98D281E00FC0C1E0CA
:1019A00080910305882399F3E9DE8111C093020534
:1019B00080910305815080930305F2CF0F900FBEF5
:1019C000DF91CF911F910F91FF90EF9008950F93AA
:1019D0001F93CF93DF938C01009711F476D216C03A
:1019E0008091FD048111F7D0C3DEC0910605D0912E
:1019F0000705C00FD11F8091610590916205029685
:101A000097D1CE013ADD73DF882341F3DF91CF9187
:101A10001F910F91089580911405882321F1A8DE6C
:101A2000C091150564DFCC23B1F30FB6F8940F9283
:101A3000E0911A05F0911B05C681D781CE0102966F
:101A400077D1809108058150809308058091140515
:101A50008150809314050F900FBE8F89988DE4D02C
:101A6000CE01E2D0D8CF80913D05823008F02DD252
:101A7000BBD0D1CFCF938091FD04882321F081E0AA
:101A80008093020572C010920205E0916105F09109
:101A900062050788F08DE02D80819181A281B3815C
:101AA000853A954AA54AB54AD9F484819581A6819B
:101AB000B781853A954AA54AB54A91F480859185C2
:101AC000A285B385853A954AA54AB54A49F48485E5
:101AD0009585A685B785853A954AA54AB54A59F0B0
:101AE0006091610570916205809161059091620538
:101AF000675E7F4F76D0C9E0E0910505CE9FF0018B
:101B00001124E35CFA4F808181110BC0809105059F
:101B1000811101C060D08091050581508093050539
:101B2000EBCFE091050589E0E89FF0011124E35C2B
:101B3000FA4FA181B28112960D90BC91A02DB28373
:101B4000A183CF010396A817B90731F412968D919E
:101B50009C911397928381830180F281E02D86818D
:101B600097819093620580936105CF910895EC0170
:101B7000F89461E08DE00E94BC1900E010E00C17C1
:101B80001D07F4F461E08DE00E94F51980E899EA00
:101B9000A3E0B0E000000197A109B109D9F760E026
:101BA0008DE00E94F51940E859EA63E070E000001A
:101BB0004150510961097109D1F70F5F1F4FDFCF04
:101BC00040E05AE668E170E00000415051096109C7
:101BD0007109D1F7D2CF81E090E0C9DF82E090E0D7
:101BE000C6DF83E090E0C3DF0C94900408950F9368
:101BF0001F93CF93DF931F921F92CDB7DEB78983D8
:101C00009A83B6DD89819A810E94C41C8C016FDEA3
:101C10000115110509F4E2DFC8010F900F90DF9163
:101C2000CF911F910F910895CF93DF931F921F9231
:101C3000CDB7DEB7009761F089839A8399DD8981FA
:101C40009A810E945C1D0F900F90DF91CF914FCE33
:101C50000F900F90DF91CF910895FC01039692832E
:101C600081832FEF3FEF348323839683858390878F
:101C7000878310820895FC01118610860895CF9302
:101C8000DF939C01FB01DC011196CD91DC91129751
:101C9000D383C2838C819D81958384838C819D8134
:101CA000DC0113967C936E9312977D836C8331874E
:101CB0002087F90180818F5F8083DF91CF91089524
:101CC0000F931F93CF93DF938C01FB012081318110
:101CD0002F3F8FEF380721F4E801AF81B8850EC0A0
:101CE000D801139612968D919C911397EC0148811F
:101CF00059812417350710F0DC01F4CF12968D912D
:101D00009C91139793838283EC01FD83EC83B583CD
:101D1000A4831396FC93EE93129711870087F80122
:101D200080818F5F8083DF91CF911F910F91089504
:101D3000CF93DF93FC01A085B185828193812481BB
:101D40003581EC013D832C83C481D5819B838A83BB
:101D500011968D919C9112978E179F0721F41296E0
:101D6000DC93CE931197118610868C9181508C93C1
:101D7000DF91CF91089531E1FC013083319722E268
:101D800020833197A3E3A0833197608331977083D9
:101D90003197108231971082319760E860833197D4
:101DA00010823197108231971082319762E0608300
:101DB000319763E06083319764E06083319765E039
:101DC0006083319766E06083319767E06083319785
:101DD00068E06083319769E06083319760E16083F8
:101DE00031973083319732E13083319733E130835B
:101DF000319734E13083319735E13083319736E1E3
:101E00003083319737E13083319738E13083319730
:101E100039E13083319730E23083319731E23083DA
:101E200031972083319723E2208331974083319784
:101E30005083319726E22083319727E22083319720
:101E400028E22083319729E22083319720E3208301
:101E5000319721E320838997089581E087BDEEE6DD
:101E6000F0E0808182608083A0916105B09162057D
:101E7000CD91CDBFDD91DEBFFF91EF91DF91CF918D
:101E8000BF91AF919F918F917F916F915F914F9192
:101E90003F912F911F910F91FF90EF90DF90CF9086
:101EA000BF90AF909F908F907F906F905F904F907A
:101EB0003F902F901F900F900CBE0F900BBE0F9075
:101EC0000FBE0F90089581E008950F920FB6F89419
:101ED0000F920BB60F920CB60F921F9211242F92F5
:101EE0003F924F925F926F927F928F929F92AF92AA
:101EF000BF92CF92DF92EF92FF920F931F932F9397
:101F00003F934F935F936F937F938F939F93AF9381
:101F1000BF93CF93DF93EF93FF93A0916105B091AF
:101F200062050DB60D920EB60D92A4DDA09161056D
:101F3000B0916205CD91CDBFDD91DEBFFF91EF91F4
:101F4000DF91CF91BF91AF919F918F917F916F91D1
:101F50005F914F913F912F911F910F91FF90EF90C3
:101F6000DF90CF90BF90AF909F908F907F906F90B9
:101F70005F904F903F902F901F900F900CBE0F904E
:101F80000BBE0F900FBE0F9008950F920FB6F894EE
:101F90000F920BB60F920CB60F921F9211242F9234
:101FA0003F924F925F926F927F928F929F92AF92E9
:101FB000BF92CF92DF92EF92FF920F931F932F93D6
:101FC0003F934F935F936F937F938F939F93AF93C1
:101FD000BF93CF93DF93EF93FF93A0916105B091EF
:101FE00062050DB60D920EB60D92C8DB811142DD71
:101FF000A0916105B0916205CD91CDBFDD91DEBFAD
:10200000FF91EF91DF91CF91BF91AF919F918F9110
:102010007F916F915F914F913F912F911F910F9100
:10202000FF90EF90DF90CF90BF90AF909F908F90F8
:102030007F906F905F904F903F902F901F900F90E8
:102040000CBE0F900BBE0F900FBE0F9008959DDF3A
:1020500018952091A5053091A60528173907B9F4E0
:102060009091630580916405981789F0E09163056C
:10207000F0E0EB59FA4F80812091630530E02F5F4B
:102080003F4F2F7333272093630590E008958FEF20
:102090009FEF08951F93CF93DF93DC015C968D91A2
:1020A0009C915D97009749F481E090E013969C9392
:1020B0008E93129780E090E03BC05196ED91FC9199
:1020C000529750962C915097322F30951FB75E96AD
:1020D0004C915E9741FB772770F941FD6095F8942C
:1020E0004081772311F0422B01C043234083EC0150
:1020F0002197F1F748E0508160FF02C0522B01C0E8
:1021000053235083EC012197F1F76695415099F7DD
:102110008081772311F0832301C0822B80831FBF2E
:102120005C968D919C915D970197F1F781E090E02D
:10213000DF91CF911F91089508952091A5053091C9
:10214000A6052817390781F49091630580916405ED
:10215000981751F0E0916305F0E0EB59FA4F808158
:10216000992787FD909508958FEF9FEF089520910F
:10217000A5053091A6052817390769F480916405F3
:102180002091630590E0805C9F4F821B910960E481
:1021900070E00C942A1A80E090E00895E091A50583
:1021A000F091A605E817F90769F4A389B4899C9111
:1021B0008589809589238C931092A6051092A50598
:1021C00081E0089580E00895CF93DF93EC018A8D3C
:1021D0009B8D892BE9F08091A5059091A6058C1720
:1021E0009D07B1F0009709F0D9DF8E8D8E7F8E8F1D
:1021F0001092640510926305D093A605C093A505BF
:10220000EB89FC8980819D89892B808381E001C0D5
:1022100080E0DF91CF9108951F920F920FB60F9239
:1022200011240BB60F922F933F934F935F936F93AD
:102230007F938F939F93AF93BF93EF93FF93E0911F
:10224000A505F091A605309709F451C0868DA685A5
:10225000B785958581FF04C08C91892329F447C0F7
:102260008C91892309F043C0A389B4899C91858905
:10227000809589238C93868997890197F1F7208D22
:10228000318DA685B785758558E040E0C901019775
:10229000F1F7842F90E095958795482F6C916723EF
:1022A00009F04068515091F7868D81FD40958091ED
:1022B000640590E001968F73992720916305281794
:1022C00049F0A0916405B0E0AB59BA4F4C938093AC
:1022D000640503C0868D8160868F828D938D019702
:1022E000F1F7A389B4898C919589892B8C93FF91FF
:1022F000EF91BF91AF919F918F917F916F915F917E
:102300004F913F912F910F900BBE0F900FBE0F90EA
:102310001F9018952DE533E0FC01318320833ECFDB
:102320001F93CF93DF93EC01162F6E8D669561702E
:1023300081E06827812F0E94F51961E0812F0E94BA
:10234000BC19812F90E0FC01EB5EFC4FE491E88B1F
:10235000FC01E55AFC4FE491F0E0EE0FFF1FE5545D
:10236000FC4F859194919A8B898BDF91CF911F912E
:1023700008951F93CF93DF93EC01162F60E0812F18
:10238000FBD78E8D81FD04C061E0812F0E94F5197D
:102390001C87812F90E0FC01EB5EFC4FE491ED8700
:1023A000FC01E55AFC4FE491F0E0EE0FFF1FEF5502
:1023B000FC4F859194919F878E87DF91CF911F91DC
:1023C0000895FF920F931F93CF93DF93EC01F62EA6
:1023D000522F1B821A8208EE13E020E030E00C83BB
:1023E0001D832E833F838DE593E0998388831F8A25
:1023F0001E8A198E188E1B8E1A8E1D8E1C8E8E8D27
:102400008E7F50FB81F98E8F642FCE0189DF6F2D77
:10241000CE01DF91CF911F910F91FF90AACF0F9323
:102420001F93CF93DF93EC019A01AB011B8E1A8EA1
:10243000198E188E1F8A1E8A60E079E08DE390E085
:102440000E945F1AC9012430310520F0B9016350A0
:10245000710902C061E070E07D8F6C8F1C8506EF12
:10246000010F043048F06EEC610F643028F062EC2C
:10247000610F683008F07DC0B901769567956431C9
:10248000710518F06351710902C061E070E07F8B43
:102490006E8B069718F0C901059702C081E090E0A5
:1024A000998F888FC901880F991F820F931F969566
:1024B0008795969587958D30910510F00C9702C001
:1024C00081E090E09B8F8A8F043060F08EEC810F6A
:1024D000843040F082EC810F883008F050C0A8E6CC
:1024E000B0E04FC0A8E6B0E0E8E6F0E0908104304C
:1024F00028F01E53183010F484E001C081E0892BCD
:102500008C932C8536EF320F343058F08EEC820FDE
:10251000843038F082EC820F883030F48DE690E021
:1025200005C08BE690E002C080E090E09C8B8B8B36
:10253000343010F426500BC0223379F0233379F075
:10254000243379F082EC820F883068F4282F81E000
:1025500001C0880F2A95EAF707C088E005C084E02B
:1025600003C082E001C081E08D8B8C8D9D8D019731
:10257000F1F7CE01DF91CF911F910F9125CEA0E011
:10258000B0E0883008F4B0CFE0E0F0E0AFCFFC017D
:10259000758364830895CF93DF93EC018C819D81D3
:1025A0000E94460763E473E08C819D81DF91CF91A7
:1025B0000C9446070F931F93CF93DF93EC01EBDF4F
:1025C0001E8268EC70E080E090E00E947D0900E0EF
:1025D00010E08C819D81DC01ED91FC910480F581FE
:1025E000E02D1995892B81F00F5F1F4F8C819D8104
:1025F000DC01ED91FC910680F781E02D1995FE013B
:10260000E00FF11F8583E5CFFE01E00FF11F168279
:102610008E81843589F4CE010B960E94EB1DBC019E
:10262000882777FD8095982F2A85213069F4685195
:102630007C4F8F4F9F4F08C0CE010896DF91CF91FE
:102640001F910F910C94081EDF91CF911F910F9154
:1026500008956AEC72E0AEDF80E090E00E94A71B74
:1026600020E030E04AE754E470D72DEC3CEC4CEC31
:102670005DE30C945D1C089566E873E09BDF0E94A7
:10268000A71B2DEC3CEC4CEC5DE30C945D1C6AE864
:1026900073E090CF8EBD00000DB407FEFDCF8EB568
:1026A00008952CB52F7D2CBD2CB5237F2CBD2CB5CA
:1026B0002C7F2CBD2DB52E7F2DBDFC01818195C6B3
:1026C000FC01808192C6CF92DF92EF92FF920F932E
:1026D0001F93CF93DF931F921F92CDB7DEB78C016C
:1026E000E62EF22E60E070E049835A83DADF8E2D09
:1026F0008F71D0DFE82E4981C42E5A81D52EF40E79
:10270000FC1431F08FEFC6DFF60181936F01F8CF33
:1027100061E070E0C801C5DF8E2D0F900F90DF9152
:10272000CF911F910F91FF90EF90DF90CF90089580
:102730001F93CF93DF93EC01162F60E070E0B1DFC1
:10274000812F8F71A7DF8FEFA5DF182F61E070E079
:10275000CE01A7DF812FDF91CF911F910895CF92F6
:10276000DF92EF92FF920F931F93CF93DF931F920D
:102770001F92CDB7DEB78C01E62EF22E60E070E03E
:1027800049835A838EDF8E2D8F71806283DFE82E1E
:102790004981C42E5A81D52EF40EFC1429F0F6017D
:1027A00081916F0177DFF9CF61E070E0C80179DFD7
:1027B0008E2D0F900F90DF91CF911F910F91FF9071
:1027C000EF90DF90CF900895EF92FF921F93CF93F9
:1027D000DF931F92CDB7DEB77C01162F60E070E06B
:1027E00049835FDF812F8F71806254DF182F498109
:1027F000842F50DF61E070E0C70153DF812F0F901D
:10280000DF91CF911F91FF90EF900895BF92CF92EB
:10281000DF92EF92FF920F931F93CF93DF938C0180
:10282000D62EB72EFC01C481F42EC41708F4FC2E5A
:10283000F8018681811103C0EC2EEF1801C0E12C54
:1028400060E070E0C8012DDF80EA24DFC82ECD2DC6
:10285000DB2DFD0CFC1619F089911CDFFBCFCE2D72
:10286000CC2321F080E016DFC150FACF61E070E0A8
:10287000C80117DF8C2DDF91CF911F910F91FF9031
:10288000EF90DF90CF90BF900895BF92CF92DF92EC
:10289000EF92FF920F931F93CF93DF938C01D62E6D
:1028A000B72EFC01C481F42EC41708F4FC2EF801E5
:1028B0008681811103C0EC2EEF1801C0E12C60E08D
:1028C00070E0C801EEDE81E6E5DEC82ECD2DDB2D01
:1028D000FD0CFC1621F08FEFDDDE8993FACFCE2DB3
:1028E000CC2321F08FEFD6DEC150FACF61E070E04B
:1028F000C801D7DE8C2DDF91CF911F910F91FF90F2
:10290000EF90DF90CF90BF9008951F93CF93DF9308
:10291000EC0160E070E0C5DE82EEBCDE182F61E005
:1029200070E0CE01BEDE812FDF91CF911F9108951F
:102930001F93CF93DF93EC0160E070E0B2DE81EE95
:10294000A9DE182F61E070E0CE01ABDE812FDF91B0
:10295000CF911F9108951F93CF93DF93EC0160E017
:1029600070E09FDE8FEF96DE182F61E070E0CE0101
:1029700098DE812FDF91CF911F910895862F90E0EF
:10298000262F21701F922F939595879587709927F1
:102990009F938F9364FB882780F91F928F9365FB29
:1029A000882780F91F928F9366FB882780F91F92F2
:1029B0008F931F926F9383E092E09F938F930E9477
:1029C000BE1E8DB79EB70E960FB6F8949EBF0FBE73
:1029D0008DBF0895AF92BF92DF92EF92FF920F9357
:1029E0001F93CF93DF931F921F92CDB7DEB78C0159
:1029F000F42EE22ECB0169837A830E94361E698110
:102A00007A81089710F489E001C080E01F928F93CB
:102A10007F936F93E1EDF1E0FF93EF930E94BE1E71
:102A2000EF0C0F900F900F900F900F900F9039ECCC
:102A3000A32E31E0B32EFE1491F0DD24D394DF0CED
:102A40006F2DC80175DE1F928F93BF92AF920E94C7
:102A5000BE1E0F900F900F900F90FD2CECCF86ECC8
:102A600091E09F938F930E94BE1E0F900F900F9046
:102A70000F90DF91CF911F910F91FF90EF90DF901A
:102A8000BF90AF9008956F927F928F929F92AF9276
:102A9000BF92CF92DF92EF92FF920F931F93CF934B
:102AA000DF93CDB7DEB727970FB6F894DEBF0FBE22
:102AB000CDBF4C01142F722ECB016E837F830E94F9
:102AC000361E6E817F81089710F489E001C080E096
:102AD0001F928F937F936F93EEEBF1E0FF93EF9351
:102AE0000E94BE1E710E0F900F900F900F900F90CE
:102AF0000F90CE0101967C014AEBC42E41E0D42E0A
:102B000055EBA52E51E0B52E171521F166246394DF
:102B1000610E25E0A701612FC401D5DDDF92CF92C0
:102B20000E94BE1E8E010A5F1F4F0F900F900E1560
:102B30001F0571F0F80182918F011F928F93BF9250
:102B4000AF920E94BE1E0F900F900F900F90EFCF8C
:102B5000162DDACF82EB91E09F938F930E94BE1ED9
:102B60000F900F9027960FB6F894DEBF0FBECDBF23
:102B7000DF91CF911F910F91FF90EF90DF90CF9059
:102B8000BF90AF909F908F907F906F900895FC01C1
:102B90006083418381E08283138280E28483158293
:102BA000168210861186128613861486158616865E
:102BB00017860895462F603808F04FE765E004CE89
:102BC000CF93DF93EC0160E0B3DD482F436060E01A
:102BD000CE01FADD40E767E0CE01F6DD28853985D4
:102BE0004A855B856C857D858E859F85A0E08DD42B
:102BF00039F025E0AE01485F5F4F6AE0CE01AFDDFE
:102C0000CE0183DECE0194DE61E070E0CE0158DDBE
:102C100082E890E0DF91CF910C94B409CF93DF93D9
:102C2000EC0160E070E04CDDCE0182DECE01DF9190
:102C3000CF916BCECF93DF93EC0160E079DD482F2D
:102C40004D7F60E0CE01DF91CF91BECDFF920F931B
:102C50001F93CF93DF93EC018B01F42E60E068DDCE
:102C6000482F4C7F426060E0CE01AEDD86E990E007
:102C70000E94B4094F2DB801CE01C8DD61E070E0BB
:102C8000CE011EDD8FE090E00E94B40960E070E0AC
:102C9000CE01DF91CF911F910F91FF9011CD1F9326
:102CA000CF93DF93EC0160E070E0FBDC80E6F2DCC8
:102CB0008FEFF0DC182F61E070E0CE01F2DC812FA5
:102CC000DF91CF911F910895EF92FF920F931F9381
:102CD000CF93DF93EC018B013EDEF82E86FBEE24D2
:102CE000E0F886FF14C00115110539F0282F30E0F7
:102CF000359527952770F801208340E467E0CE01E1
:102D000063DDF5FE04C040E267E0CE015DDD8E2D9F
:102D1000DF91CF911F910F91FF90EF90089560E0A8
:102D200070E0D2CFCF93DF93EC01AFDD67E1CE014E
:102D3000FFDC8170DF91CF910895EF92FF920F93A6
:102D40001F93CF93DF93EB018A01790140E767E09E
:102D50003BDD85FB992790F9988384FB992790F9AF
:102D6000F801908386FB882780F9F7018083DF9143
:102D7000CF911F910F91FF90EF900895CF92DF9226
:102D8000EF92FF920F931F93CF93DF9300D01F9288
:102D9000CDB7DEB78C017B0160E088E04C8325D3A2
:102DA0004C81B701C80152DF0E944E096B017C01C2
:102DB00021E0AE014D5F5F4F68E0C80184DC8073A5
:102DC00059F40E944E096C197D098E099F09643FD0
:102DD00071408105910560F398012B5F3F4FAE0173
:102DE0004F5F5F4FBE016E5F7F4FC801A6DFFA8065
:102DF000F8018581882321F0C80151DFF80187831C
:102E0000C80118DFC80194DD61E088E0EED28F2DA3
:102E10000F900F900F900F90DF91CF911F910F9116
:102E2000FF90EF90DF90CF900895EF92FF920F9375
:102E30001F93CF93DF93CDB7DEB728970FB6F894E3
:102E4000DEBF0FBECDBF7C0109831A832B833C8379
:102E50004D835E836F83788725E0AE014F5F5F4FC0
:102E60006AE07DDC25E0AE014F5F5F4F60E1C701A6
:102E700076DCF7014481413208F040E261E1C701AC
:102E8000A3DC28960FB6F894DEBF0FBECDBFDF914E
:102E9000CF911F910F91FF90EF900895BF92CF9225
:102EA000DF92EF92FF920F931F93CF93DF93CDB7F3
:102EB000DEB728970FB6F894DEBF0FBECDBF6C010A
:102EC000B62EE982FA820B831C832D833E834F83C7
:102ED000588761110AC0F601E086F18602871387E0
:102EE000248735874687578707C0F6E0F61708F42A
:102EF00031C081E0681307C0EB2DF0E0EB5AFD4FC5
:102F0000649125E006C0E62FF0E0EB5AFD4F649196
:102F100021E0AE014F5F5F4FC60121DC0B2D10E0B9
:102F2000F801E15BFD4F6491F6014481C6014CDC80
:102F300062E0C601FDDBF801E75BFD4F049121E093
:102F400030E001C0220F0A95EAF7822B482F62E099
:102F5000C6013ADC28960FB6F894DEBF0FBECDBF8F
:102F6000DF91CF911F910F91FF90EF90DF90CF9065
:102F7000BF9008950F931F93CF93DF938C01EB01C4
:102F800066E0D6DB482F497FC330D10561F0C230FF
:102F9000D10511F4446008C0C130D10511F442607C
:102FA00003C0249709F4466066E0C801DF91CF9121
:102FB0001F910F9109CC66E0BBDB8670863049F02B
:102FC000843049F021E090E0823009F020E0822F47
:102FD000089583E001C082E090E00895EF92FF92AF
:102FE0000F931F93CF93DF931F92CDB7DEB77C0172
:102FF0008B0166E09DDBF7011282282F277D0230CE
:10300000110511F4206207C00130110521F481E09F
:10301000F70182832860422F66E0C7012983D4DB51
:1030200066E0C70185DB2981821721F0F701128252
:1030300080E001C081E00F90DF91CF911F910F914F
:10304000FF90EF90089566E073DB282F28722032FE
:1030500031F081E090E0283021F080E0089582E0B6
:1030600090E008950F931F93CF93DF93EC018B01B2
:1030700060E05EDB482F437F0115110531F0013020
:10308000110511F4486001C04C6060E0CE01DF9191
:10309000CF911F910F9198CBCF93DF93EC0161E01B
:1030A00088816AD161E0898167D161E088E064D17B
:1030B000DED060E070E0CE0103DB61E070E0CE01C5
:1030C000F0DA65E070E080E090E00E947D094FE476
:1030D00064E0CE0179DB63E070E0CE014BDF62E0BB
:1030E00070E0CE017BDF882311F081E08B8360E00C
:1030F00070E0CE0173DF62E070E0CE01B3DF40E04C
:103100006CE1CE0161DB40E767E0CE015DDB6CE4A2
:10311000CE0150DDCE01F9DBCE010ADC61E088E0B2
:10312000DF91CF9162C160E003DB83FF05C082FFC6
:1031300006C082E090E0089580E090E0089581E08C
:1031400090E00895CF93DF93EC0105DC682FCE016A
:1031500015DC22E04AE065EA71E0CE0194DC24E06F
:103160004CE068E971E0CE0135DC21E040E160E946
:1031700071E0CE0188DC26E041E165E871E0CE0136
:1031800029DC21E041E06FE771E0CE0123DC21E0A2
:1031900042E065E771E0CE011DDC21E045E06FE62D
:1031A00071E0CE0117DC21E046E066E671E0CE0179
:1031B00011DC21E040E06FE571E0CE010BDC22E0A4
:1031C0004CE161E571E0CE0105DCCE013CDF880F0A
:1031D000991F8B549D4FFC01859194919F938F93E0
:1031E0008FE391E09F938F93C9D5EB81F0E0EE0FD1
:1031F000FF1FE256FD4F859194919F938F9380E33B
:1032000091E09F938F93BAD5CE018DDF880F991FE0
:1032100080589D4FFC01859194919F938F938DE1F0
:1032200091E09F938F93AAD5CE01C5DE880F991F99
:10323000855A9D4FFC01859194919F938F938CE0CB
:1032400091E09F938F939AD58DB79EB740960FB616
:10325000F8949EBF0FBE8DBFDF91CF91089520E1FE
:10326000629FB00111244F70462B64E0ADCACF932A
:10327000CFB7F8948091A705811123C0E0E9F3E06E
:103280008491EAE4F3E09491E82FF0E0EE0FFF1F61
:10329000EB52FC4FA591B4918C91892319F461E014
:1032A00085E3A3D061E085E367D08CB580618CBDF8
:1032B0008CB580648CBD61E084E35ED061E083E323
:1032C0005BD08091A7058F5F8093A705CFBFCF917B
:1032D000089590E0FC013197E231F10508F04BC010
:1032E000EE58FF4F08C1809180008F7703C0809116
:1032F00080008F7D80938000089580918000877F7B
:10330000F9CF84B58F7702C084B58F7D84BD0895D1
:103310008091B0008F7703C08091B0008F7D809343
:10332000B0000895809190008F7707C08091900041
:103330008F7D03C080919000877F809390000895D7
:103340008091A0008F7707C08091A0008F7D03C07F
:103350008091A000877F8093A00008958091200134
:103360008F7707C0809120018F7D03C0809120015D
:10337000877F809320010895CF93DF9390E0FC0135
:10338000EB5EFC4F2491FC01E55AFC4F84918823AD
:1033900049F190E0880F991FFC01EB52FC4FA59179
:1033A000B49185549C4FFC01C591D4919FB7611194
:1033B00008C0F8948C91209582238C938881822375
:1033C0000AC0623051F4F8948C91322F30958323E7
:1033D0008C938881822B888304C0F8948C91822BF3
:1033E0008C939FBFDF91CF9108950F931F93CF933D
:1033F000DF931F92CDB7DEB7282F30E0F901E153FC
:10340000FD4F8491F901EB5EFC4F1491F901E55AEF
:10341000FC4F04910023C1F0882319F0698359DF20
:103420006981E02FF0E0EE0FFF1FE554FC4FA591FE
:10343000B4919FB7F8948C91611103C010958123CA
:1034400001C0812B8C939FBF0F90DF91CF911F9173
:103450000F91089597FB072E16F4009406D077FD80
:1034600008D05FD007FC05D03EF4909581959F4F22
:103470000895709561957F4F0895A1E21A2EAA1BB9
:10348000BB1BFD010DC0AA1FBB1FEE1FFF1FA21714
:10349000B307E407F50720F0A21BB30BE40BF50B11
:1034A000661F771F881F991F1A9469F7609570959A
:1034B000809590959B01AC01BD01CF010895052E2B
:1034C00097FB16F400940FD057FD05D0D6DF07FC0C
:1034D00002D046F408C050954095309521953F4F55
:1034E0004F4F5F4F089590958095709561957F4FF0
:1034F0008F4F9F4F0895EE0FFF1F0590F491E02D21
:1035000019940790F691E02D19940024A7FD0094DA
:103510002A173005400550056005700580059005A7
:103520000895AA1BBB1B51E107C0AA1FBB1FA6170A
:10353000B70710F0A61BB70B881F991F5A95A9F75C
:1035400080959095BC01CD0108955058BB27AA27BE
:103550000ED075C166D130F06BD120F031F49F3FB1
:1035600011F41EF45BC10EF4E095E7FB51C1E92FA5
:1035700077D180F3BA17620773078407950718F0AD
:1035800071F49EF58FC10EF4E0950B2EBA2FA02D8D
:103590000B01B90190010C01CA01A0011124FF2700
:1035A000591B99F0593F50F4503E68F11A16F040FB
:1035B000A22F232F342F4427585FF3CF46953795FA
:1035C0002795A795F0405395C9F77EF41F16BA0BBF
:1035D000620B730B840BBAF09150A1F0FF0FBB1F6D
:1035E000661F771F881FC2F70EC0BA0F621F731FB6
:1035F000841F48F4879577956795B795F7959E3F13
:1036000008F0B3CF9395880F08F09927EE0F9795A0
:1036100087950895D9D008F481E008950CD00FC1A2
:1036200007D140F0FED030F021F45F3F19F0F0C038
:10363000511139C1F3C014D198F39923C9F355231B
:10364000B1F3951B550BBB27AA2762177307840795
:1036500038F09F5F5F4F220F331F441FAA1FA9F34B
:1036600033D00E2E3AF0E0E830D091505040E6953D
:10367000001CCAF729D0FE2F27D0660F771F881F9E
:10368000BB1F261737074807AB07B0E809F0BB0B8D
:10369000802DBF01FF2793585F4F2AF09E3F5105B1
:1036A00068F0B6C000C15F3FECF3983EDCF386954E
:1036B00077956795B795F7959F5FC9F7880F911D27
:1036C0009695879597F90895E1E0660F771F881F13
:1036D000BB1F621773078407BA0720F0621B730BC6
:1036E000840BBA0BEE1F88F7E095089504D0689418
:1036F000B111D9C00895BCD088F09F5790F0B92F70
:103700009927B751A0F0D1F0660F771F881F991F36
:103710001AF0BA95C9F712C0B13081F0C3D0B1E048
:103720000895C0C0672F782F8827B85F39F0B93F58
:10373000CCF3869577956795B395D9F73EF4909538
:103740008095709561957F4F8F4F9F4F0895E894B6
:1037500009C097FB3EF490958095709561957F4FD9
:103760008F4F9F4F9923A9F0F92F96E9BB27939587
:10377000F695879577956795B795F111F8CFFAF497
:10378000BB0F11F460FF1BC06F5F7F4F8F4F9F4FC8
:1037900016C0882311F096E911C0772321F09EE826
:1037A000872F762F05C0662371F096E8862F70E08C
:1037B00060E02AF09A95660F771F881FDAF7880F66
:1037C0009695879597F90895990F0008550FAA0BBC
:1037D000E0E8FEEF16161706E807F907C0F0121624
:1037E0001306E407F50798F0621B730B840B950B27
:1037F00039F40A2661F0232B242B252B21F408957C
:103800000A2609F4A140A6958FEF811D811D089518
:1038100097F99F6780E870E060E008959FEF80EC83
:10382000089500240A941616170618060906089526
:1038300000240A9412161306140605060895092E8C
:103840000394000C11F4882352F0BB0F40F4BF2BFB
:1038500011F460FF04C06F5F7F4F8F4F9F4F08953B
:1038600057FD9058440F551F59F05F3F71F0479531
:10387000880F97FB991F61F09F3F79F08795089516
:10388000121613061406551FF2CF4695F1DF08C035
:10389000161617061806991FF1CF86957105610552
:1038A00008940895E894BB2766277727CB0197F9FA
:1038B00008958ADF08F48FEF08950BD0C0CFB1DFF1
:1038C00028F0B6DF18F0952309F0A2CFA7CF112476
:1038D000EACFC6DFA0F3959FD1F3950F50E0551FB7
:1038E000629FF001729FBB27F00DB11D639FAA2755
:1038F000F00DB11DAA1F649F6627B00DA11D661FA4
:10390000829F2227B00DA11D621F739FB00DA11DC4
:10391000621F839FA00D611D221F749F3327A00D7E
:10392000611D231F849F600D211D822F762F6A2F1A
:1039300011249F5750408AF0E1F088234AF0EE0F9F
:10394000FF1FBB1F661F771F881F91505040A9F7AC
:103950009E3F510570F05CCFA6CF5F3FECF3983EE1
:10396000DCF3869577956795B795F795E7959F5F13
:10397000C1F7FE2B880F911D9695879597F90895AD
:1039800023DF880B990B0895CF93DF938230910545
:1039900010F482E090E0E091AA05F091AB0520E000
:1039A00030E0A0E0B0E0309739F140815181481714
:1039B0005907B8F04817590771F48281938110971D
:1039C00029F013969C938E9312972CC09093AB057D
:1039D0008093AA0527C02115310531F042175307FE
:1039E00018F0A901DB0101C0EF019A01BD01DF015F
:1039F0000280F381E02DD7CF21153105F9F0281B86
:103A0000390B2430310580F48A819B816115710561
:103A100021F0FB019383828304C09093AB058093D4
:103A2000AA05FE01329644C0FE01E20FF31F819306
:103A3000919322503109398328833AC02091A805F7
:103A40003091A905232B41F4209102023091030209
:103A50003093A9052093A80520910002309101021E
:103A60002115310541F42DB73EB740910402509124
:103A70000502241B350BE091A805F091A905E2177A
:103A8000F307A0F42E1B3F0B2817390778F0AC0181
:103A90004E5F5F4F2417350748F04E0F5F1F50935E
:103AA000A9054093A8058193919302C0E0E0F0E05E
:103AB000CF01DF91CF910895CF93DF93009709F461
:103AC00087C0FC01329713821282C091AA05D0915F
:103AD000AB05209781F420813181280F391F809117
:103AE000A8059091A9058217930779F5F093A90588
:103AF000E093A8056DC0DE0120E030E0AE17BF07FF
:103B000050F412964D915C9113979D01411551050A
:103B100009F1DA01F3CFB383A28340815181840F8D
:103B2000951F8A179B0771F48D919C911197840FB3
:103B3000951F02969183808312968D919C91139785
:103B4000938382832115310529F4F093AB05E0932B
:103B5000AA053EC0D9011396FC93EE9312974D919E
:103B60005D91A40FB51FEA17FB0779F4808191815D
:103B7000840F951F0296D90111969C938E93828192
:103B8000938113969C938E931297E0E0F0E08A81E4
:103B90009B81009719F0FE01EC01F9CFCE0102964E
:103BA00028813981820F931F2091A8053091A905A2
:103BB0002817390769F4309729F41092AB05109251
:103BC000AA0502C013821282D093A905C093A8054A
:103BD000DF91CF910895FC0188279927E8942191DE
:103BE0002032E9F3293010F02E30C8F32B3239F0AF
:103BF0002D3231F4689403C05ED0820F911D219163
:103C000020532A30C8F31EF4909581959F4F089554
:103C10001F93FC0199278827BC01E8941191103269
:103C2000E9F3193010F01E30C8F31B3249F01D3291
:103C300041F4689405C02AD0610F711D811D911D4A
:103C4000119110531A30B8F33EF490958095709509
:103C500061957F4F8F4F9F4F1F9108959111089548
:103C600081568A5108F4805285580895FC010590C8
:103C70000020E9F7809590958E0F9F1F0895DC0135
:103C800001C06D9341505040E0F70895592F482FDF
:103C9000372F262F660F771F881F991F660F771FF4
:103CA000881F991F620F731F841F951F660F771F50
:103CB000881F991F08957AE0979F902D879F802DE8
:103CC000910D112408950F931F93CF93DF93EC016F
:103CD0008B01009731F46115710519F480E090E0D3
:103CE00037C06EE070E081E090E066D2FC010097A2
:103CF000A9F380E883830115110571F0138702870A
:103D000081E883838091AC059091AD05892B21F4E6
:103D1000F093AD05E093AC052097C9F0D187C0873B
:103D20008381826083838091AE059091AF05892B5A
:103D300071F4F093AF05E093AE058091B0059091DA
:103D4000B105892B21F4F093B105E093B005CF01C3
:103D5000DF91CF911F910F910895CF93DF93CDB74E
:103D6000DEB7FE01369661917191AF018091AE058B
:103D70009091AF052BD0DF91CF9108950F931F93B2
:103D8000CF93DF93CDB7DEB7FE0138966191719185
:103D90000EEA15E0D8018D919C91DC0113962C91CF
:103DA0001397286013962C93AF0110D0D801ED9192
:103DB000FC912381277F2383DF91CF911F910F9166
:103DC00008956091AE057091AF0526C22F923F9283
:103DD0004F925F926F927F928F929F92AF92BF921B
:103DE000CF92DF92EF92FF920F931F93CF93DF93C7
:103DF000CDB7DEB72C970FB6F894DEBF0FBECDBFA0
:103E00007C016B018A01FC0117821682838181FF8C
:103E1000B0C1CE0101964C01F7019381F60193FDEB
:103E2000859193FF81916F01882309F49EC18532AA
:103E300039F493FD859193FF81916F01853221F4CF
:103E4000B70190E0E9D1E8CF512C312C20E02032AD
:103E5000A0F48B3269F030F4803259F0833269F487
:103E600020612CC08D3239F0803339F4216026C0B6
:103E70002260246023C0286021C027FD27C030EDC8
:103E8000380F3A3078F426FF06C0FAE05F9E300D16
:103E90001124532E13C08AE0389E300D1124332E86
:103EA00020620CC08E3221F426FD5FC1206406C062
:103EB0008C3611F4206802C0883641F4F60193FD77
:103EC000859193FF81916F018111C1CF982F9F7DC3
:103ED0009554933028F40C5F1F4FFFE3F9830DC016
:103EE000833631F0833771F0833509F057C021C034
:103EF000F801808189830E5F1F4F44244394512C25
:103F0000540114C03801F2E06F0E711CF801A0805A
:103F1000B18026FF03C0652D70E002C06FEF7FEF18
:103F2000C5012C876ED12C0183012C852F77222E81
:103F300016C03801F2E06F0E711CF801A080B1804C
:103F400026FF03C0652D70E002C06FEF7FEFC50153
:103F50002C874CD12C012C852068222E830123FC38
:103F600019C0832D90E048165906A0F4B70180E2ED
:103F700090E052D13A94F5CFF50127FC859127FEC8
:103F800081915F01B70190E047D131103A94F1E09F
:103F90004F1A51084114510479F7DEC0843611F0EC
:103FA000893631F5F80127FF07C060817181828170
:103FB00093810C5F1F4F08C060817181882777FD56
:103FC0008095982F0E5F1F4F2F76B22E97FF09C056
:103FD00090958095709561957F4F8F4F9F4F20688A
:103FE000B22E2AE030E0A40149D1A82EA81843C07F
:103FF000853729F42F7EB22E2AE030E025C0F22F3B
:10400000F97FBF2E8F36C1F018F4883579F0ADC036
:10401000803719F0883721F0A8C02F2F2061B22EE9
:10402000B4FE0DC08B2D8460B82E09C024FF0AC0D9
:104030009F2F9660B92E06C028E030E005C020E131
:1040400030E002C020E132E0F801B7FE07C0608135
:104050007181828193810C5F1F4F06C060817181E5
:1040600080E090E00E5F1F4FA40108D1A82EA81891
:10407000FB2DFF77BF2EB6FE0BC02B2D2E7FA51478
:1040800050F4B4FE0AC0B2FC08C02B2D2E7E05C031
:104090007A2C2B2D03C07A2C01C0752C24FF0DC067
:1040A000FE01EA0DF11D8081803311F4297E09C0E3
:1040B00022FF06C07394739404C0822F867809F09F
:1040C000739423FD12C020FF06C05A2C731418F4F9
:1040D000530C5718732C731460F4B70180E290E00E
:1040E0002C879AD073942C85F6CF731410F437185C
:1040F00001C0312C24FF11C0B70180E390E02C8770
:104100008BD02C8522FF16C021FF03C088E590E0EC
:1041100002C088E790E0B7010CC0822F867851F08A
:1041200021FD02C080E201C08BE227FD8DE2B701D4
:1041300090E072D0A51430F4B70180E390E06CD029
:104140005A94F8CFAA94F401EA0DF11D8081B701C9
:1041500090E062D0A110F6CF332009F45DCEB70114
:1041600080E290E059D03A94F7CFF70186819781A9
:1041700002C08FEF9FEF2C960FB6F894DEBF0FBEF4
:10418000CDBFDF91CF911F910F91FF90EF90DF9006
:10419000CF90BF90AF909F908F907F906F905F90E7
:1041A0004F903F902F900895F999FECF92BD81BD19
:1041B000F89A992780B508950F931F93CF93DF93B3
:1041C000869F8001879F100D969F100D1124C801B6
:1041D000DBDBEC01009721F0A80160E070E04FDD2F
:1041E000CE01DF91CF911F910F910895FC010590B1
:1041F000615070400110D8F7809590958E0F9F1FE9
:104200000895FC016150704001900110D8F780952D
:1042100090958E0F9F1F08950F931F93CF93DF9359
:10422000182F092FEB018B8181FD03C08FEF9FEFCA
:1042300020C082FF10C04E815F812C813D814217DA
:1042400053077CF4E881F9819F012F5F3F4F398349
:104250002883108306C0E885F985812F1995892B5D
:1042600029F72E813F812F5F3F4F3F832E83812F80
:10427000902FDF91CF911F910F910895FA01AA27F6
:10428000283051F1203181F1E8946F936E7F6E5F99
:104290007F4F8F4F9F4FAF4FB1E03ED0B4E03CD047
:1042A000670F781F891F9A1FA11D680F791F8A1F2A
:1042B000911DA11D6A0F711D811D911DA11D20D091
:1042C00009F468943F912AE0269F11243019305D4B
:1042D0003193DEF6CF010895462F4770405D41933C
:1042E000B3E00FD0C9F7F6CF462F4F70405D4A3389
:1042F00018F0495D31FD4052419302D0A9F7EACF51
:10430000B4E0A6959795879577956795BA95C9F77F
:1043100000976105710508959B01AC010A2E069472
:104320005795479537952795BA95C9F7620F731F2B
:10433000841F951FA01D089513E0C4EFD3E000E093
:1043400005C022970109FE010BBFDBD8C63FD1078C
:0A43500080E00807B1F7F894FFCFF2
:10435A000000B20580006E676972696D2070616B3A
:10436A0065742067616E2000686F7265206B6974DE
:10437A00612064617065742070616B6574200070DF
:10438A00616B657420696E69207369682070756E47
:10439A007961207361796120006164612070616BC9
:1043AA0065742079616E67206469746572757369D2
:1043BA006E20004144445220534159413A20253449
:1043CA00780A0D0054656D70526561646572004328
:1043DA004F325265616465720048756D696469742B
:1043EA0079526561646572005072696E74546173C2
:1043FA006B005461736B20726F7574696E67005439
:10440A0061736B207365727669636500534348452F
:10441A0044554C45522053544152540054454B4143
:10442A004E205320554E54554B204D454C414B552B
:10443A004B414E2050454E4741545552414E005330
:10444A00494C414B414E204D4153554B4B414E2017
:10445A0050454E4741545552414E00E1AAAAAAAAD4
:10446A00000000D2AAAAAAAA000000D4AAAAAA00F6
:10447A00000000D6AAAAAAAA000000D8AAAAAAAA34
:10448A00000000000000007405E506C904E204D437
:10449A000453050D0A006E616E00696E66006F7640
:1044AA0066002E0049444C4500000000004A10E511
:1044BA0006B71029109D109C104B2025750041202D
:1044CA002575004D202575005100502025752025A1
:1044DA00750059002A0048004C005A0046202575EC
:1044EA0020257500470055004000582025750073A7
:0844FA0000610070202575002F
:00000001FF
